:100000000C94A0170C94CA170C94CA170C94CA1716
:100010000C94CA170C94CA170C94CA170C94CA17DC
:100020000C94CA170C94CA170C94CA170C94CA17CC
:100030000C94CA170C944E400C94CA170C94CA170F
:100040000C94CA170C94D22E0C9443CA0C94CA1761
:100050000C94CEB90C94CA170C94CA170C94CA17F6
:100060000C94CA170C94CA170C94CA170C94CA178C
:100070000C94CA170C94CA170C94CA170C94CA177C
:100080000C9463410C94CA170C94CA174E414E4904
:100090004E495459494E46CDCCCC3D0AD7233C1746
:1000A000B7D13877CC2B329595E6241FB14F0A0093
:1000B0000020410000C84200401C4620BCBE4CCA83
:1000C0001B0E5AAEC59D7400000000000000000029
:1000D000000000454550524F4D20646174617369C2
:1000E0007A65206572726F722E0A00290A002062FA
:1000F000797465733B20637263200053657474697F
:100100006E67732053746F726564202800290A009B
:100110002062797465733B206372632000207374DE
:100120006F7265642073657474696E67732072659D
:1001300074726965766564202800202863616C63A9
:10014000756C6174656429210A0020213D200045F9
:100150004550524F4D20435243206D69736D617479
:100160006368202D202873746F7265642920002035
:1001700053697A653A2000496E6465783A20002018
:100180004D61726C696E3D563536290A0028454529
:1001900050524F4D3D00454550524F4D20766572AF
:1001A00073696F6E206D69736D61746368200048B8
:1001B000617264636F6465642044656661756C7424
:1001C0002053657474696E6773204C6F6164656455
:1001D0000A00F4010000F40100006400000088132C
:1001E000000000009643000096430000A04000007D
:1001F000C8410000A0420000A0420000C843000027
:10020000BA423A0A0020286D6D290020204D383569
:1002100031205A005A2D50726F6265204F66667306
:1002200065740020440020490020204D33303120E7
:1002300050005049442073657474696E67733A0ABC
:100240000020460020420020480020204D31343557
:100250002053004D6174657269616C20686561743A
:10026000757020706172616D65746572733A0A0011
:10027000205A00204A0020204732392057204900C8
:10028000205A0020204D3432302053004175746FC5
:1002900020426564204C6576656C696E673A0A0099
:1002A000204500205A0020590020580020540020EA
:1002B000530020204D32303520510020453C6D61E7
:1002C000785F655F6A65726B3E0020583C6D6178AF
:1002D0005F785F6A65726B3E20593C6D61785F792B
:1002E0005F6A65726B3E205A3C6D61785F7A5F6A27
:1002F00065726B3E00416476616E6365643A2051BD
:100300003C6D696E5F7365676D656E745F74696D72
:10031000655F75733E20533C6D696E5F666565640D
:10032000726174653E20543C6D696E5F74726176D3
:10033000656C5F66656564726174653E002054009B
:1003400020520020204D323034205000416363653C
:100350006C65726174696F6E2028756E6974732F95
:100360007332293A20503C7072696E745F61636326
:10037000656C3E20523C726574726163745F6163A8
:1003800063656C3E20543C74726176656C5F61639A
:1003900063656C3E0A00204500205A002059002069
:1003A000204D3230312058004D6178696D756D20D7
:1003B000416363656C65726174696F6E2028756E48
:1003C0006974732F7332293A0A00204500205A00BD
:1003D00020590020204D3230332058004D6178697B
:1003E0006D756D206665656472617465732028752E
:1003F0006E6974732F73293A0A00204500205A0051
:1004000020590020204D39322058005374657073F4
:100410002070657220756E69743A0A0020204D3292
:1004200030302044300A0020204D3230302044004B
:100430002044697361626C65640A0046696C616D91
:10044000656E742073657474696E67733A0020205A
:100450004D3134392043203B20556E697473206937
:100460006E2043656C736975730A00202047323132
:10047000202020203B005452494747455245440024
:100480006F70656E003A20007A5F6D696E00795F6B
:100490006D696E00785F6D696E005265706F727481
:1004A000696E6720656E6473746F70207374617415
:1004B00075730A00000000010000000100008000C8
:1004C000555555000000400033333300AAAA2A00D6
:1004D0004992240000002000C7711C00999919005E
:1004E000D1451700555515003BB1130024491200A2
:1004F00011111100000010000F0F0F00E3380E0063
:1005000043790D00CCCC0C00C3300C00E8A20B00EA
:1005100064210B00AAAA0A00703D0A009DD80900B8
:10052000427B090092240900DCD308008888080077
:100530001042080000000800F0C10700878707008C
:1005400075500700711C07003EEB0600A1BC0600B9
:100550006990060066660600703E06006118060097
:1005600017F4050074D105005BB00500B2900500DA
:10057000627205005555050078390500B81E050062
:10058000050505004EEC040087D40400A1BD04005D
:1005900090A7040049920400C17D0400EE690400A4
:1005A000C7560400444404005C32040008210400DF
:1005B00041100400000004003FF00300F8E00300D5
:1005C00026D20300C3C30300CCB503003AA803003E
:1005D0000A9B0300388E0300C08103009F7503004F
:1005E000D0690300505E03001D530300344803002C
:1005F000913D03003333030016290300381F030025
:1006000097150300300C0300030303000BFA0200EC
:1006100049F10200BAE802005CE002002DD80200B5
:100620002DD0020059C80200B0C0020031B902004A
:10063000DAB10200AAAA0200A0A30200BC9C020038
:10064000FA9502005C8F0200DF88020082820200BD
:10065000457C02002776020027700200436A0200F0
:100660007C640200D05E02003F590200C8530200C1
:1006700020746F6F206C6F6E67206578747275736D
:10068000696F6E2070726576656E7465640A00200D
:10069000636F6C6420657874727573696F6E207017
:1006A000726576656E7465640A00FFFDFCFAF8F603
:1006B000F4F2F0EEECEAE9E7E5E3E1E0DEDCDAD9DA
:1006C000D7D5D4D2D0CFCDCBCAC8C7C5C3C2C0BF7F
:1006D000BDBCBAB9B7B6B4B3B2B0AFADACAAA9A8F5
:1006E000A6A5A4A2A1A09E9D9C9A99989795949343
:1006F00092908F8E8D8B8A89888786848382818071
:100700007F7E7D7B7A797877767574737271706F7E
:100710006E6D6C6B6A696867666564636261605F71
:100720005E5D5C5B5A595858575655545352515058
:10073000504F4E4D4C4B4A4A494847464645444324
:10074000424241403F3E3E3D3C3B3B3A39383837E0
:10075000363535343332323130302F2E2E2D2C2B8E
:100760002B2A29292827272625252423232221212E
:1007700020201F1E1E1D1C1C1B1B1A1919181817C0
:100780001616151514131312121111100F0F0E0E49
:100790000D0D0C0C0B0A0A090908080707060605C7
:1007A0000504040303020201000024F4D43050C302
:1007B0008E20C2A24017828B7011127A910D816C2B
:1007C000D90AA861E108C7586607615143061E4B64
:1007D0005D05C145A7041A411104093D980371390B
:1007E00031034036DB0265339102D4305402802E4F
:1007F0001D02632CEE01752AC501B028A001102747
:1008000081018F2564012B244B01E0223401AC21AE
:100810001F018D200D01801FFC00841EED00971D1F
:10082000DF00B81CD200E61BC600201BBC00641A07
:10083000B200B219A8000A19A0006A189900D117CD
:10084000910040178B00B516840031167E00B31559
:1008500079003A157300C7146F0058146A00EE133C
:1008600066008813630025135E00C7125B006C12DC
:10087000570015125400C111510070114F00211181
:100880004B00D61049008D1047004610440002105E
:100890004200C00F4000800F3E00420F3C00060F98
:1008A0003B00CB0E3800930E37005C0E3500270E50
:1008B0003400F30D3200C10D3100900D3000600D99
:1008C0002E00320D2D00050D2C00D90C2B00AE0C86
:1008D0002900850C29005C0C2700350C27000E0C24
:1008E0002600E80B2400C40B2400A00B23007D0B82
:1008F00023005A0B2100390B2100180B2000F80AA5
:100900001F00D90A1E00BB0A1E009D0A1D00800A96
:100910001D00630A1C00470A1B002C0A1B00110A59
:100920001A00F7091A00DD091900C4091900AB09FA
:100930001900920917007B091800630917004C0978
:10094000160036091600200916000A091500F508D8
:100950001500E0081400CC081400B8081400A4081E
:100960001400900813007D0812006B08130058084B
:100970001200460812003408110023081100120862
:10098000110001081100F0071000E0071000D00767
:100990001000C0071000B0070F00A107100091075A
:1009A0000E0083070F0074070F0065070E0057073E
:1009B0000E0049070E003B070D002E070E00200712
:1009C0000D0013070D0006070D00F9060C00ED06DB
:1009D0000D00E0060C00D4060C00C8060C00BC0696
:1009E0000C00B0060C00A4060B0099060C008D0646
:1009F0000B0082060B0077060B006C060B006106ED
:100A00000A0057060B004C060A0042060A00380688
:100A10000A002E060A0024060A001A060A0010061A
:100A2000090007060A00FD050900F4050900EB05A9
:100A30000900E2050900D9050900D0050900C7052C
:100A40000900BE050900B5050800AD050800A505AB
:100A500009009C050800940508008C050800840521
:100A600008007C050800740508006C050700650592
:100A700008005D050700560508004E0507004705FC
:100A800007004005080038050700310507002A0562
:100A90000700230507001C050600160507000F05C3
:100AA00007000805060002050700FB040600F50420
:100AB0000700EE040600E8040600E2040700DB0479
:100AC0000600D5040600CF040600C9040600C304CE
:100AD0000600BD040600B7040600B1040500AC041E
:100AE0000600A6040600A00405009B040600950469
:100AF0000500900406008A040500850405008004B2
:100B000006007A04050075040500700405006B04F6
:100B1000050066040500610405005C040500570437
:100B20000500520405004D04050048040500430477
:100B300005003E0404003A040500350405003004B5
:100B400004002C04050027040400230405001E04EF
:100B500004001A04040016040500110404000D0426
:100B60000400090405000404040000040400FC035C
:100B70000400F8030400F4030400F0030400EC0391
:100B80000400E8030400E4030400E0030400DC03C1
:100B90000400D8030400D4030400D0030400CC03F1
:100BA0000400C8030300C503030024F404D9201B78
:100BB000C40C5C0E9804C4095F0265077101F4055A
:100BC000F900FB04B30048048700C103690058031F
:100BD000550003034500BE023A008402310053026F
:100BE0002A002902250004022000E4011C00C8019B
:100BF0001900AF011700980114008401130071015E
:100C000010006101100051010E0043010D0036017A
:100C10000B002B010B0020010B00150109000C013A
:100C2000090003010800FB000800F3000800EB00C6
:100C30000700E4000600DE000600D8000600D2002F
:100C40000600CC000500C7000500C2000500BD007D
:100C50000400B9000400B5000400B1000400AD00B8
:100C60000400A9000400A5000300A20003009F00E7
:100C700004009B000300980003009500020093000D
:100C80000300900003008D0002008B000300880029
:100C900002008600020084000300810002007F0041
:100CA00002007D0002007B00020079000200770054
:100CB0000100760002007400020072000100710061
:100CC00002006F0002006D0001006C0002006A006B
:100CD0000100690002006700010066000100650074
:100CE0000100640002006200010061000100600078
:100CF00001005F0002005D0001005C0001005B007C
:100D000001005A000100590001005800010057007D
:100D1000010056000100550001005400010053007D
:100D2000000053000100520001005100010050007A
:100D300001004F0001004E0000004E0001004D0078
:100D400001004C0001004B0000004B0001004A0074
:100D50000100490001004800000048000100470070
:100D6000010046000000460001004500000045006B
:100D70000100440001004300000043000100420064
:100D8000000042000100410000004100010040005D
:100D900001003F0000003F0001003E0000003E0057
:100DA00001003D0000003D0001003C0000003C004F
:100DB00000003C0001003B0000003B0001003A0045
:100DC00000003A000100390000003900010038003D
:100DD0000000380000003800010037000000370034
:100DE000010036000000360000003600010035002A
:100DF0000000350000003500010034000000340020
:100E00000000340001003300000033000000330014
:100E10000100320000003200000032000100310009
:100E200000003100000031000100300000003000FF
:100E30000000300001002F0000002F0000002F00F4
:100E400000002F0001002E0000002E0000002E00E8
:100E500001002D0000002D0000002D0000002D00DD
:100E600001002C0000002C0000002C0000002C00D1
:100E700001002B0000002B0000002B0000002B00C5
:100E800001002A0000002A0000002A0000002A00B9
:100E900001002900000029000000290000002900AD
:100EA00000002900010028000000280000002800A0
:100EB0000000280000002800010027000000270093
:100EC0000000270000002700000027000100260086
:100ED000000026000000260000002600000026007A
:100EE000010025000000250000002500000025006D
:100EF000000025000000250001002400000024005F
:100F00000000240000002400000024000100230051
:100F10000000230000002300000023000000230045
:100F20000000230000002300010022000000220036
:100F30000000220000002200000022000000220029
:100F4000010021000000210000002100000021001C
:100F5000000021000000210000002100010020000D
:100F60000000200000002000000020000000200001
:100F700000002000000020000000200001001F00F1
:100F800000001F0000001F0000001F0000001F00E5
:100F900000001F0000001F0001001E0000001E00D6
:100FA00000001E0000001E00000039300000332544
:100FB000000087190000B00F0000DB080000BD042E
:100FC0000000740200003F0100006265640A002C0A
:100FD0002073797374656D2073746F70706564210C
:100FE000204865617465725F49443A200042656437
:100FF0002068656174696E67206661696C6564006C
:1010000048656174696E67206661696C6564004556
:10101000312048656174696E67206661696C65643A
:101020000048656174696E67206661696C6564007B
:101030004B494C4C45442E200070012C0190012757
:1010400001B0012201C0011D01F0011801100213BD
:101050000130020E016002090190020401C002FF8A
:10106000000003FA004003F5008003F000D003EB1A
:10107000002004E6007004E100E004DC004005D735
:1010800000C005D2004006CD00D006C8008007C3CE
:10109000003008BE00F008B900C009B400B00AAFC3
:1010A00000B00BAA00D00CA500000EA000500F9BB2
:1010B00000C01096005012910000148C00C01587DB
:1010C00000B0178200B0197D00D01B7800001E739D
:1010D0000040206E0090226900F024640040275FE9
:1010E0000090295A00E02B5500102E500020304B64
:1010F0000010324600E033410090353C0010373795
:101100000070383200A0392D00B03A2800A03B23EF
:1011100000603C1E00103D1900903D1400103E0F71
:1011200000703E0A00C03E0500003F0000403FFB4B
:10113000FF803FF6FFC03FF1FF4531205448455244
:101140004D414C2052554E41574159004245442093
:10115000544845524D414C2052554E41574159003B
:10116000546865726D616C2052756E6177617900AB
:101170004531204572723A204D415854454D50003A
:101180004572723A204D415854454D5020424544D5
:10119000004D415854454D5020747269676765721F
:1011A0006564004531204572723A204D494E5445E0
:1011B0004D50004572723A204D494E54454D5020D5
:1011C000424544004D494E54454D50207472696764
:1011D0006765726564004D383420582059205A20C4
:1011E0004500202F002042403A0020403A0025755B
:1011F0003A2530327500253032753A253032750087
:1012000025756420253032753A253032750020204E
:1012100020202020005A00590020202020005800C3
:101220000920000000000000000000000000003F56
:10123000FFF0000000000000000000000000380087
:101240007000000000000000000000000030FC30D2
:1012500000000000000000000000000020FC100062
:1012600000000000000000000000002078100000D6
:10127000000000000000000000002030100000000E
:101280000000000000000000002C00D03FC0000063
:1012900000000000002082002E31D07FE00000001E
:1012A000000000001041002F7BD07FE00000000014
:1012B0000000001041002F7BD07FE0000000000004
:1012C00000002082002E31D03FC00000000000004E
:1012D000004104002C00D03FC000000000000000CE
:1012E0008208002030107FE0000000000000008233
:1012F00008002078107FE00000000000000041049A
:101300000020FC107FE000000000000000208200B0
:1013100030FC301F8000000000000000000000389A
:1013200000700F0000000000000000FFFFC03FFF42
:10133000F0060000000000000000FFFFC0000000F9
:101340000000000000000000000000003FFFF0006F
:1013500000000000000000000000003800700000E5
:101360000000000000000000000031863000000096
:1013700000000000000000000023871000000000B3
:10138000000000000000000027879000000000001F
:10139000000000000000002F87D0000000000000C7
:1013A0000000000000002F03D03FC000000000003C
:1013B00000002082002030107FE0000000000000CC
:1013C000001041002078107FE000000000000000C5
:1013D0001041002078107FE0000000000000002095
:1013E00082002030103FC0000000000000004104D7
:1013F000002F03D03FC00000000000000082080062
:101400002F87D07FE0000000000000008208002746
:1014100087907FE000000000000000410400238767
:10142000107FE000000000000000208200318630C4
:101430001F80000000000000000000003800700F56
:101440000000000000000000FFFFC03FFFF00600AA
:1014500000000000000000FFFFC0000000456E64B7
:1014600065722D332050726F2052656164792E00B1
:101470005072696E74696E672E2E2E005072696EFE
:10148000742070617573656400436D643A20537411
:101490006F7700436D643A204465706C6F79004348
:1014A0006D643A2053656C662D5465737400436D0A
:1014B000643A2053572D4D6F646500436D643A20A4
:1014C0005265736574004D61696E005072696E7487
:1014D0002061626F72746564004D3231004E6F207E
:1014E00053442063617264004368616E67652053F2
:1014F000442063617264004D3231005072696E7431
:101500002066726F6D2053440053746F70207072A8
:10151000696E7400526573756D65207072696E74C2
:1015200000496E69742E2053442063617264005038
:1015300061757365207072696E7400436F6E7472AA
:101540006F6C00507265706172650054756E650055
:10155000496E666F2073637265656E0042616279E1
:1015600073746570205A00426162797374657020EB
:101570005A00466C6F7700466C6F770046616E20AC
:1015800073706565640046616E2073706565640004
:1015900042656400426564004E6F7A7A6C65004E65
:1015A0006F7A7A6C65004661646520486569676892
:1015B000740046616465204865696768740053700B
:1015C000656564005370656564004D61696E005027
:1015D00072656865617420504C4120456E6400500E
:1015E00072656865617420504C412042656400500A
:1015F00072656865617420504C410050726570617D
:1016000072650050726568656174204142532045DF
:101610006E640050726568656174204142532042D7
:1016200065640050726568656174204142530050E2
:10163000726570617265004D323830205030205331
:1016400031363000436D643A2053656C662D546525
:101650007374004D32383020503020533132300016
:10166000507265686561742041425300507265682C
:1016700065617420504C4100436F6F6C646F776EEE
:101680000044697361626C65207374657070657283
:1016900073004D38340046616465204865696768A9
:1016A00074004661646520486569676874004F6628
:1016B00066004F6E2000426564204C6576656C695B
:1016C0006E6700436D643A205265736574004C6523
:1016D00076656C20626564004732380A473239000B
:1016E0004175746F20686F6D6500473238004D6F2B
:1016F00076652061786973004D61696E004D6F7683
:10170000652058004D6F76652059004D6F76652035
:101710005A004578747275646572004D6F76652065
:10172000302E316D6D004D6F766520316D6D004D41
:101730006F76652031306D6D004D6F766520617874
:101740006973004578747275646572004D6F7665D3
:10175000205A004D6F76652059004D6F76652058F0
:10176000004578747275646572004175746F206805
:101770006F6D6500473238004D6F7665205A004D19
:101780006F76652059004D6F76652058004F66666C
:10179000004F6E2000536F667420456E6473746F43
:1017A0007073005072657061726500496E6974698A
:1017B000616C697A6520454550524F4D00436F6E0C
:1017C00074726F6C00526573746F72652066616924
:1017D0006C73616665004C6F616420736574746935
:1017E0006E677300496E697469616C697A6520453A
:1017F0004550524F4D0053746F7265207365747479
:10180000696E677300424C546F7563680046696C7B
:10181000616D656E74004D6F74696F6E0054656D17
:101820007065726174757265004D61696E00507209
:1018300065686561742041425320636F6E66005095
:1018400072656865617420504C4120636F6E66005C
:101850005049442D44005049442D44005049442DE2
:1018600049005049442D49005049442D50005049E9
:10187000442D500046616E207370656564004661BA
:101880006E207370656564004265640042656400A3
:101890004E6F7A7A6C65004E6F7A7A6C6500436F92
:1018A0006E74726F6C00434F4D4D554E4943415419
:1018B000494F4E0044525952554E004552524F52D4
:1018C0005300494E464F004543484F00656E7175C1
:1018D000657565696E6720220053544F505045442A
:1018E0002E20005072696E7465722073746F707070
:1018F00065642064756520746F206572726F727301
:101900002E2046697820746865206572726F722097
:10191000616E6420757365204D39393920746F20EC
:10192000726573746172742E202854656D706572CF
:1019300061747572652069732072657365742E20F9
:1019400053657420697420616674657220726573D2
:1019500074617274696E67290A004E6F204368656E
:10196000636B73756D2077697468206C696E652090
:101970006E756D6265722C204C617374204C696EBB
:10198000653A20004E6F20436865636B73756D2068
:1019900077697468206C696E65206E756D6265721A
:1019A0002C204C617374204C696E653A200063688A
:1019B00065636B73756D206D69736D617463682CFD
:1019C000204C617374204C696E653A20004C696E3E
:1019D00065204E756D626572206973206E6F74208C
:1019E0004C617374204C696E65204E756D62657232
:1019F0002B312C204C617374204C696E653A2000A9
:101A00004D313130004D33310053442072656164F3
:101A1000206572726F720A00446F6E652070726981
:101A20006E74696E672066696C650A0020496E767F
:101A3000616C696420657874727564657220004811
:101A40006F6D652025732573257320666972737425
:101A5000002066697273740A005A005900580048E1
:101A60006F6D65200042696C696E656172204C651E
:101A700076656C696E6720477269643A0A00486F40
:101A80006D696E67206661696C6564002028445248
:101A90005952554E2900473239204175746F204202
:101AA0006564204C6576656C696E67003F20284C44
:101AB0002C522C462C4229206F7574206F662062B0
:101AC0006F756E64732E0A003F2856296572626F27
:101AD0007365206C6576656C20697320696D706C28
:101AE00061757369626C652028302D34292E0A00D7
:101AF000426164205A2076616C75650A004E6F2041
:101B000062696C696E65617220677269640A00506F
:101B1000726F7465637465642050696E0A002057A3
:101B20003A004520436F6F6C696E672E2E2E00457C
:101B30002048656174696E672E2E2E0020573A008A
:101B400042656420636F6F6C696E672E2E2E0042B3
:101B500065642068656174696E672E2E2E00205AB8
:101B60003A0020593A0020436F756E7420583A00AD
:101B700020453A00205A3A0020593A00583A003A93
:101B8000004361703A0023646566696E65204445D0
:101B90004641554C545F4B64200023646566696E72
:101BA000652044454641554C545F4B6920002364F1
:101BB0006566696E652044454641554C545F4B70DF
:101BC0002000504944204175746F74756E6520661D
:101BD000696E697368656421205075742074686546
:101BE000206C617374204B702C204B6920616E64F3
:101BF000204B6420636F6E7374616E747320667221
:101C00006F6D2062656C6F7720696E746F20436F13
:101C10006E66696775726174696F6E2E680A00502E
:101C20004944204175746F74756E65206661696CF6
:101C30006564212074696D656F75740A00453120F3
:101C4000544845524D414C2052554E415741590040
:101C5000546865726D616C2052756E6177617900B0
:101C600045312048656174696E67206661696C65FD
:101C7000640048656174696E67206661696C6564BB
:101C800000504944204175746F74756E652066611B
:101C9000696C6564212054656D706572617475723C
:101CA0006520746F6F20686967680A00204B643A8A
:101CB0002000204B693A2000204B703A20000A2077
:101CC000436C617373696320504944200A002054B7
:101CD000753A2000204B753A2000206D61783A203B
:101CE00000206D696E3A200020643A20002062696D
:101CF00061733A2000504944204175746F74756EC9
:101D0000652073746172740A0050494420417574EF
:101D10006F74756E65206661696C65642120546519
:101D20006D706572617475726520746F6F2068697B
:101D300067680A00504944204175746F74756E6578
:101D4000206661696C656421204261642065787455
:101D50007275646572206E756D6265720A004F66F9
:101D6000660A0046616465204865696768742000FA
:101D7000426564204C6576656C696E67200046613B
:101D8000696C656420746F20656E61626C652042C9
:101D90006564204C6576656C696E670A00536C65F6
:101DA00065702E2E2E00486F6D652058592066698B
:101DB0007273740A00486F6D652058592066697205
:101DC000737400205A3A200020593A20004265647A
:101DD00020583A20004D65736820706F696E74203A
:101DE00063616E6E6F74206265207265736F6C76CE
:101DF00065640A00436C69636B20746F20726573BD
:101E0000756D652E2E2E004E6F206D6F76652E003F
:101E1000456E642066696C65206C6973740A0042C3
:101E20006567696E2066696C65206C6973740A0069
:101E3000286E6F2066696C65290043757272656E45
:101E4000742066696C653A20005344207072696E94
:101E500074696E67206279746520004E6F74205338
:101E600044207072696E74696E670A0044656C651F
:101E700074696F6E206661696C65642C2046696CBC
:101E8000653A200046696C652064656C657465641C
:101E90003A002569730025696D202569730025695D
:101EA000682025696D2025697300256964202569EE
:101EB000682025696D2025697300256979202569C9
:101EC00064202569682025696D202569730050729A
:101ED000696E742074696D653A20006F666600C78C
:101EE00018C218BB18B418A61844454255473A0002
:101EF0004D3131332053006F6B00456E6465722D98
:101F0000332050726F204F66662E002C20002C204C
:101F100000544845524D414C5F50524F5445435434
:101F2000494F4E004155544F5245504F52545F5304
:101F3000445F53544154555300454D455247454E17
:101F400043595F50415253455200434153455F4C02
:101F5000494748545F4252494748544E45535300FD
:101F6000544F47474C455F4C494748545300534FE3
:101F70004654574152455F504F57455200425549CC
:101F80004C445F50455243454E54004C4556454CD9
:101F9000494E475F44415441005A5F50524F4245B9
:101FA000004155544F4C4556454C005052494E54F3
:101FB0005F4A4F420050524F4752455353004155DC
:101FC000544F5245504F52545F54454D5000564F58
:101FD0004C554D455452494300454550524F4D00D4
:101FE00053455249414C5F584F4E5F584F4646004B
:101FF0004649524D574152455F4E414D453A4D611C
:10200000726C696E206275676669782D312E312E8B
:102010007820284769746875622920534F555243C8
:10202000455F434F44455F55524C3A687474707332
:102030003A2F2F6769746875622E636F6D2F4D613B
:10204000726C696E4669726D776172652F4D61724F
:102050006C696E2050524F544F434F4C5F5645525F
:1020600053494F4E3A312E30204D414348494E4559
:102070005F545950453A456E6465722D3320507255
:102080006F2045585452554445525F434F554E5466
:102090003A3120555549443A636564653261326688
:1020A0002D343161322D343734382D396231322DAF
:1020B0006335356336326633363766660A002F2F4E
:1020C00020004D31343520533C696E6465783E20E4
:1020D0006F7574206F662072616E67652028302DE1
:1020E00031290A00205400205200416363656C6569
:1020F000726174696F6E3A2050005741524E494EDA
:102100004721204C6F77205A204A65726B206D6101
:1021100079206C65616420746F20756E77616E74D0
:102120006564207061757365732E0A00205A002063
:102130005900580020204D61783A2000205A002094
:102140005900580020204D696E3A20004F6E200043
:102150004F666600536F667420656E6473746F70AB
:10216000733A200020466C6F773A200000010F156B
:102170000E12FFFFFFFF16170E13FFFFFFFF0302F4
:102180001A14FFFFFFFFFFFFFF0C04FFFFFF01001A
:102190000EFFFFFF0C190DFF183A20002053657247
:1021A000766F2000206F7574206F662072616E67F5
:1021B000650A00536572766F2000496E76616C691E
:1021C000642065787472756465720A0020643A0050
:1021D00020693A0020703A0043290A0061626C6568
:1021E0006420286D696E2074656D702000436F6CEB
:1021F000642065787472756465732061726520006F
:102200004E6F2063617365206C696768740A004DC6
:1022100065736820706F696E742063616E6E6F7491
:10222000206265207265736F6C7665640A004D34B8
:10223000323120696E636F727265637420706172EF
:10224000616D657465722075736167650A00454547
:1022500050524F4D204F4B0A003F5A206F7574204B
:102260006F662072616E676520282D323020746F92
:10227000203230290A003A200050726F6265205ADD
:10228000204F666673657400416374697665204506
:10229000787472756465723A2000496E76616C6973
:1022A000642065787472756465720A00526573659E
:1022B0006E643A20006F6B0020746F6F206C6F6E3D
:1022C0006720657874727573696F6E2070726576B9
:1022D000656E7465640A0020636F6C6420657874B1
:1022E000727573696F6E2070726576656E74656461
:1022F0000A00627573793A207061757365642066AF
:102300006F7220696E7075740A00627573793A2075
:1023100070617573656420666F7220757365720AEB
:1023200000627573793A2070726F63657373696EBA
:10233000670A004B494C4C45442E20004B494C4CFD
:102340002063617573656420627920746F6F206DFE
:1023500075636820696E6163746976652074696D60
:1023600065202D2063757272656E7420636F6D6DCC
:10237000616E643A2000506C65617365207265730C
:102380006574005052494E5445522048414C5445C2
:1023900044005072696E7465722068616C74656483
:1023A0002E206B696C6C28292063616C6C6564213C
:1023B0000A000000A0410000A04100008040000091
:1023C00000005761726E696E673A20486F6D696EE2
:1023D000672042756D702044697669736F72203C86
:1023E00020310A000202040000A0400000A04000CA
:1023F00000004000006B4300006B4300007A43FF85
:10240000FFFF7C3C3E5E2B3D3F2F5B5D3B2C2A2239
:102410005C004572726F722077726974696E672012
:10242000746F20454550524F4D210A0053746F720E
:10243000652073657474696E677300426564004259
:102440006564004E6F7A7A6C65004E6F7A7A6C65BF
:102450000046616E2073706565640046616E20738E
:10246000706565640054656D706572617475726540
:10247000005654726176206D696E00565472617612
:10248000206D696E00566D696E00566D696E00565E
:102490006D6178204500566D6178204500566D616C
:1024A00078205A00566D6178205A00566D61782068
:1024B0005900566D6178205900566D61782058009A
:1024C000566D61782058004D6F74696F6E00416DD4
:1024D0006178204500416D6178204500416D61784B
:1024E000205A00416D6178205A00416D6178205971
:1024F00000416D6178205900416D6178205800419C
:102500006D6178205800412D74726176656C0041D0
:102510002D74726176656C00412D72657472616311
:102520007400412D72657472616374004163636568
:102530006C00416363656C004D6F74696F6E00568B
:10254000652D6A65726B0056652D6A65726B005663
:102550007A2D6A65726B00567A2D6A65726B005629
:10256000792D6A65726B0056792D6A65726B00561B
:10257000782D6A65726B0056782D6A65726B004D16
:102580006F74696F6E004573746570732F6D6D00A5
:102590004573746570732F6D6D005A737465707335
:1025A0002F6D6D005A73746570732F6D6D005973C4
:1025B000746570732F6D6D005973746570732F6D32
:1025C0006D005873746570732F6D6D00587374656A
:1025D00070732F6D6D004D6F74696F6E005374656D
:1025E00070732F6D6D004A65726B00416363656C9B
:1025F00065726174696F6E0056656C6F636974799A
:102600000050726F6265205A204F666673657400D1
:1026100050726F6265205A204F666673657400437E
:102620006F6E74726F6C0046696C2E204469612E67
:102630000046696C2E204469612E004F6666004F8B
:102640006E20004520696E206D6D3300436F6E74FF
:10265000726F6C0043616E6E6F7420656E7465728C
:10266000207375626469723A2000022E2E000152B6
:10267000656672657368004D61696E000000210037
:10268000240027002A0000002200250028002B003B
:10269000000020002300260029000202020202029C
:1026A00002020404040404040404030303030303F4
:1026B00003030101010101010101010204081020CD
:1026C000408001020408102040800102040810200C
:1026D0004080804020100804020100000001020038
:1026E000090A0000000004030807000000000000C1
:1026F000000000000000000000002020506C616E0F
:102700006E657242756666657242797465733A20C9
:10271000002046726565204D656D6F72793A200024
:10272000436F6D70696C65643A204665622020379E
:1027300020323032300A00207C20417574686F727C
:102740003A2028496E7465727374656C6C61724DC1
:1027500069736669742C20456E646572332050720B
:102760006F20424C546F75636820532D4375727609
:102770006520357835290A00323031382D30372D33
:10278000333100204C61737420557064617465644A
:102790003A20006275676669782D312E312E780AED
:1027A000004D61726C696E0020536F6674776172C0
:1027B000652052657365740A00205761746368640C
:1027C0006F672052657365740A002042726F776EDE
:1027D000206F75742052657365740A002045787403
:1027E00065726E616C2052657365740A00506F7774
:1027F000657255700A0073746172740A00617574B1
:102800006F25692E67006572726F72207772697426
:10281000696E6720746F2066696C650A00456E6496
:1028200073746F7073202563202563202563202532
:102830006300205A3A0020593A0020583A00656E49
:102840006473746F7073206869743A2000446F6E0B
:102850006520736176696E672066696C652E0A0073
:102860004D3239004D3234004D323320257300553E
:102870006E6B6E6F776E20636F6D6D616E643A2064
:10288000220050726F62696E67206661696C6564D0
:102890000A0050726F62696E67206661696C6564D8
:1028A00000205A3A200020593A20004265642058FE
:1028B0003A200053442063617264206F6B0A006FFA
:1028C00070656E526F6F74206661696C65640A0092
:1028D000766F6C756D652E696E6974206661696CC2
:1028E00065640A00534420696E6974206661696CEE
:1028F0000A0057726974696E6720746F2066696C8C
:10290000653A20006F70656E206661696C65642CA5
:102910002046696C653A20006F70656E20666169BB
:102920006C65642C2046696C653A200046696C65CC
:102930002073656C65637465640A002053697A6569
:102940003A200046696C65206F70656E65643A20B8
:10295000002066696C653A2000646F696E670066E6
:1029600072657368004E6F772000454E44205355C2
:1029700042524F5554494E450A002220706F730051
:102980002220706172656E743A2200535542524F94
:102990005554494E452043414C4C20746172676543
:1029A000743A22004B494C4C45442E2000747279F5
:1029B000696E6720746F2063616C6C207375622D83
:1029C00067636F64652066696C65732077697468F6
:1029D00020746F6F206D616E79206C6576656C7305
:1029E0002E204D4158206C6576656C2069733A0045
:1029F0004572726F723A006F70656E206661696C25
:102A000065642C2046696C653A200043616E6E6FE8
:102A100074206F70656E2073756264697220006542
:102A200063686F3A0000060900FE07019203212047
:102A30007FFF07FF07FF00000006000001070706F1
:102A4000020080808080800080030202060105A0D1
:102A5000A00507070600005050F850F85050050731
:102A6000070600002078A07028F020050707060060
:102A700000C0C810204098180507070600006090A5
:102A8000A040A89068020303060104C04080030729
:102A900007060100204080808040200307070601D0
:102AA000008040202020408005050506000120A868
:102AB00070A8200505050600012020F8202002034B
:102AC000030602FFC04080050101060003F8020270
:102AD00002060200C0C005050506000108102040DE
:102AE00080050707060000708888888888700307BB
:102AF0000706010040C040404040E00507070600CF
:102B000000708808708080F8050707060000F8103C
:102B100020100808F005070706000010305090F854
:102B20001010050707060000F880F00808887005F7
:102B30000707060000708080F08888700507070688
:102B40000000F8081020202020050707060000706C
:102B50008888708888700507070600007088887864
:102B6000080870020505060200C0C000C0C00206C9
:102B7000060602FFC0C000C0408004070706000030
:102B800010204080402010050303060002F800F8E2
:102B90000407070601008040201020408005070739
:102BA00006000070880810200020050707060000B6
:102BB00070880868A8A87005070706000070888854
:102BC000F8888888050707060000F08888F088885C
:102BD000F005070706000070888080808870050770
:102BE00007060000F08888888888F0050707060037
:102BF00000F88080F08080F8050707060000F88064
:102C000080F0808080050707060000708880B88803
:102C10008870050707060000888888F8888888017A
:102C200007070602008080808080808005070706F5
:102C3000000038101010109060050707060000888B
:102C400090A0C0A0908805070706000080808080C3
:102C50008080F805070706000088D8A8888888883B
:102C60000507070600008888C8A898888805070710
:102C700006000070888888888870050707060000AD
:102C8000F08888F08080800507070600007088883B
:102C900088A89068050707060000F08888F0A090D3
:102CA00088050707060000788080700808F005078F
:102CB00007060000F8202020202020050707060036
:102CC000008888888888887005070706000088883B
:102CD000888888502005070706000088888888882B
:102CE000A8500507070600008888502050888805EE
:102CF000070706000088888850202020050707065F
:102D00000000F80810204080F8030707060100E0E3
:102D10008080808080E0050505060001804020104D
:102D200008030707060100E02020202020E005031B
:102D300003060004205088050101060000F8020285
:102D40000206020580400505050600007008788827
:102D5000780507070600008080B0C88888F0050560
:102D600005060000708080887005070706000008CF
:102D70000868988888780505050600007088F8803E
:102D8000700507070600003048E040404040050657
:102D9000060600FF7088887808700507070600009F
:102DA0008080B0C8888888010707060200800080FC
:102DB000808080800308080601FF2000202020205A
:102DC000A040040707060000808090A0C0A09003E8
:102DD0000707060100C04040404040E005050506E9
:102DE0000000D0A8A8A8A8050505060000B0C8885E
:102DF0008888050505060000708888887005060625
:102E00000600FFF08888F080800506060600FF783F
:102E10008888780808050505060000B0C88080800D
:102E200005050506000070807008F004070706001D
:102E3000004040E04040403005050506000088881D
:102E400088986805050506000088888850200505D3
:102E5000050600008888A8A850050505060000881A
:102E6000502050880506060600FF8888887808707C
:102E7000050505060000F8102040F80307070601C5
:102E8000002040408040402001070706020080806B
:102E9000808080808003070706010080404020403A
:102EA0004080050202060002689000000006000053
:102EB00000060900FE000000000001090008FE00F5
:102EC0000005080806000040F0C8888898781005BA
:102ED0000808060000C0F88888888888F805050575
:102EE0000600012030F83020050808060000207098
:102EF000F820202020E00509090600FF2070A8A87E
:102F0000B8888870200509090600FFE080C0B0A8D5
:102F1000283028280509090600FFF8A8888888882D
:102F200088A8F8050A0A0600FE205050505088A8CC
:102F3000A8887003030306000340A04046EC7CEA27
:102F400011241FBECFEFD0E4DEBFCDBF12E0A0E062
:102F5000B1E0E8E3FAEF01E00BBF02C007900D9289
:102F6000A833B107D9F724E1A8E3B2E001C01D926C
:102F7000A932B207E1F717E1CFE9D7E104C0219701
:102F8000FE010E9480FCCE39D107C9F70E942DEDC9
:102F90000C940FFD0C9400002CEA35EC47E25EE344
:102FA0006091DB097091DC098091DD099091DE0967
:102FB0000E94C2FA6093D0087093D1088093D2081F
:102FC0009093D30808952CEA35EC47E25EE36091D4
:102FD000DF097091E0098091E1099091E2090E9476
:102FE0004DF66093D4087093D5088093D6089093DB
:102FF000D70808956091170170911801072E000CF1
:10300000880B990B0E94EEF52AE037ED43E25CE372
:103010000E944DF62091C2083091C3084091C40827
:103020005091C5080E944DF66093130170931401EE
:1030300080931501909316010895119800000000E7
:1030400087FD52C0419800000000119A0000000066
:1030500011980000000086FD53C041980000000058
:10306000119A0000000011980000000085FD46C084
:10307000419800000000119A000000001198000023
:10308000000084FD39C0419800000000119A000042
:10309000000011980000000083FD2CC04198000042
:1030A0000000119A0000000011980000000082FD4D
:1030B0001FC0419800000000119A00000000119804
:1030C0000000000081FD12C0419800000000119A2C
:1030D000000000001198000000004198000000006E
:1030E000119A000000000895419AADCF419AEDCFAA
:1030F000419AE0CF419AD3CF419AC6CF419AB9CFF6
:10310000419AACCF90916F00292F227091FF05C09A
:1031100090916F009D7F90936F0034E0839FC0017A
:103120001124FC01E356F74F408151816281738184
:10313000865D964FFC01408351836283738381E0F7
:1031400080939C08222329F080916F0082608093F5
:103150006F000895BC012091280930912909409100
:103160002809509129092417350731F481E02617E1
:10317000370709F080E008959A01F1CFEF92FF92AE
:103180000F931F93E0929408F0929508009396088D
:1031900010939708609398087093990880939A0801
:1031A0009FEFFF27621B730B840B30F480957095A3
:1031B0006195790B890B99279093EF09A6E06A9F97
:1031C0000092E309512DEE277A9F500DE11D8A9F51
:1031D000E00D5093E409E093E509AFE06A9F0092A7
:1031E000E709512DEE277A9F500DE11D8A9FE00DD2
:1031F0005093E809E093E909AAE06A9F0092EB097D
:10320000512DEE277A9F500DE11D8A9FE00D5093BE
:10321000EC09E093ED091F910F91FF90EF90089555
:103220009F92AF92BF92CF92DF92EF92FF920F9355
:103230001F93CF93DF9300D000D01F92CDB7DEB79E
:10324000EAEAF6E00027BB27462F572FA82FAA232C
:1032500041F4A52F542FB85FAA2319F4A52F5527A1
:10326000B85FA03138F45295A295452F4F70507F2A
:10327000A42BBC5FA03428F4550FAA1F550FAA1F1A
:10328000BE5FA03818F4550FAA1FB395550FAA1F9B
:10329000EA0FF01F449151E0AA27B85081F1C8F01D
:1032A000B0FF02C0440F551FB1FF04C0440F551FAB
:1032B000440F551FB2FF06C052954295142F1F7040
:1032C000407F512BB3FF1BC0A52F542F44270C94D4
:1032D0007F19B195B0FF02C055954795B1FF04C065
:1032E0005595479555954795B2FF05C05295407F36
:1032F0004295452B5F70B3FF02C0452F5527DD2453
:10330000CC24BB24B2E0649FD018C108B00AB00B33
:10331000749FC018B108B00B849FB018B109659FA5
:10332000C018B108B00B759FB018B109859FB019CE
:103330006A9FB018B1097A9FB0194D9DA12C9924AC
:103340003327992722275D9DA00C911C301F901FC9
:10335000201FAD9D900C311D901F201F4C9DA00C77
:10336000911C301F901F201F5C9D900C311D901FE1
:10337000201FAC9D300D911D201F4B9D900C311DC9
:10338000901F201F5B9D300D911D201FAB9D900D48
:10339000211D4B9F300D911D201F5B9F900D211D06
:1033A000AB9F200DB1E0BB24CC24DD24639FD0185B
:1033B000C108B00AB00B739FC018B108B00B839F4F
:1033C000B018B109699FC018B108B00B799FB01847
:1033D000B109899FB019629FB018B109729FB019E5
:1033E000D61AC70AB80A20F0B1E03B0F901F201F81
:1033F0001124792F632F90E0822F0F900F900F9060
:103400000F900F90DF91CF911F910F91FF90EF9050
:10341000DF90CF90BF90AF909F900895CF92DF92B2
:10342000EF92FF928091D40B882309F457C0C0908B
:10343000D00BD090D10BE090D20BF090D30B20E0CA
:1034400030E0A901C701B6010E94E7F5882309F41D
:1034500045C020E030E040E05FE3C701B6010E94D4
:103460004DF69B01AC010E944DF62BED3FE049E487
:1034700050E40E944DF69B01AC0160E070E080E8F2
:103480009FE30E94C2FA6B017C01C092C208D092F5
:10349000C308E092C408F092C508609117017091CA
:1034A0001801072E000C880B990B0E94EEF52AE0FC
:1034B00037ED43E25CE30E944DF6A70196010E94BE
:1034C0004DF660931301709314018093150190934E
:1034D0001601FF90EF90DF90CF900895C12CD12C72
:1034E00080E8E82E8FE3F82ED0CF8F929F92AF9294
:1034F000BF92CF92DF92EF92FF92CF93DF93EC01D6
:103500008090B3089090B408A090B508B090B60829
:1035100020E030E0A901C501B4010E94E7F588234D
:1035200009F454C0C880D980EA80FB80A7019601C5
:10353000C501B4010E94E7F518160CF04CC02091AB
:10354000AA023091AB024091AC025091AD02C7018A
:10355000B6010E94E7F5882331F1C092AA02D09209
:10356000AB02E092AC02F092AD022091A602309143
:10357000A7024091A8025091A902688179818A81AD
:103580009B810E944DF69B01AC0160E070E080E8F9
:103590009FE30E943EFA60930001709301018093C3
:1035A00002019093030160910001709101018091EB
:1035B000020190910301DF91CF91FF90EF90DF9096
:1035C000CF90BF90AF909F908F90089560E070E093
:1035D00080E89FE3F0CF60E070E0CB01ECCFCF93C9
:1035E000DF938091EF0B811105C08091F00B882350
:1035F00009F459C08091D90832994FC08E7F8093C9
:10360000D9088091D90833994AC08D7F8093D90811
:103610008091D908349945C08B7F8093D908C09197
:103620001B09C0FF10C08091E40880FF0CC080918E
:10363000D90880FF08C08091F60B81608093F60B5B
:1036400080E00E948218C1FF10C08091E40881FFD1
:103650000CC08091D90881FF08C08091F60B826070
:103660008093F60B81E00E948218C2FF1CC08091FB
:10367000E40882FF18C08091F00B8823A1F08091AC
:10368000D90882FF10C08091F60B84608093F60BFE
:1036900082E0DF91CF910C9482188160B0CF82607C
:1036A000B5CF8460BACFDF91CF9108950C94A5C8AF
:1036B000CF92DF92EF92FF92CF93C82F0E9499C8CA
:1036C0006B017C0124EA30E74DE75FE36091D509A7
:1036D0007091D6098091D7099091D8090E94E7F599
:1036E00087FD18C08AEF90E0A0E0B0E08C0D9D1D32
:1036F000AE1DBF1D8093D60B9093D70BA093D80B14
:10370000B093D90BC0933301CF91FF90EF90DF902E
:10371000CF90089580E090E0DC01E8CF6091D1097E
:103720007091D2098091D3099091D40941E00C9411
:1037300071989F92AF92BF92CF92DF92EF92FF92D9
:103740000F931F93CF93DF935B01E9014A3009F494
:10375000C4C0453109F067C0DB011296ED91FC91C0
:10376000F280C681D781139A88E290E00197F1F741
:10377000EF2CE29420EFE22230E1932E9F0C48E2FE
:10378000C42ED12C88EF0E941D18C6010197F1F7B5
:10379000BFE1BF1508F488C08F2D807780680E9434
:1037A0001D188E2D0E941D18C6010197F1F780E8A3
:1037B0000E941D1880E00E941D18C6010197F1F7B4
:1037C0008AEF0E941D18C6010197F1F78E01005F74
:1037D0001F4F8881807F0E941D1889918295807F6C
:1037E0000E941D18C017D107A1F7C6010197F1F774
:1037F000F394E0E1EE0EF910C5CF1398D5011296BF
:103800000D911C91C8010E94A3CA8111FEC1DF91D4
:10381000CF911F910F91FF90EF90DF90CF90BF90CD
:10382000AF909F900895FB0102811381ECEEE40FAD
:10383000E43308F050C0F0E0E05EF34E0C9480FCFE
:10384000AD1D021C6B1CF51D6B1C6B1C6B1C6B1CDB
:103850006B1C6B1C6B1C6B1C6B1C6B1C6B1C6B1C30
:103860006B1C6B1C6B1C6B1C6B1C6B1C6B1C6B1C20
:103870006B1C6B1C6B1C6B1C6B1C6B1CEF1D6B1C8B
:103880006B1C6B1C6B1C6B1C6B1C6B1C6B1CC01DAA
:103890006B1C6B1C6B1C6B1C6B1C6B1C6B1C6B1CF0
:1038A0006B1C6B1C121E671C80EE8F0D8068807F66
:1038B0000E941D188F2D8295807F0E941D18C601C1
:1038C0000197F1F780E80E941D1880E874CFD801B5
:1038D00011968C91888381E09ACF0B9A1398399A2C
:1038E0004198099A119A139A88E290E00197F1F7AA
:1038F00088E790E0CEE9DFE0FE013197F1F701972C
:10390000D9F788EF0E941D1808E210E0C80101975E
:10391000F1F780E20E941D1880E00E941D18C80186
:103920000197F1F780E00E941D1880E80E941D18A1
:10393000C8010197F1F780E00E941D1880E10E9404
:103940001D18C8010197F1F7CE010197F1F7CE01DB
:103950000197F1F7CE010197F1F7CE010197F1F749
:10396000CE010197F1F7CE010197F1F7CE01019752
:10397000F1F7CE010197F1F7CE010197F1F7CE01F2
:103980000197F1F7CE010197F1F7CE010197F1F719
:10399000CE010197F1F7CE010197F1F72197F1F7E9
:1039A00080E20E941D1880E40E941D18C801019742
:1039B000F1F780E20E941D1880E60E941D18C801E0
:1039C0000197F1F700E010E0C8E2D0E0812F8077A6
:1039D00080680E941D18802F0E941D18CE0101973B
:1039E000F1F780E80E941D1880E00E941D18CE01AA
:1039F0000197F1F78AEF0E941D18CE010197F1F7A8
:103A000080E2119800000000419800000000119A27
:103A10000000000011980000000041980000000024
:103A2000119A000000001198000000004198000069
:103A30000000119A00000000119800000000419859
:103A400000000000119A0000000011980000000022
:103A5000419800000000119A000000001198000039
:103A60000000419800000000119A00000000119829
:103A700000000000419800000000119A00000000C2
:103A8000119800000000419800000000119A000009
:103A90000000119800000000419800000000119AF9
:103AA0000000000011980000000041980000000094
:103AB000119A0000000011980000000041980000D9
:103AC0000000119A000000001198000000004198C9
:103AD00000000000119A0000000011980000000092
:103AE000419800000000119A0000000011980000A9
:103AF0000000419800000000119A00000000119899
:103B000000000000419800000000119A0000000031
:103B1000119800000000419800000000119A000078
:103B20000000FE013197F1F7815009F06ACF88EF6C
:103B30000E941D18CE010197F1F71F5F005F103240
:103B400009F044CF80E00E941D1880EC0E941D18EF
:103B50002197F1F7139881E05ACED80115964C9130
:103B6000159750E0440F551F70E060E016968D9158
:103B70009C910E94A7FCC8010E94B9CA81E047CE6F
:103B800089812B81D80112966C91129713964C91D2
:103B9000213009F467C0233009F048C038EF380FEE
:103BA000582F91E0431708F490E041E0531708F0D4
:103BB00040E031E0561708F430E0592F542B3523FC
:103BC00019F4942309F487CEFA8030E0F901EF521A
:103BD000FE4FD08023533E4FF901E08040C0B90131
:103BE000C8010E948DCA81E012CE1882D8011296B7
:103BF0008C911297898315968C91159781508A83A1
:103C000013968C918B8381E002CEF801458150E0C0
:103C1000440F551F70E060E0868197810E94A7FCE9
:103C200081E0F5CDF8018581888355CE481708F4E9
:103C300052CE861708F44FCEFA80E12CD12C2430D6
:103C400070F4C3CFBE01C8010E948DCA89819881DA
:103C50009D0D98838E0D8983FF0C09F43CCEF7FEF1
:103C6000F6CFF0CF58E0580F382F9BCF3F924F92AE
:103C70005F926F927F928F929F92AF92BF92CF92FC
:103C8000DF92EF92FF920F931F93CF93DF93EC019C
:103C9000162FDCAC5BAC5C0124E0A20EB11CE98DFC
:103CA000FA8DC5010995982EE884F984C7010E9410
:103CB00071CC082F888599850E9474CC782E882431
:103CC0008A94013011F48FE0882E888599850E94AE
:103CD00067CC082F888599850E9463CCC82E88857B
:103CE00099850E946BCC113670F0009761F0E80E58
:103CF000F91E01E6C116B8F41C8A1F8A188E1D8AA7
:103D00001E8A80E05BC0888599850E946ECC113444
:103D100030F0009721F0E80EF91E01E4EBCF81E1CD
:103D2000E80EF11CE7CFC01638F3872D90E0F701BD
:103D300024912F3F39F4FFEFEF1AFF0AC016E1F28A
:103D40000F5FF5CF101368C0888599850E9471CCEC
:103D500097012F5F3F4FF701882319F0823009F058
:103D600044C084918F8BF9012491288FF7013396F9
:103D7000E491EC8BF7013496E491ED8BF7013596E5
:103D8000E491EE8BE114F10409F4BBCF88859985A9
:103D90000E9474CC782ECF88388C8D89580E1D2DBA
:103DA00013198E89181B190D032D2C2D412F652DEC
:103DB000C5010E947ECC811138C08C899BAD890FD2
:103DC0008BAF81E090E0DF91CF911F910F91FF9039
:103DD000EF90DF90CF90BF90AF909F908F907F90AB
:103DE0006F905F904F903F9008958491982F9F70AF
:103DF00092509E8B82958F708D8BF9012491822F2A
:103E00008F70888F22952F702F8BF7013296E49157
:103E1000E295EF70EC8BB6CF3296E491E821E80F93
:103E2000F92FF11DEE0EFF1E89CFE70CF11C07E004
:103E30000C0D069506950695310E4E01F0E28F0E9B
:103E4000911C602E712C131509F4B7CF452C670116
:103E500012C0F60184916E817F8148A219A31BA232
:103E60008AA394014BE3C5010E94C0CAFFEFCF1A99
:103E7000DF0A28E0420E8C2D8E19801750F3E60CD5
:103E8000F71C1F5FE0CF1F93CF93DF93182FEB0139
:103E9000FE018491219681110AC0C5E8D4E0FE019B
:103EA00084912196882331F00E949285F8CF0E9458
:103EB0009285EECFC0E8D4E0112311F0C6E7D4E03C
:103EC000FE0184912196882319F00E949285F8CFF3
:103ED0008AE0DF91CF911F910C949285CF93DF936D
:103EE000803D9240A1F0C0EFD9E2FE01849121967D
:103EF00081110AC0C3EDD0E0FE0184912196882390
:103F000051F00E949285F8CF0E949285EECF80E01A
:103F1000DF91CF91089581E0FBCF2F923F924F9296
:103F20005F926F927F928F929F92AF92BF92CF9249
:103F3000DF92EF92FF920F931F93CF93DF93CDB752
:103F4000DEB76C970FB6F894DEBF0FBECDBF8C0105
:103F50005B015A834983FC01E95BFF4F208131817A
:103F600042815381298B3A8B4B8B5C8BCA01B901FF
:103F70000E94ECF56B017C01D5012D913D914D9195
:103F80005C910E944DF60E94ABFA0E943BFB4B01F4
:103F90005C01E981FA812081318142815381C7012D
:103FA000B6010E944DF60E94ABFA0E943BFB898647
:103FB0009A86AB86BC8629853A854B855C852837F1
:103FC00031054105510540F428E730E040E050E07C
:103FD00029873A874B875C876D837E838F83988799
:103FE0004D815E816F817885483751056105710586
:103FF00040F468E770E080E090E06D837E838F831B
:104000009887F801ED5AFF4F40805180628073809D
:10401000C301B2010E94EEF569837A838B839C838E
:1040200069857A858B859C850E94ECF56D8B7E8BEE
:104030008F8B988F20E030E0A90169817A818B8194
:104040009C810E94E7F5882309F4E1C1A70196014C
:10405000C701B6010E944DF64B015C012D893E89D6
:104060004F89588DCA01B9010E944DF69B01AC01E0
:10407000C501B4010E943EFA4B015C0129813A81DD
:104080004B815C81CA01B9010E943FFA9B01AC01DE
:10409000C501B4010E94C2FA0E94ABFA0E943BFB28
:1040A0006D877E878F87988B66277727CB0164196A
:1040B0007509860997090E94EEF54B015C016D8137
:1040C0007E818F8198850E94ECF52B013C0120E0D8
:1040D00030E0A901C501B4010E94E7F5882309F485
:1040E0009AC1A3019201C301B2010E944DF6698FEA
:1040F0007A8F8B8F9C8FA7019601C701B6010E9412
:104100004DF69B01AC01698D7A8D8B8D9C8D0E9443
:104110003EFA6B017C01A5019401C501B4010E9426
:104120003FFA9B01AC01C701B6010E94C2FA0E948E
:104130006AFBD80195968D909D90AD90BC90989714
:10414000750164012D853E854F855889C21AD30AB1
:10415000E40AF50A0E943BFBC61AD70AE80AF90AE4
:10416000F7FE8EC02D893E894F89588DCA01B9014D
:104170000E944DF66B017C0129813A814B815C8163
:10418000CA01B9010E943FFA698B7A8B8B8B9C8B99
:1041900020E030E0A90169817A818B819C810E94B5
:1041A000E7F5882309F43BC1C501B4010E94ECF591
:1041B00029893A894B895C890E944DF6A7019601AD
:1041C0000E943EFA6D877E878F87988BA3019201AC
:1041D000C301B2010E944DF69B01AC016D857E8545
:1041E0008F8598890E943FFA2B013C0120E030E046
:1041F00040E850E469817A818B819C810E944DF670
:104200009B01AC01C301B2010E94C2FA0E94ABFA49
:104210002B013C0120E030E0A9010E94C2FB1816EE
:104220001CF0412C512C3201C301B2010E943BFB16
:104230006D877E878F87988B86169706A806B906A6
:1042400020F48D869E86AF86B88A6D857E858F85A3
:1042500098890E94ECF529893A894B895C890E94EA
:104260004DF6A70196010E943FFA0E9400FC0E94B1
:104270003BFB698B7A8B8B8B9C8BC12CD12C760171
:1042800069897A898B899C8929853A854B855C85E2
:10429000621B730B840B950B0E94ECF529813A810C
:1042A0004B815C810E94C2FA20E034E244EF59E481
:1042B0000E944DF60E943BFB4B015C0169897A89A3
:1042C0008B899C892D813E814F815885621B730BA0
:1042D000840B950B0E94ECF529813A814B815C811E
:1042E0000E94C2FA20E034E244EF59E40E944DF605
:1042F0000E943BFB2B013C013FE683169104A10485
:10430000B10408F090C0F401EE0FFF1FEE0FFF1F85
:10431000EC54FB4F85919591A591B4918983292EF9
:104320003A2EBD8B4FE6441651046104710408F027
:1043300083C0F201EE0FFF1FEE0FFF1FEC54FB4F87
:1043400045915591659174919A01CB014D855E859A
:104350006F857889D8019A964D935D936D937C9380
:104360009D974C0D5D1D6E1D7F1DF80146A757A73B
:1043700060AB71ABE55BFF4F49855A856B857C85EA
:104380004083518362837383D6968D929D92AD92C2
:10439000BC92D997F80142AE53AE64AE75AEFE96AC
:1043A00049814083218232825D8953833496208300
:1043B00031838283938369897A898B899C89D29698
:1043C0006D937D938D939C93D5973D962D813E81E2
:1043D0004F81588520833183428353836C960FB677
:1043E000F894DEBF0FBECDBFDF91CF911F910F912B
:1043F000FF90EF90DF90CF90BF90AF909F908F9005
:104400007F906F905F904F903F902F90089560E065
:1044100070E0CB0141CE60E070E0CB0188CE60E07F
:1044200070E0CB01F3CEC501B4010E94101969837D
:10443000272E382E9D8B76CFC301B2010E94101912
:104440009B0184CF8091BC098230B1F090917510AE
:10445000992359F080918610811104C089E790E179
:104460000C943CC386E890E1FBCF813041F08DE5B0
:1044700094E16FEF0C94F4D98CE794E1FACF80E7E4
:1044800094E1F7CF8091A5098630D8F496E0899F12
:10449000F0011124EF57F64F20913C0130913D017E
:1044A000318320834091840D5091850D6091860D5C
:1044B0007091870D42835383648375838F5F8093EC
:1044C000A50908950F931F9320913C0130913D0160
:1044D0002817390759F10091B3081091B4082091B9
:1044E000B5083091B6080093D1091093D2092093F2
:1044F000D3093093D40990933D0180933C014093BC
:10450000840D5093850D6093860D7093870D8553B0
:10451000904321F41092DE0B1092A50982E0809363
:104520004C0181E08093820D1092E30B1F910F915B
:10453000089521E02093DE0B6093D5097093D6098E
:104540008093D7099093D80940E050E0BA01809158
:10455000D9099091DA090C94622260E070E080E25F
:1045600091E40C94992260E070E080E89FE30C9461
:1045700099226DEC7CEC8CEC9DE30C94992240E04C
:1045800050E0BA018BEE9BE20E9462221092CD09AC
:104590001092CE091092CF091092D00981E0809339
:1045A000DE0B089540E050E0BA0185E390E30C94FF
:1045B0006222E091A509EE2389F0E150E093A5097C
:1045C00086E0E89FF0011124EF57F64F42815381B6
:1045D00064817581808191810C9462220C94D22235
:1045E0002F923F924F925F926F927F928F929F9203
:1045F000AF92BF92CF92DF92EF92FF920F931F93F1
:10460000CF93DF9300D000D0CDB7DEB70E94D6C5E0
:104610001091800D612E85E0782E710E97E7892E1E
:1046200099249394A12CB12C05E0011B84E0F82E71
:10463000F11A83E0E82EE11A82E0D82ED11A24EF95
:10464000222E33243394412C512C81E0C82EC11AE0
:1046500011113EC08091830D8823B9F080914C01E7
:10466000882361F0662D619581E09091830D911111
:1046700080E024E046EC54E10E943FD11F5F7112BC
:10468000E7CF86E08093810D0CC08091E40B8823F6
:1046900029F31092E40B0E94D9228091820D882385
:1046A000E9F20F900F900F900F90DF91CF911F9133
:1046B0000F91FF90EF90DF90CF90BF90AF909F90C1
:1046C0008F907F906F905F904F903F902F900895C4
:1046D000113041F58091830D813079F080914C014A
:1046E000882361F281E09091830D913009F080E0A0
:1046F00020E24BEB54E16C2DBFCF8091E40B88237B
:1047000069F31092E40B29823A824B825C82BE01EB
:104710006F5F7F4F80EA0E9438828091820D8823EC
:10472000E9F2BFCF123009F080C08091830D823052
:1047300081F080914C01882309F4A0CF81E0909111
:10474000830D923009F080E020E24FE954E16D2DB5
:1047500093CF8091E40B882361F31092E40B89825C
:104760009A82AB82BC82BE016F5F7F4F88E70E9456
:1047700038828091820D8823E1F293CF8091830D5E
:10478000833081F080914C01882309F477CF81E058
:104790009091830D933009F080E020E243E954E1E9
:1047A0006E2D6ACF8091E40B882361F31092E40BA5
:1047B0000E9472828091820D882321F372CF8091B2
:1047C000830D843081F080914C01882309F456CF09
:1047D00081E09091830D943009F080E020E249E877
:1047E00054E16F2D49CF8091E40B882361F310923F
:1047F000E40B0E9457828091820D882321F351CFD0
:104800008091E40B8823E9F01092E40B89829A826C
:10481000AB82BC82BE016F5F7F4F8CE30E94388207
:104820008091820D882369F03CCF133009F4A6CF24
:10483000143029F2153009F021CF8091830D853095
:10484000F9F280914C01882309F418CF81E090910E
:10485000830D953009F080E020E24EEA54E1602FAC
:104860000BCFCF92DF92EF92FF920F931F93CF93D4
:10487000DF93182F7093DA096093D9090E94D6C587
:10488000C091800D85E0D82EDC0E81E004E00C1B89
:1048900093E0F92EFC1A92E0E92EEC1AC82ECC1AFD
:1048A000DC2FD195113009F457C048F1123009F4CA
:1048B0007CC0C111A1C08823D9F08091830D181646
:1048C000BCF04091840D5091850D6091860D7091E2
:1048D000870D4F5F5F4F6F4F7F4F4093840D509315
:1048E000850D6093860D7093870D8F5F8093830D88
:1048F00080914C01882341F163E477E152C0C111FA
:104900007BC08823D9F08091830D1816BCF04091AC
:10491000840D5091850D6091860D7091870D4F5FCC
:104920005F4F6F4F7F4F4093840D5093850D609381
:10493000860D7093870D8F5F8093830D80914C015E
:104940006AE577E181112DC080E0CF5FDC12AACF4C
:1049500085E08093810D74C0C1114EC08823D9F0C9
:104960008091830D1816BCF04091840D5091850DF7
:104970006091860D7091870D4F5F5F4F6F4F7F4F36
:104980004093840D5093850D6093860D7093870D31
:104990008F5F8093830D80914C0163E577E18823DD
:1049A00099F28D2F0E94D1DECFCFC11125C088236F
:1049B000D9F08091830D1816BCF04091840D509170
:1049C000850D6091860D7091870D4F5F5F4F6F4F22
:1049D0007F4F4093840D5093850D6093860D7093A7
:1049E000870D8F5F8093830D80914C016CE477E19C
:1049F000882309F4A9CFD5CFC13059F58091830D13
:104A0000813091F080914C01882309F49DCF81E0A1
:104A10009091830D913009F080E024E049E357E163
:104A20006C2D0E943FD190CF8091E40B882351F3ED
:104A30001092E40B0E94D9228091820D882311F3F9
:104A4000DF91CF911F910F91FF90EF90DF90CF906A
:104A50000895C23009F055C08091830D823081F0F5
:104A600080914C01882309F46FCF81E09091830DF0
:104A7000923009F080E023E04FE257E16E2DD1CF74
:104A80008091E40B882361F31092E40B8DEA92E2AB
:104A90000E9432DF8091820D882311F3D1CF809163
:104AA000830D833081F080914C01882309F44CCF31
:104AB00081E09091830D933009F080E023E046E29D
:104AC00057E16F2DAECF8091E40B882361F31092F4
:104AD000E40B83EB92E20E9432DF8091820D882307
:104AE00011F3AECF8091E40B8823A1F01092E40B78
:104AF00089EB92E20E9432DF8091820D882351F08F
:104B00009FCFC33061F2C43009F01ECF8091830D76
:104B1000843041F380914C01882309F415CF81E062
:104B20009091830D943009F080E023E04BE157E150
:104B3000602F77CF66EE7BE280E00C94312461EE4B
:104B40007BE281E00C9431246CED7BE282E00C94FA
:104B5000312460E87AE283E00C943124EF92FF92F2
:104B60000F931F93CF93DF930E94D6C5C091800D02
:104B700085E0F82EFC0ED3E0DC1B12E01C1B01E0EC
:104B80000C1BEC2EE194C1112DC08091830D882364
:104B9000B1F080914C01882359F081E09091830D10
:104BA000911180E024E04BEF55E16E2D0E943FD142
:104BB000CF5FFC12E8CF84E08093810D0CC0809120
:104BC000E40B882331F31092E40B0E94D9228091E8
:104BD000820D8823F1F2DF91CF911F910F91FF9009
:104BE000EF900895C13061F58091830D813079F0A7
:104BF00080914C018823E1F281E09091830D913006
:104C000009F080E020E24FEE55E1602FCFCF809198
:104C1000E40B882369F31092E40B4091780B5091D8
:104C2000790B6091700B7091710B8091740B909166
:104C3000750B0E947BD98091820D8823C9F2CBCF5E
:104C4000C23009F042C08091830D823081F08091A2
:104C50004C01882309F4ACCF81E09091830D923010
:104C600009F080E020E24FEC55E1612F9FCF809169
:104C7000E40B882361F31092E40B4091780B509180
:104C8000790B6FEF7FEF8091740B9091750B0E9401
:104C90007BD98091820D8823D1F29DCF8091E40B46
:104CA0008823D1F01092E40B4091780B5091790B4E
:104CB0006091700B7091710B90E080E00E947BD945
:104CC0008091820D882341F086CFC33009F070CFE8
:104CD0008091830D833011F380914C01882309F476
:104CE00067CF81E09091830D933009F080E020E25E
:104CF0004FED55E16D2F5ACFEF92FF920F931F9317
:104D0000CF93DF930E94D6C5C091800D85E0F82E29
:104D1000FC0ED3E0DC1B12E01C1B01E00C1BEC2E94
:104D2000E194C1112DC08091830D8823B1F0809151
:104D30004C01882359F081E09091830D911180E01E
:104D400024E04FE256E16E2D0E943FD1CF5FFC126E
:104D5000E8CF84E08093810D0CC08091E40B882320
:104D600031F31092E40B0E94D9228091820D8823A6
:104D7000F1F2DF91CF911F910F91FF90EF90089585
:104D8000C13061F58091830D813079F080914C01C3
:104D90008823E1F281E09091830D913009F080E069
:104DA00020E243E256E1602FCFCF8091E40B8823CD
:104DB00069F31092E40B40917A0B50917B0B609158
:104DC000720B7091730B8091760B9091770B0E9410
:104DD0007BD98091820D8823C9F2CBCFC23009F0F4
:104DE00042C08091830D823081F080914C018823F4
:104DF00009F4ACCF81E09091830D923009F080E00E
:104E000020E243E056E1612F9FCF8091E40B88239D
:104E100061F31092E40B40917A0B50917B0B6FEF92
:104E20007FEF8091760B9091770B0E947BD98091D8
:104E3000820D8823D1F29DCF8091E40B8823D1F09D
:104E40001092E40B40917A0B50917B0B6091720BA6
:104E50007091730B90E080E00E947BD98091820D6D
:104E6000882341F086CFC33009F070CF8091830D45
:104E7000833011F380914C01882309F467CF81E0DE
:104E80009091830D933009F080E020E243E156E1F8
:104E90006D2F5ACF2F923F924F925F926F927F92D7
:104EA0008F929F92AF92BF92CF92DF92EF92FF923A
:104EB0000F931F93CF93DF9300D0CDB7DEB70E943F
:104EC000D6C58091800D8A83582E8B5F898387E0B9
:104ED000B82EB51822E7822E25E1922E86E0A82E64
:104EE000A51885E0782E751834E0432E342C35183B
:104EF00082E0682E65182224239425189A81911146
:104F000037C08091830D882391F080914C018823D4
:104F100009F495C0652D619581E09091830D911103
:104F200080E024E04AEC55E10E943FD188C08091A6
:104F3000E40B882351F31092E40B0E94D922809154
:104F4000820D882311F30F900F90DF91CF911F9165
:104F50000F91FF90EF90DF90CF90BF90AF909F9018
:104F60008F907F906F905F904F903F902F9008951B
:104F70008A818130C1F58091830D8130E9F0809183
:104F80004C01882309F45BC083E08F9387EE8F93F5
:104F90001F928AE08F9389E191E09F938F938EEB2C
:104FA00095E19F938F932F9281E09091830D9130A3
:104FB00009F423C180E021C18091E40B8823F9F238
:104FC0001092E40B10E000E027EE33E04AE050E0FE
:104FD00069E171E084EC95E10E942FC68091820D19
:104FE000882369F2B0CF9A81923009F074C1809120
:104FF000830D823071F180914C01882301F18EE89C
:105000009BE19F938F931F9284E68F931F921F9231
:1050100081ED99E09F938F9386EA95E19F938F931B
:105020006F9281E09091830D923009F080E08F9330
:105030000E94B2CF0FB6F894DEBF0FBECDBF9A81EB
:105040009F5F9A838981891359CF88E08093810D6E
:105050007ACF8091E40B882371F21092E40B81E007
:105060008093880D1092DF0B1092E00B1092E10BF1
:105070001092E20B8EE8C82E8BE1D82EE12CF12C99
:1050800008EC12E420E030E0A90161ED79E082EB68
:1050900095E10E9490C68091820D882309F4ABCFE0
:1050A00052CF8091830D833001F180914C01882390
:1050B00031F286E59BE19F938F9381E08F934F922E
:1050C0001F921F928CED9FE09F938F9388E995E14B
:1050D0009F938F9383E085198F9381E09091830D47
:1050E000933009F446C080E044C08091E40B8823EB
:1050F000E1F21092E40B91E09093880D1092DF0B97
:105100001092E00B1092E10B1092E20B06E51BE10E
:1051100024E031E050E040E06CED7FE08FE995E184
:105120000E942FC68091820D882309F4BECF0BCF39
:105130008091830D843009F180914C01882309F41A
:105140007ECF82E59FE29F938F931F928EE68F938F
:105150001F921F928CE79DE09F938F9380E995E1CA
:105160009F938F933F9281E09091830D943009F04B
:10517000BACF8F930E949BCF5DCF8091E40B8823A1
:10518000D9F21092E40B91E09093880D1092DF0B0E
:105190001092E00B1092E10B1092E20B02E51FE27D
:1051A0002EE630E050E040E06CE77DE084E995E1F8
:1051B0000E942FC68091820D882309F4BDCFC3CEF3
:1051C0008091830D8530E9F080914C01882309F4AA
:1051D00036CF1F928FEF8F931F921F928EE79DE025
:1051E0009F938F938CE795E19F938F937F9281E0BC
:1051F0009091830D953009F0DDCE8F930E949BCF67
:1052000019CF8091E40B8823F9F21092E40B91E01E
:105210009093880D1092DF0B1092E00B1092E10B2F
:105220001092E20B10E000E02FEF30E050E040E0A1
:105230006EE77DE086E895E10E942FC68091820DA1
:10524000882311F280CE8091830D8630F1F0809119
:105250004C01882309F4F3CE8AEF97E19F938F9353
:1052600083E08F9387EE8F931F928AE08F9387E17D
:1052700091E09F938F939F928F92AF9281E0909154
:10528000830D963009F02FCF74CF8091E40B8823E3
:10529000F1F21092E40B0AEF17E127EE33E04AE057
:1052A00050E067E171E087E795E10E942FC68091A9
:1052B000820D882361F247CE8091E40B8823F9F0B8
:1052C0001092E40B8FEB92E20E9432DF8091820D0C
:1052D0008823A9F038CE9A81933009F4E2CE943035
:1052E00009F426CF953009F46BCF963009F4ABCF93
:1052F000973009F0A4CE8091830D8730E9F2809138
:105300004C01882309F49BCE81E09091830D973066
:1053100009F080E023E047E655E16B2D05CE9CE0E7
:10532000899F802D112491E0980F9093910D2CE08E
:10533000280F2093920D40911C1030E02E5F3F4FBC
:105340004217130609F0A4F420911E10921780F45E
:10535000662341F08E5F0E94A0CC8091920D8E5FFB
:105360000E94A0CC8091920D10921F10809320106B
:105370000895CF93DF931F92CDB7DEB780912110B0
:10538000811105C081E0809321100E9425CB60919E
:10539000EA0F7091EB0F19829E012F5F3F4F4FE094
:1053A00088EE9FE00E94C0CA0F90DF91CF910895D0
:1053B0009FEF980F993020F40E9455D981E008950D
:1053C0000E948AC2FBCF9FEF980F993010F40C9483
:1053D00055D90C948AC2CF93DF93EC01FE018491DE
:1053E000882321F00E94E3292196F8CFDF91CF9105
:1053F0000895CF93DF93EC018991882319F00E94DF
:10540000E329FACFDF91CF910895AF92BF92CF9267
:10541000DF92EF92FF920F931F93CF93DF935C0184
:105420007B010E94C3DEC82FC7010E9417DF04E181
:1054300010E0081B1109DD24D394C017110619F0E0
:1054400014F082E0D82E8091E90F90E06D2D70E08D
:105450006F5F7F4F0E946CFCC62EC6E0C60F809126
:105460001C10C81788F120911E104C2F4B50550B63
:10547000241715064CF110921F10C0932010C5017F
:105480000E94C9C2D1E0E114F10499F08AE30E94BC
:105490008AC252E0D5121AC0CC0D80911C10C817D8
:1054A00040F020911E104C2F4B50550B2417150621
:1054B0007CF4DF91CF911F910F91FF90EF90DF90DF
:1054C000CF90BF90AF900895D0E0DDCFDD2389F37A
:1054D000802F880F800F880F80931F10C09320109B
:1054E00080E20E948AC2C701DF91CF911F910F9184
:1054F000FF90EF90DF90CF90BF90AF900C94F92980
:105500008091E40B1092E40B882321F01092DE0BC3
:105510000C94D9226091840D7091850D8091860D37
:105520009091870D611571058105910561F10E94CA
:10553000EEF52091D5093091D6094091D7095091C7
:10554000D8090E944DF62091A90D3091AA0D4091E5
:10555000AB0D5091AC0D0E943FFA6093A90D709372
:10556000AA0D8093AB0D9093AC0D83E00E94581B65
:1055700081E080934C011092840D1092850D109261
:10558000860D1092870D80914C01882349F089EA9D
:105590009DE00E9471CEBC0182E197E10C94052A46
:1055A00008952F923F924F925F926F927F928F92C7
:1055B0009F92AF92BF92CF92DF92EF92FF920F93A2
:1055C0001F93CF93DF93CDB7DEB729970FB6F8942B
:1055D000DEBF0FBECDBF1C016D838091E40B109226
:1055E000E40B8823E9F01092DE0B0E94D922299661
:1055F0000FB6F894DEBF0FBECDBFDF91CF911F91E4
:105600000F91FF90EF90DF90CF90BF90AF909F9061
:105610008F907F906F905F904F903F902F90089564
:105620008091840D9091850DA091860DB091870D8C
:105630008E839F83A887B987892B8A2B8B2B09F4AC
:1056400055C0AD8194E0A99F80011124F801E35673
:10565000F24F408051806280738080911B018111E4
:105660007AC020E030E04AE754E4C301B2010E946E
:105670003EFA4B015C0120E030E04AE754E4C3010C
:10568000B2010E943FFA6B017C016E817F818885A7
:1056900099850E94EEF52091D5093091D609409167
:1056A000D7095091D8090E944DF6A30192010E949A
:1056B0003FFA2B013C018E819F81A885B985B7FFF8
:1056C00065C0A5019401C301B2010E94E7F587FD01
:1056D00055C0F801E356F24F4082518262827382D4
:1056E0008D810E94581B81E080934C011092840DA3
:1056F0001092850D1092860D1092870D80914C01AD
:10570000882309F474CFAD8194E0A99FF00111249E
:10571000E356F24F80819181A281B38189839A837C
:10572000AB83BC832DEC3CEC4CEC5DE36091D50984
:105730007091D6098091D7099091D8090E94C2FB37
:1057400087FD35C0CE0101960E9471CEBC01C1011A
:105750000E94052A4CCFBD81C12CD12C9AE6E92E9E
:1057600093E4F92EB23031F4C12CD12C8AE7E82E23
:1057700083E4F82E812C912C540187CFF801E35655
:10578000F24F80829182A282B382AACFA7019601B2
:10579000C301B2010E94C2FB18160CF09ACFF801A7
:1057A000E356F24FC082D182E282F38299CFCE01DA
:1057B00001960E9480C4CACF62E08BE097E10C940E
:1057C000D12A61E084E097E10C94D12A60E08DEF6A
:1057D00096E10C94D12ACF93DF9300D000D0CDB7BF
:1057E000DEB78091E40B1092E40B882359F01092FD
:1057F000DE0B0E94D9220F900F900F900F90DF9137
:10580000CF9108954091840D5091850D6091860D42
:105810007091870D4115510561057105B9F12AE0B7
:10582000249FC001259F900D11241092840D109289
:10583000850D1092860D1092870D21E020934C016A
:105840002091980D22FF0AC02091C0083091C10814
:10585000280F391F3093C1082093C008092E000C6F
:10586000AA0BBB0B4091CD095091CE096091CF0995
:105870007091D009840F951FA61FB71F8093CD0983
:105880009093CE09A093CF09B093D00980914C0199
:10589000882309F4B0CF6091CD097091CE09809131
:1058A000CF099091D0090E94EEF52091C509309161
:1058B000C6094091C7095091C8090E944DF66983F5
:1058C0007A838B839C83CE0101960E9480C4BC01A5
:1058D0008CE595E10E94052A8ECFCF92DF92EF9260
:1058E000FF920F93CF93DF93982F862F6A01790150
:1058F000692F0E948F2990911C108091920D891719
:1059000008F445C090911E108091910D981708F4ED
:105910003EC0C701002381F00E94C3DEC82FD4E13E
:10592000D81BF6018491882351F00E94D829D81BF6
:10593000FFEFCF1ADF0AF5CF0E9417DFEFCF8AE320
:105940000E948AC2D15010F080E2FACF8091920D6D
:105950009C2F990F990FC91BCC0FC058C0931F10D3
:1059600080932010C701002349F0DF91CF910F9160
:10597000FF90EF90DF90CF900C94EB29DF91CF91C7
:105980000F91FF90EF90DF90CF900C94F929DF9169
:10599000CF910F91FF90EF90DF90CF9008957F927D
:1059A0008F929F92AF92BF92CF92DF92EF92FF922F
:1059B0000F931F93CF93DF930E94D6C5C091800DA4
:1059C0009C2E85E0A82EAC0E93E0B92E81E0F82E37
:1059D000FC1A8C2E819424E7C22E27E1D22E12E0ED
:1059E0001C1B84E0E82EEC1A7B2C7C1AC1114DC0E4
:1059F0008091830D882379F180914C01882359F09F
:105A000081E09091830D911180E024E043EA57E119
:105A1000682D0E943FD18091CB088770873009F0B4
:105A2000C1C0C23009F072C08091830D823009F488
:105A30005CC080914C01882361F081E09091830DDE
:105A4000923009F080E023E046E857E1612F0E94A0
:105A50003FD1D5E0B3C08091E40B882369F2109266
:105A6000E40B0E94D9228091820D882329F2DF91D4
:105A7000CF911F910F91FF90EF90DF90CF90BF904B
:105A8000AF909F908F907F900895C13021F69091B4
:105A9000830D9130C1F080914C01882309F4BBCF74
:105AA00080911B0121E937E1811102C02DE837E126
:105AB00081E0913009F080E001E045E957E16F2D88
:105AC0000E946D2CA8CF8091E40B882321F31092C3
:105AD000E40B80911B018C2780931B01B0924C0139
