:100000000C949A170C94C4170C94C4170C94C4172E
:100010000C94C4170C94C4170C94C4170C94C417F4
:100020000C94C4170C94C4170C94C4170C94C417E4
:100030000C94C4170C94CE3F0C94C4170C94C417A2
:100040000C94C4170C94522E0C945CCA0C94C417D4
:100050000C94E7B90C94C4170C94C4170C94C417EF
:100060000C94C4170C94C4170C94C4170C94C417A4
:100070000C94C4170C94C4170C94C4170C94C41794
:100080000C94E3400C94C4170C94C4174E414E4991
:100090004E495459494E46CDCCCC3D0AD7233C1746
:1000A000B7D13877CC2B329595E6241FB14F0A0093
:1000B0000020410000C84200401C4620BCBE4CCA83
:1000C0001B0E5AAEC59D7400000000000000000029
:1000D000000000454550524F4D20646174617369C2
:1000E0007A65206572726F722E0A00290A002062FA
:1000F000797465733B20637263200053657474697F
:100100006E67732053746F726564202800290A009B
:100110002062797465733B206372632000207374DE
:100120006F7265642073657474696E67732072659D
:1001300074726965766564202800202863616C63A9
:10014000756C6174656429210A0020213D200045F9
:100150004550524F4D20435243206D69736D617479
:100160006368202D202873746F7265642920002035
:1001700053697A653A2000496E6465783A20002018
:100180004D61726C696E3D563536290A0028454529
:1001900050524F4D3D00454550524F4D20766572AF
:1001A00073696F6E206D69736D61746368200048B8
:1001B000617264636F6465642044656661756C7424
:1001C0002053657474696E6773204C6F6164656455
:1001D0000A00F4010000F40100006400000088132C
:1001E000000000009643000096430000A04000007D
:1001F000C8410000A0420000A0420000C843000027
:10020000BA423A0A0020286D6D290020204D383569
:1002100031205A005A2D50726F6265204F66667306
:1002200065740020440020490020204D33303120E7
:1002300050005049442073657474696E67733A0ABC
:100240000020460020420020480020204D31343557
:100250002053004D6174657269616C20686561743A
:10026000757020706172616D65746572733A0A0011
:10027000205A00204A0020204732392057204900C8
:10028000205A0020204D3432302053004175746FC5
:1002900020426564204C6576656C696E673A0A0099
:1002A000204500205A0020590020580020540020EA
:1002B000530020204D32303520510020453C6D61E7
:1002C000785F655F6A65726B3E0020583C6D6178AF
:1002D0005F785F6A65726B3E20593C6D61785F792B
:1002E0005F6A65726B3E205A3C6D61785F7A5F6A27
:1002F00065726B3E00416476616E6365643A2051BD
:100300003C6D696E5F7365676D656E745F74696D72
:10031000655F75733E20533C6D696E5F666565640D
:10032000726174653E20543C6D696E5F74726176D3
:10033000656C5F66656564726174653E002054009B
:1003400020520020204D323034205000416363653C
:100350006C65726174696F6E2028756E6974732F95
:100360007332293A20503C7072696E745F61636326
:10037000656C3E20523C726574726163745F6163A8
:1003800063656C3E20543C74726176656C5F61639A
:1003900063656C3E0A00204500205A002059002069
:1003A000204D3230312058004D6178696D756D20D7
:1003B000416363656C65726174696F6E2028756E48
:1003C0006974732F7332293A0A00204500205A00BD
:1003D00020590020204D3230332058004D6178697B
:1003E0006D756D206665656472617465732028752E
:1003F0006E6974732F73293A0A00204500205A0051
:1004000020590020204D39322058005374657073F4
:100410002070657220756E69743A0A0020204D3292
:1004200030302044300A0020204D3230302044004B
:100430002044697361626C65640A0046696C616D91
:10044000656E742073657474696E67733A0020205A
:100450004D3134392043203B20556E697473206937
:100460006E2043656C736975730A00202047323132
:10047000202020203B005452494747455245440024
:100480006F70656E003A20007A5F6D696E00795F6B
:100490006D696E00785F6D696E005265706F727481
:1004A000696E6720656E6473746F70207374617415
:1004B00075730A00000000010000000100008000C8
:1004C000555555000000400033333300AAAA2A00D6
:1004D0004992240000002000C7711C00999919005E
:1004E000D1451700555515003BB1130024491200A2
:1004F00011111100000010000F0F0F00E3380E0063
:1005000043790D00CCCC0C00C3300C00E8A20B00EA
:1005100064210B00AAAA0A00703D0A009DD80900B8
:10052000427B090092240900DCD308008888080077
:100530001042080000000800F0C10700878707008C
:1005400075500700711C07003EEB0600A1BC0600B9
:100550006990060066660600703E06006118060097
:1005600017F4050074D105005BB00500B2900500DA
:10057000627205005555050078390500B81E050062
:10058000050505004EEC040087D40400A1BD04005D
:1005900090A7040049920400C17D0400EE690400A4
:1005A000C7560400444404005C32040008210400DF
:1005B00041100400000004003FF00300F8E00300D5
:1005C00026D20300C3C30300CCB503003AA803003E
:1005D0000A9B0300388E0300C08103009F7503004F
:1005E000D0690300505E03001D530300344803002C
:1005F000913D03003333030016290300381F030025
:1006000097150300300C0300030303000BFA0200EC
:1006100049F10200BAE802005CE002002DD80200B5
:100620002DD0020059C80200B0C0020031B902004A
:10063000DAB10200AAAA0200A0A30200BC9C020038
:10064000FA9502005C8F0200DF88020082820200BD
:10065000457C02002776020027700200436A0200F0
:100660007C640200D05E02003F590200C8530200C1
:1006700020746F6F206C6F6E67206578747275736D
:10068000696F6E2070726576656E7465640A00200D
:10069000636F6C6420657874727573696F6E207017
:1006A000726576656E7465640A00FFFDFCFAF8F603
:1006B000F4F2F0EEECEAE9E7E5E3E1E0DEDCDAD9DA
:1006C000D7D5D4D2D0CFCDCBCAC8C7C5C3C2C0BF7F
:1006D000BDBCBAB9B7B6B4B3B2B0AFADACAAA9A8F5
:1006E000A6A5A4A2A1A09E9D9C9A99989795949343
:1006F00092908F8E8D8B8A89888786848382818071
:100700007F7E7D7B7A797877767574737271706F7E
:100710006E6D6C6B6A696867666564636261605F71
:100720005E5D5C5B5A595858575655545352515058
:10073000504F4E4D4C4B4A4A494847464645444324
:10074000424241403F3E3E3D3C3B3B3A39383837E0
:10075000363535343332323130302F2E2E2D2C2B8E
:100760002B2A29292827272625252423232221212E
:1007700020201F1E1E1D1C1C1B1B1A1919181817C0
:100780001616151514131312121111100F0F0E0E49
:100790000D0D0C0C0B0A0A090908080707060605C7
:1007A0000504040303020201000024F4D43050C302
:1007B0008E20C2A24017828B7011127A910D816C2B
:1007C000D90AA861E108C7586607615143061E4B64
:1007D0005D05C145A7041A411104093D980371390B
:1007E00031034036DB0265339102D4305402802E4F
:1007F0001D02632CEE01752AC501B028A001102747
:1008000081018F2564012B244B01E0223401AC21AE
:100810001F018D200D01801FFC00841EED00971D1F
:10082000DF00B81CD200E61BC600201BBC00641A07
:10083000B200B219A8000A19A0006A189900D117CD
:10084000910040178B00B516840031167E00B31559
:1008500079003A157300C7146F0058146A00EE133C
:1008600066008813630025135E00C7125B006C12DC
:10087000570015125400C111510070114F00211181
:100880004B00D61049008D1047004610440002105E
:100890004200C00F4000800F3E00420F3C00060F98
:1008A0003B00CB0E3800930E37005C0E3500270E50
:1008B0003400F30D3200C10D3100900D3000600D99
:1008C0002E00320D2D00050D2C00D90C2B00AE0C86
:1008D0002900850C29005C0C2700350C27000E0C24
:1008E0002600E80B2400C40B2400A00B23007D0B82
:1008F00023005A0B2100390B2100180B2000F80AA5
:100900001F00D90A1E00BB0A1E009D0A1D00800A96
:100910001D00630A1C00470A1B002C0A1B00110A59
:100920001A00F7091A00DD091900C4091900AB09FA
:100930001900920917007B091800630917004C0978
:10094000160036091600200916000A091500F508D8
:100950001500E0081400CC081400B8081400A4081E
:100960001400900813007D0812006B08130058084B
:100970001200460812003408110023081100120862
:10098000110001081100F0071000E0071000D00767
:100990001000C0071000B0070F00A107100091075A
:1009A0000E0083070F0074070F0065070E0057073E
:1009B0000E0049070E003B070D002E070E00200712
:1009C0000D0013070D0006070D00F9060C00ED06DB
:1009D0000D00E0060C00D4060C00C8060C00BC0696
:1009E0000C00B0060C00A4060B0099060C008D0646
:1009F0000B0082060B0077060B006C060B006106ED
:100A00000A0057060B004C060A0042060A00380688
:100A10000A002E060A0024060A001A060A0010061A
:100A2000090007060A00FD050900F4050900EB05A9
:100A30000900E2050900D9050900D0050900C7052C
:100A40000900BE050900B5050800AD050800A505AB
:100A500009009C050800940508008C050800840521
:100A600008007C050800740508006C050700650592
:100A700008005D050700560508004E0507004705FC
:100A800007004005080038050700310507002A0562
:100A90000700230507001C050600160507000F05C3
:100AA00007000805060002050700FB040600F50420
:100AB0000700EE040600E8040600E2040700DB0479
:100AC0000600D5040600CF040600C9040600C304CE
:100AD0000600BD040600B7040600B1040500AC041E
:100AE0000600A6040600A00405009B040600950469
:100AF0000500900406008A040500850405008004B2
:100B000006007A04050075040500700405006B04F6
:100B1000050066040500610405005C040500570437
:100B20000500520405004D04050048040500430477
:100B300005003E0404003A040500350405003004B5
:100B400004002C04050027040400230405001E04EF
:100B500004001A04040016040500110404000D0426
:100B60000400090405000404040000040400FC035C
:100B70000400F8030400F4030400F0030400EC0391
:100B80000400E8030400E4030400E0030400DC03C1
:100B90000400D8030400D4030400D0030400CC03F1
:100BA0000400C8030300C503030024F404D9201B78
:100BB000C40C5C0E9804C4095F0265077101F4055A
:100BC000F900FB04B30048048700C103690058031F
:100BD000550003034500BE023A008402310053026F
:100BE0002A002902250004022000E4011C00C8019B
:100BF0001900AF011700980114008401130071015E
:100C000010006101100051010E0043010D0036017A
:100C10000B002B010B0020010B00150109000C013A
:100C2000090003010800FB000800F3000800EB00C6
:100C30000700E4000600DE000600D8000600D2002F
:100C40000600CC000500C7000500C2000500BD007D
:100C50000400B9000400B5000400B1000400AD00B8
:100C60000400A9000400A5000300A20003009F00E7
:100C700004009B000300980003009500020093000D
:100C80000300900003008D0002008B000300880029
:100C900002008600020084000300810002007F0041
:100CA00002007D0002007B00020079000200770054
:100CB0000100760002007400020072000100710061
:100CC00002006F0002006D0001006C0002006A006B
:100CD0000100690002006700010066000100650074
:100CE0000100640002006200010061000100600078
:100CF00001005F0002005D0001005C0001005B007C
:100D000001005A000100590001005800010057007D
:100D1000010056000100550001005400010053007D
:100D2000000053000100520001005100010050007A
:100D300001004F0001004E0000004E0001004D0078
:100D400001004C0001004B0000004B0001004A0074
:100D50000100490001004800000048000100470070
:100D6000010046000000460001004500000045006B
:100D70000100440001004300000043000100420064
:100D8000000042000100410000004100010040005D
:100D900001003F0000003F0001003E0000003E0057
:100DA00001003D0000003D0001003C0000003C004F
:100DB00000003C0001003B0000003B0001003A0045
:100DC00000003A000100390000003900010038003D
:100DD0000000380000003800010037000000370034
:100DE000010036000000360000003600010035002A
:100DF0000000350000003500010034000000340020
:100E00000000340001003300000033000000330014
:100E10000100320000003200000032000100310009
:100E200000003100000031000100300000003000FF
:100E30000000300001002F0000002F0000002F00F4
:100E400000002F0001002E0000002E0000002E00E8
:100E500001002D0000002D0000002D0000002D00DD
:100E600001002C0000002C0000002C0000002C00D1
:100E700001002B0000002B0000002B0000002B00C5
:100E800001002A0000002A0000002A0000002A00B9
:100E900001002900000029000000290000002900AD
:100EA00000002900010028000000280000002800A0
:100EB0000000280000002800010027000000270093
:100EC0000000270000002700000027000100260086
:100ED000000026000000260000002600000026007A
:100EE000010025000000250000002500000025006D
:100EF000000025000000250001002400000024005F
:100F00000000240000002400000024000100230051
:100F10000000230000002300000023000000230045
:100F20000000230000002300010022000000220036
:100F30000000220000002200000022000000220029
:100F4000010021000000210000002100000021001C
:100F5000000021000000210000002100010020000D
:100F60000000200000002000000020000000200001
:100F700000002000000020000000200001001F00F1
:100F800000001F0000001F0000001F0000001F00E5
:100F900000001F0000001F0001001E0000001E00D6
:100FA00000001E0000001E00000039300000332544
:100FB000000087190000B00F0000DB080000BD042E
:100FC0000000740200003F0100006265640A002C0A
:100FD0002073797374656D2073746F70706564210C
:100FE000204865617465725F49443A200042656437
:100FF0002068656174696E67206661696C6564006C
:1010000048656174696E67206661696C6564004556
:10101000312048656174696E67206661696C65643A
:101020000048656174696E67206661696C6564007B
:101030004B494C4C45442E200070012C0190012757
:1010400001B0012201C0011D01F0011801100213BD
:101050000130020E016002090190020401C002FF8A
:10106000000003FA004003F5008003F000D003EB1A
:10107000002004E6007004E100E004DC004005D735
:1010800000C005D2004006CD00D006C8008007C3CE
:10109000003008BE00F008B900C009B400B00AAFC3
:1010A00000B00BAA00D00CA500000EA000500F9BB2
:1010B00000C01096005012910000148C00C01587DB
:1010C00000B0178200B0197D00D01B7800001E739D
:1010D0000040206E0090226900F024640040275FE9
:1010E0000090295A00E02B5500102E500020304B64
:1010F0000010324600E033410090353C0010373795
:101100000070383200A0392D00B03A2800A03B23EF
:1011100000603C1E00103D1900903D1400103E0F71
:1011200000703E0A00C03E0500003F0000403FFB4B
:10113000FF803FF6FFC03FF1FF4531205448455244
:101140004D414C2052554E41574159004245442093
:10115000544845524D414C2052554E41574159003B
:10116000546865726D616C2052756E6177617900AB
:101170004531204572723A204D415854454D50003A
:101180004572723A204D415854454D5020424544D5
:10119000004D415854454D5020747269676765721F
:1011A0006564004531204572723A204D494E5445E0
:1011B0004D50004572723A204D494E54454D5020D5
:1011C000424544004D494E54454D50207472696764
:1011D0006765726564004D383420582059205A20C4
:1011E0004500202F002042403A0020403A0025755B
:1011F0003A2530327500253032753A253032750087
:1012000025756420253032753A253032750020204E
:1012100020202020005A00590020202020005800C3
:101220000920000000000000000000000000003F56
:10123000FFF0000000000000000000000000380087
:101240007000000000000000000000000030FC30D2
:1012500000000000000000000000000020FC100062
:1012600000000000000000000000002078100000D6
:10127000000000000000000000002030100000000E
:101280000000000000000000002C00D03FC0000063
:1012900000000000002082002E31D07FE00000001E
:1012A000000000001041002F7BD07FE00000000014
:1012B0000000001041002F7BD07FE0000000000004
:1012C00000002082002E31D03FC00000000000004E
:1012D000004104002C00D03FC000000000000000CE
:1012E0008208002030107FE0000000000000008233
:1012F00008002078107FE00000000000000041049A
:101300000020FC107FE000000000000000208200B0
:1013100030FC301F8000000000000000000000389A
:1013200000700F0000000000000000FFFFC03FFF42
:10133000F0060000000000000000FFFFC0000000F9
:101340000000000000000000000000003FFFF0006F
:1013500000000000000000000000003800700000E5
:101360000000000000000000000031863000000096
:1013700000000000000000000023871000000000B3
:10138000000000000000000027879000000000001F
:10139000000000000000002F87D0000000000000C7
:1013A0000000000000002F03D03FC000000000003C
:1013B00000002082002030107FE0000000000000CC
:1013C000001041002078107FE000000000000000C5
:1013D0001041002078107FE0000000000000002095
:1013E00082002030103FC0000000000000004104D7
:1013F000002F03D03FC00000000000000082080062
:101400002F87D07FE0000000000000008208002746
:1014100087907FE000000000000000410400238767
:10142000107FE000000000000000208200318630C4
:101430001F80000000000000000000003800700F56
:101440000000000000000000FFFFC03FFFF00600AA
:1014500000000000000000FFFFC0000000456E64B7
:1014600065722D332050726F2052656164792E00B1
:101470005072696E74696E672E2E2E005072696EFE
:10148000742070617573656400436D643A20537411
:101490006F7700436D643A204465706C6F79004348
:1014A0006D643A2053656C662D5465737400436D0A
:1014B000643A2053572D4D6F646500436D643A20A4
:1014C0005265736574004D61696E005072696E7487
:1014D0002061626F72746564004D3231004E6F207E
:1014E00053442063617264004368616E67652053F2
:1014F000442063617264004D3231005072696E7431
:101500002066726F6D2053440053746F70207072A8
:10151000696E7400526573756D65207072696E74C2
:1015200000496E69742E2053442063617264005038
:1015300061757365207072696E7400436F6E7472AA
:101540006F6C00507265706172650054756E650055
:10155000496E666F2073637265656E0042616279E1
:1015600073746570205A00426162797374657020EB
:101570005A00466C6F7700466C6F770046616E20AC
:1015800073706565640046616E2073706565640004
:1015900042656400426564004E6F7A7A6C65004E65
:1015A0006F7A7A6C65004661646520486569676892
:1015B000740046616465204865696768740053700B
:1015C000656564005370656564004D61696E005027
:1015D00072656865617420504C4120456E6400500E
:1015E00072656865617420504C412042656400500A
:1015F00072656865617420504C410050726570617D
:1016000072650050726568656174204142532045DF
:101610006E640050726568656174204142532042D7
:1016200065640050726568656174204142530050E2
:10163000726570617265004D323830205030205331
:1016400031363000436D643A2053656C662D546525
:101650007374004D32383020503020533132300016
:10166000507265686561742041425300507265682C
:1016700065617420504C4100436F6F6C646F776EEE
:101680000044697361626C65207374657070657283
:1016900073004D38340046616465204865696768A9
:1016A00074004661646520486569676874004F6628
:1016B00066004F6E2000426564204C6576656C695B
:1016C0006E6700436D643A205265736574004C6523
:1016D00076656C20626564004732380A473239000B
:1016E0004175746F20686F6D6500473238004D6F2B
:1016F00076652061786973004D61696E004D6F7683
:10170000652058004D6F76652059004D6F76652035
:101710005A004578747275646572004D6F76652065
:10172000302E316D6D004D6F766520316D6D004D41
:101730006F76652031306D6D004D6F766520617874
:101740006973004578747275646572004D6F7665D3
:10175000205A004D6F76652059004D6F76652058F0
:10176000004578747275646572004175746F206805
:101770006F6D6500473238004D6F7665205A004D19
:101780006F76652059004D6F76652058004F66666C
:10179000004F6E2000536F667420456E6473746F43
:1017A0007073005072657061726500496E6974698A
:1017B000616C697A6520454550524F4D00436F6E0C
:1017C00074726F6C00526573746F72652066616924
:1017D0006C73616665004C6F616420736574746935
:1017E0006E677300496E697469616C697A6520453A
:1017F0004550524F4D0053746F7265207365747479
:10180000696E677300424C546F7563680046696C7B
:10181000616D656E74004D6F74696F6E0054656D17
:101820007065726174757265004D61696E00507209
:1018300065686561742041425320636F6E66005095
:1018400072656865617420504C4120636F6E66005C
:101850005049442D44005049442D44005049442DE2
:1018600049005049442D49005049442D50005049E9
:10187000442D500046616E207370656564004661BA
:101880006E207370656564004265640042656400A3
:101890004E6F7A7A6C65004E6F7A7A6C6500436F92
:1018A0006E74726F6C00434F4D4D554E4943415419
:1018B000494F4E0044525952554E004552524F52D4
:1018C0005300494E464F004543484F00656E7175C1
:1018D000657565696E6720220053544F505045442A
:1018E0002E20005072696E7465722073746F707070
:1018F00065642064756520746F206572726F727301
:101900002E2046697820746865206572726F722097
:10191000616E6420757365204D39393920746F20EC
:10192000726573746172742E202854656D706572CF
:1019300061747572652069732072657365742E20F9
:1019400053657420697420616674657220726573D2
:1019500074617274696E67290A004E6F204368656E
:10196000636B73756D2077697468206C696E652090
:101970006E756D6265722C204C617374204C696EBB
:10198000653A20004E6F20436865636B73756D2068
:1019900077697468206C696E65206E756D6265721A
:1019A0002C204C617374204C696E653A200063688A
:1019B00065636B73756D206D69736D617463682CFD
:1019C000204C617374204C696E653A20004C696E3E
:1019D00065204E756D626572206973206E6F74208C
:1019E0004C617374204C696E65204E756D62657232
:1019F0002B312C204C617374204C696E653A2000A9
:101A00004D313130004D33310053442072656164F3
:101A1000206572726F720A00446F6E652070726981
:101A20006E74696E672066696C650A0020496E767F
:101A3000616C696420657874727564657220004811
:101A40006F6D652025732573257320666972737425
:101A5000002066697273740A005A005900580048E1
:101A60006F6D65200042696C696E656172204C651E
:101A700076656C696E6720477269643A0A00486F40
:101A80006D696E67206661696C6564002028445248
:101A90005952554E2900473239204175746F204202
:101AA0006564204C6576656C696E67003F20284C44
:101AB0002C522C462C4229206F7574206F662062B0
:101AC0006F756E64732E0A003F2856296572626F27
:101AD0007365206C6576656C20697320696D706C28
:101AE00061757369626C652028302D34292E0A00D7
:101AF000426164205A2076616C75650A004E6F2041
:101B000062696C696E65617220677269640A00506F
:101B1000726F7465637465642050696E0A002057A3
:101B20003A004520436F6F6C696E672E2E2E00457C
:101B30002048656174696E672E2E2E0020573A008A
:101B400042656420636F6F6C696E672E2E2E0042B3
:101B500065642068656174696E672E2E2E00205AB8
:101B60003A0020593A0020436F756E7420583A00AD
:101B700020453A00205A3A0020593A00583A003A93
:101B8000004361703A0023646566696E65204445D0
:101B90004641554C545F4B64200023646566696E72
:101BA000652044454641554C545F4B6920002364F1
:101BB0006566696E652044454641554C545F4B70DF
:101BC0002000504944204175746F74756E6520661D
:101BD000696E697368656421205075742074686546
:101BE000206C617374204B702C204B6920616E64F3
:101BF000204B6420636F6E7374616E747320667221
:101C00006F6D2062656C6F7720696E746F20436F13
:101C10006E66696775726174696F6E2E680A00502E
:101C20004944204175746F74756E65206661696CF6
:101C30006564212074696D656F75740A00453120F3
:101C4000544845524D414C2052554E415741590040
:101C5000546865726D616C2052756E6177617900B0
:101C600045312048656174696E67206661696C65FD
:101C7000640048656174696E67206661696C6564BB
:101C800000504944204175746F74756E652066611B
:101C9000696C6564212054656D706572617475723C
:101CA0006520746F6F20686967680A00204B643A8A
:101CB0002000204B693A2000204B703A20000A2077
:101CC000436C617373696320504944200A002054B7
:101CD000753A2000204B753A2000206D61783A203B
:101CE00000206D696E3A200020643A20002062696D
:101CF00061733A2000504944204175746F74756EC9
:101D0000652073746172740A0050494420417574EF
:101D10006F74756E65206661696C65642120546519
:101D20006D706572617475726520746F6F2068697B
:101D300067680A00504944204175746F74756E6578
:101D4000206661696C656421204261642065787455
:101D50007275646572206E756D6265720A004F66F9
:101D6000660A0046616465204865696768742000FA
:101D7000426564204C6576656C696E67200046613B
:101D8000696C656420746F20656E61626C652042C9
:101D90006564204C6576656C696E670A00536C65F6
:101DA00065702E2E2E00486F6D652058592066698B
:101DB0007273740A00486F6D652058592066697205
:101DC000737400205A3A200020593A20004265647A
:101DD00020583A20004D65736820706F696E74203A
:101DE00063616E6E6F74206265207265736F6C76CE
:101DF00065640A00436C69636B20746F20726573BD
:101E0000756D652E2E2E004E6F206D6F76652E003F
:101E1000456E642066696C65206C6973740A0042C3
:101E20006567696E2066696C65206C6973740A0069
:101E3000286E6F2066696C65290043757272656E45
:101E4000742066696C653A20005344207072696E94
:101E500074696E67206279746520004E6F74205338
:101E600044207072696E74696E670A0044656C651F
:101E700074696F6E206661696C65642C2046696CBC
:101E8000653A200046696C652064656C657465641C
:101E90003A002569730025696D202569730025695D
:101EA000682025696D2025697300256964202569EE
:101EB000682025696D2025697300256979202569C9
:101EC00064202569682025696D202569730050729A
:101ED000696E742074696D653A20006F666600C78C
:101EE00018C218BB18B418A61844454255473A0002
:101EF0004D3131332053006F6B00456E6465722D98
:101F0000332050726F204F66662E002C20002C204C
:101F100000544845524D414C5F50524F5445435434
:101F2000494F4E004155544F5245504F52545F5304
:101F3000445F53544154555300454D455247454E17
:101F400043595F50415253455200434153455F4C02
:101F5000494748545F4252494748544E45535300FD
:101F6000544F47474C455F4C494748545300534FE3
:101F70004654574152455F504F57455200425549CC
:101F80004C445F50455243454E54004C4556454CD9
:101F9000494E475F44415441005A5F50524F4245B9
:101FA000004155544F4C4556454C005052494E54F3
:101FB0005F4A4F420050524F4752455353004155DC
:101FC000544F5245504F52545F54454D5000564F58
:101FD0004C554D455452494300454550524F4D00D4
:101FE00053455249414C5F584F4E5F584F4646004B
:101FF0004649524D574152455F4E414D453A4D611C
:10200000726C696E206275676669782D312E312E8B
:102010007820284769746875622920534F555243C8
:10202000455F434F44455F55524C3A687474707332
:102030003A2F2F6769746875622E636F6D2F4D613B
:10204000726C696E4669726D776172652F4D61724F
:102050006C696E2050524F544F434F4C5F5645525F
:1020600053494F4E3A312E30204D414348494E4559
:102070005F545950453A456E6465722D3320507255
:102080006F2045585452554445525F434F554E5466
:102090003A3120555549443A636564653261326688
:1020A0002D343161322D343734382D396231322DAF
:1020B0006335356336326633363766660A002F2F4E
:1020C00020004D31343520533C696E6465783E20E4
:1020D0006F7574206F662072616E67652028302DE1
:1020E00031290A00205400205200416363656C6569
:1020F000726174696F6E3A2050005741524E494EDA
:102100004721204C6F77205A204A65726B206D6101
:1021100079206C65616420746F20756E77616E74D0
:102120006564207061757365732E0A00205A002063
:102130005900580020204D61783A2000205A002094
:102140005900580020204D696E3A20004F6E200043
:102150004F666600536F667420656E6473746F70AB
:10216000733A200020466C6F773A200000010F156B
:102170000E12FFFFFFFF16170E13FFFFFFFF0302F4
:102180001A14FFFFFFFFFFFFFF0C04FFFFFF01001A
:102190000EFFFFFF0C190DFF183A20002053657247
:1021A000766F2000206F7574206F662072616E67F5
:1021B000650A00536572766F2000496E76616C691E
:1021C000642065787472756465720A0020643A0050
:1021D00020693A0020703A0043290A0061626C6568
:1021E0006420286D696E2074656D702000436F6CEB
:1021F000642065787472756465732061726520006F
:102200004E6F2063617365206C696768740A004DC6
:1022100065736820706F696E742063616E6E6F7491
:10222000206265207265736F6C7665640A004D34B8
:10223000323120696E636F727265637420706172EF
:10224000616D657465722075736167650A00454547
:1022500050524F4D204F4B0A003F5A206F7574204B
:102260006F662072616E676520282D323020746F92
:10227000203230290A003A200050726F6265205ADD
:10228000204F666673657400416374697665204506
:10229000787472756465723A2000496E76616C6973
:1022A000642065787472756465720A00526573659E
:1022B0006E643A20006F6B0020746F6F206C6F6E3D
:1022C0006720657874727573696F6E2070726576B9
:1022D000656E7465640A0020636F6C6420657874B1
:1022E000727573696F6E2070726576656E74656461
:1022F0000A00627573793A207061757365642066AF
:102300006F7220696E7075740A00627573793A2075
:1023100070617573656420666F7220757365720AEB
:1023200000627573793A2070726F63657373696EBA
:10233000670A004B494C4C45442E20004B494C4CFD
:102340002063617573656420627920746F6F206DFE
:1023500075636820696E6163746976652074696D60
:1023600065202D2063757272656E7420636F6D6DCC
:10237000616E643A2000506C65617365207265730C
:102380006574005052494E5445522048414C5445C2
:1023900044005072696E7465722068616C74656483
:1023A0002E206B696C6C28292063616C6C6564213C
:1023B0000A000000A0410000A04100008040000091
:1023C00000005761726E696E673A20486F6D696EE2
:1023D000672042756D702044697669736F72203C86
:1023E00020310A000202040000A0400000A04000CA
:1023F00000004000006B4300006B4300007A43FF85
:10240000FFFF7C3C3E5E2B3D3F2F5B5D3B2C2A2239
:102410005C004572726F722077726974696E672012
:10242000746F20454550524F4D210A0053746F720E
:10243000652073657474696E677300426564004259
:102440006564004E6F7A7A6C65004E6F7A7A6C65BF
:102450000046616E2073706565640046616E20738E
:10246000706565640054656D706572617475726540
:10247000005654726176206D696E00565472617612
:10248000206D696E00566D696E00566D696E00565E
:102490006D6178204500566D6178204500566D616C
:1024A00078205A00566D6178205A00566D61782068
:1024B0005900566D6178205900566D61782058009A
:1024C000566D61782058004D6F74696F6E00416DD4
:1024D0006178204500416D6178204500416D61784B
:1024E000205A00416D6178205A00416D6178205971
:1024F00000416D6178205900416D6178205800419C
:102500006D6178205800412D74726176656C0041D0
:102510002D74726176656C00412D72657472616311
:102520007400412D72657472616374004163636568
:102530006C00416363656C004D6F74696F6E00568B
:10254000652D6A65726B0056652D6A65726B005663
:102550007A2D6A65726B00567A2D6A65726B005629
:10256000792D6A65726B0056792D6A65726B00561B
:10257000782D6A65726B0056782D6A65726B004D16
:102580006F74696F6E004573746570732F6D6D00A5
:102590004573746570732F6D6D005A737465707335
:1025A0002F6D6D005A73746570732F6D6D005973C4
:1025B000746570732F6D6D005973746570732F6D32
:1025C0006D005873746570732F6D6D00587374656A
:1025D00070732F6D6D004D6F74696F6E005374656D
:1025E00070732F6D6D004A65726B00416363656C9B
:1025F00065726174696F6E0056656C6F636974799A
:102600000050726F6265205A204F666673657400D1
:1026100050726F6265205A204F666673657400437E
:102620006F6E74726F6C0046696C2E204469612E67
:102630000046696C2E204469612E004F6666004F8B
:102640006E20004520696E206D6D3300436F6E74FF
:10265000726F6C0043616E6E6F7420656E7465728C
:10266000207375626469723A2000022E2E000152B6
:10267000656672657368004D61696E000000210037
:10268000240027002A0000002200250028002B003B
:10269000000020002300260029000202020202029C
:1026A00002020404040404040404030303030303F4
:1026B00003030101010101010101010204081020CD
:1026C000408001020408102040800102040810200C
:1026D0004080804020100804020100000001020038
:1026E000090A0000000004030807000000000000C1
:1026F000000000000000000000002020506C616E0F
:102700006E657242756666657242797465733A20C9
:10271000002046726565204D656D6F72793A200024
:10272000436F6D70696C65643A204170722031317D
:1027300020323032300A00207C20417574686F727C
:102740003A2028496E7465727374656C6C61724DC1
:1027500069736669742C20456E646572332050720B
:102760006F20424C546F756368290A00323031384B
:102770002D30372D333100204C6173742055706437
:10278000617465643A20006275676669782D312E40
:10279000312E780A004D61726C696E0020536F66AD
:1027A00074776172652052657365740A0020576101
:1027B000746368646F672052657365740A00204211
:1027C000726F776E206F75742052657365740A009E
:1027D0002045787465726E616C2052657365740A69
:1027E00000506F77657255700A0073746172740AD5
:1027F000006175746F25692E67006572726F7220B3
:1028000077726974696E6720746F2066696C650AF7
:1028100000456E6473746F707320256320256320F8
:10282000256320256300205A3A0020593A00205899
:102830003A00656E6473746F7073206869743A202F
:1028400000446F6E6520736176696E672066696CFF
:10285000652E0A004D3239004D3234004D3233209E
:10286000257300556E6B6E6F776E20636F6D6D61B3
:102870006E643A20220050726F62696E6720666152
:10288000696C65640A0050726F62696E67206661E8
:10289000696C656400205A3A200020593A200042B1
:1028A000656420583A200053442063617264206FAD
:1028B0006B0A006F70656E526F6F74206661696C91
:1028C00065640A00766F6C756D652E696E6974209B
:1028D0006661696C65640A00534420696E697420FE
:1028E0006661696C0A0057726974696E6720746F5B
:1028F0002066696C653A20006F70656E20666169BC
:102900006C65642C2046696C653A20006F70656EBA
:10291000206661696C65642C2046696C653A20000C
:1029200046696C652073656C65637465640A002094
:1029300053697A653A200046696C65206F70656E50
:1029400065643A20002066696C653A2000646F690E
:102950006E67006672657368004E6F772000454EA3
:102960004420535542524F5554494E450A002220A7
:10297000706F73002220706172656E743A2200538A
:102980005542524F5554494E452043414C4C2074BA
:1029900061726765743A22004B494C4C45442E20C5
:1029A00000747279696E6720746F2063616C6C20AB
:1029B0007375622D67636F64652066696C6573204B
:1029C0007769746820746F6F206D616E79206C6513
:1029D00076656C732E204D4158206C6576656C20B1
:1029E00069733A004572726F723A006F70656E20BB
:1029F0006661696C65642C2046696C653A20004309
:102A0000616E6E6F74206F70656E2073756264699D
:102A10007220006563686F3A0000060900FE070136
:102A2000920321207FFF07FF07FF00000006000040
:102A30000107070602008080808080008003020278
:102A4000060105A0A00507070600005050F850F841
:102A500050500507070600002078A07028F02005D8
:102A60000707060000C0C810204098180507070691
:102A700000006090A040A89068020303060104C013
:102A8000408003070706010020408080804020032B
:102A9000070706010080402020204080050505062C
:102AA000000120A870A8200505050600012020F8D7
:102AB00020200203030602FFC0408005010106003A
:102AC00003F8020202060200C0C005050506000167
:102AD0000810204080050707060000708888888855
:102AE000887003070706010040C040404040E005F1
:102AF0000707060000708808708080F80507070641
:102B00000000F81020100808F00507070600001064
:102B1000305090F81010050707060000F880F00804
:102B2000088870050707060000708080F0888870AC
:102B3000050707060000F8081020202020050707D9
:102B400006000070888870888870050707060000F6
:102B500070888878080870020505060200C0C00069
:102B6000C0C00206060602FFC0C000C040800407C5
:102B700007060000102040804020100503030600D7
:102B800002F800F8040707060100804020102040EA
:102B90008005070706000070880810200020050740
:102BA0000706000070880868A8A8700507070600D7
:102BB00000708888F8888888050707060000F08874
:102BC00088F08888F00507070600007088808080FC
:102BD0008870050707060000F08888888888F00557
:102BE0000707060000F88080F08080F805070706D8
:102BF0000000F88080F080808005070706000070E4
:102C00008880B8888870050707060000888888F8DB
:102C10008888880107070602008080808080808085
:102C20000507070600003810101010906005070710
:102C30000600008890A0C0A0908805070706000045
:102C4000808080808080F805070706000088D8A86B
:102C5000888888880507070600008888C8A898889B
:102C6000880507070600007088888888887005072F
:102C700007060000F08888F08080800507070600BE
:102C80000070888888A89068050707060000F0880B
:102C900088F0A090880507070600007880807008FB
:102CA00008F0050707060000F82020202020200556
:102CB0000707060000888888888888700507070647
:102CC000000088888888885020050707060000884B
:102CD00088888888A8500507070600008888502043
:102CE0005088880507070600008888885020202023
:102CF000050707060000F80810204080F8030707C2
:102D0000060100E08080808080E005050506000166
:102D10008040201008030707060100E02020202043
:102D200020E0050303060004205088050101060089
:102D300000F80202020602058040050505060000B3
:102D400070087888780507070600008080B0C8887A
:102D500088F005050506000070808088700507076B
:102D600006000008086898888878050505060000B0
:102D70007088F880700507070600003048E0404082
:102D800040400506060600FF708888780870050731
:102D9000070600008080B0C88888880107070602FF
:102DA00000800080808080800308080601FF2000EA
:102DB00020202020A040040707060000808090A06B
:102DC000C0A090030707060100C04040404040E01B
:102DD000050505060000D0A8A8A8A8050505060059
:102DE00000B0C888888805050506000070888888B6
:102DF000700506060600FFF08888F080800506064C
:102E00000600FF788888780808050505060000B0E8
:102E1000C880808005050506000070807008F004F9
:102E200007070600004040E0404040300505050629
:102E3000000088888898680505050600008888884D
:102E400050200505050600008888A8A8500505053E
:102E500006000088502050880506060600FF888876
:102E600088780870050505060000F8102040F80372
:102E70000707060100204040804040200107070668
:102E80000200808080808080800307070601008028
:102E90004040204040800502020600026890000089
:102EA0000006000000060900FE0000000000010905
:102EB0000008FE000005080806000040F0C88888E9
:102EC000987810050808060000C0F8888888888867
:102ED000F80505050600012030F830200508080631
:102EE00000002070F820202020E00509090600FFDE
:102EF0002070A8A8B8888870200509090600FFE09E
:102F000080C0B0A8283028280509090600FFF8A8C5
:102F10008888888888A8F8050A0A0600FE2050508C
:102F2000505088A8A8887003030306000340A040FF
:102F30006AEC95EA11241FBECFEFD0E4DEBFCDBF0F
:102F400012E0A0E0B1E0E0E8FAEF01E00BBF02C060
:102F500007900D92A833B107D9F723E1A8E3B2E0B7
:102F600001C01D92A93EB207E1F717E1C9E9D7E117
:102F700004C02197FE010E94A4FCC839D107C9F7FB
:102F80000E9451ED0C9433FD0C9400002CEA35ECBA
:102F900047E25EE3609193097091940980919509ED
:102FA000909196090E94E6FA6093880870938908C8
:102FB00080938A0890938B0808952CEA35EC47E2B9
:102FC0005EE36091970970919809809199099091B9
:102FD0009A090E9471F660938C0870938D08809313
:102FE0008E0890938F0808956091130170911401D9
:102FF000072E000C880B990B0E9412F62AE037ED81
:1030000043E25CE30E9471F620917A0830917B08DC
:1030100040917C0850917D080E9471F660930F01E9
:1030200070931001809311019093120108951198EB
:103030000000000087FD52C0419800000000119A76
:103040000000000011980000000086FD53C0419868
:1030500000000000119A000000001198000000001C
:1030600085FD46C0419800000000119A0000000054
:1030700011980000000084FD39C041980000000054
:10308000119A0000000011980000000083FD2CC080
:10309000419800000000119A000000001198000003
:1030A000000082FD1FC0419800000000119A00003E
:1030B000000011980000000081FD12C0419800003E
:1030C0000000119A000000001198000000004198D3
:1030D00000000000119A000000000895419AADCF51
:1030E000419AEDCF419AE0CF419AD3CF419AC6CFD2
:1030F000419AB9CF419AACCF90916F00292F22709D
:1031000091FF05C090916F009D7F90936F0034E018
:10311000839FC0011124FC01EB5AF74F408151817C
:10312000628173818E51974FFC014083518362838A
:10313000738381E080935408222329F080916F00EB
:10314000826080936F000895BC012091E008309167
:10315000E1084091E0085091E1082417350731F467
:1031600081E02617370709F080E008959A01F1CF32
:10317000EF92FF920F931F93E0924C08F0924D084C
:1031800000934E0810934F086093500870935108B5
:10319000809352089FEFFF27621B730B840B30F460
:1031A000809570956195790B890B99279093A70964
:1031B000A6E06A9F00929B09512DEE277A9F500D41
:1031C000E11D8A9FE00D50939C09E0939D09AFE0BB
:1031D0006A9F00929F09512DEE277A9F500DE11DA5
:1031E0008A9FE00D5093A009E093A109AAE06A9F8D
:1031F0000092A309512DEE277A9F500DE11D8A9F61
:10320000E00D5093A409E093A5091F910F91FF9041
:10321000EF9008959F92AF92BF92CF92DF92EF927C
:10322000FF920F931F93CF93DF9300D000D01F9294
:10323000CDB7DEB7EAEAF6E00027BB27462F572FC7
:10324000A82FAA2341F4A52F542FB85FAA2319F45D
:10325000A52F5527B85FA03138F45295A295452F78
:103260004F70507FA42BBC5FA03428F4550FAA1FC9
:10327000550FAA1FBE5FA03818F4550FAA1FB395AB
:10328000550FAA1FEA0FF01F449151E0AA27B8502A
:1032900081F1C8F0B0FF02C0440F551FB1FF04C058
:1032A000440F551F440F551FB2FF06C0529542955B
:1032B000142F1F70407F512BB3FF1BC0A52F542F1D
:1032C00044270C947919B195B0FF02C055954795E4
:1032D000B1FF04C05595479555954795B2FF05C078
:1032E0005295407F4295452B5F70B3FF02C0452F3A
:1032F0005527DD24CC24BB24B2E0649FD018C1083C
:10330000B00AB00B749FC018B108B00B849FB018FE
:10331000B109659FC018B108B00B759FB018B1090D
:10332000859FB0196A9FB018B1097A9FB0194D9D59
:10333000A12C99243327992722275D9DA00C911C4D
:10334000301F901F201FAD9D900C311D901F201F1E
:103350004C9DA00C911C301F901F201F5C9D900C59
:10336000311D901F201FAC9D300D911D201F4B9DC6
:10337000900C311D901F201F5B9D300D911D201F53
:10338000AB9D900D211D4B9F300D911D201F5B9F0C
:10339000900D211DAB9F200DB1E0BB24CC24DD247A
:1033A000639FD018C108B00AB00B739FC018B10852
:1033B000B00B839FB018B109699FC018B108B00B5A
:1033C000799FB018B109899FB019629FB018B109EF
:1033D000729FB019D61AC70AB80A20F0B1E03B0FA5
:1033E000901F201F1124792F632F90E0822F0F90C0
:1033F0000F900F900F900F90DF91CF911F910F9131
:10340000FF90EF90DF90CF90BF90AF909F90089586
:10341000CF92DF92EF92FF928091940B882309F470
:1034200057C0C090900BD090910BE090920BF09011
:10343000930B20E030E0A901C701B6010E940BF612
:10344000882309F445C020E030E040E05FE3C70195
:10345000B6010E9471F69B01AC010E9471F62BED42
:103460003FE049E450E40E9471F69B01AC0160E04A
:1034700070E080E89FE30E94E6FA6B017C01C09255
:103480007A08D0927B08E0927C08F0927D086091E7
:10349000130170911401072E000C880B990B0E94E8
:1034A00012F62AE037ED43E25CE30E9471F6A701D1
:1034B00096010E9471F660930F0170931001809342
:1034C000110190931201FF90EF90DF90CF9008953B
:1034D000C12CD12C80E8E82E8FE3F82ED0CFCF93EB
:1034E000DF938091AF0B811105C08091B00B8823D1
:1034F00009F459C08091910832994FC08E7F809312
:1035000091088091910833994AC08D7F80939108EA
:1035100080919108349945C08B7F80939108C09128
:10352000D308C0FF10C080919C0880FF0CC0809120
:10353000910880FF08C08091B60B81608093B60B24
:1035400080E00E947C18C1FF10C080919C0881FF20
:103550000CC08091910881FF08C08091B60B8260F9
:103560008093B60B81E00E947C18C2FF1CC0809142
:103570009C0882FF18C08091B00B8823A1F0809135
:10358000910882FF10C08091B60B84608093B60BC7
:1035900082E0DF91CF910C947C188160B0CF826083
:1035A000B5CF8460BACFDF91CF9108950C94BEC897
:1035B000CF92DF92EF92FF92CF93C82F0E94B2C8B2
:1035C0006B017C0124EA30E74DE75FE360918D09F0
:1035D00070918E0980918F09909190090E940BF64D
:1035E00087FD18C08AEF90E0A0E0B0E08C0D9D1D33
:1035F000AE1DBF1D8093960B9093970BA093980BD5
:10360000B093990BC0933301CF91FF90EF90DF906F
:10361000CF90089580E090E0DC01E8CF60918909C7
:1036200070918A0980918B0990918C0941E00C94EA
:1036300068989F92AF92BF92CF92DF92EF92FF92E3
:103640000F931F93CF93DF935B01E9014A3009F495
:10365000C4C0453109F067C0DB011296ED91FC91C1
:10366000F280C681D781139A88E290E00197F1F742
:10367000EF2CE29420EFE22230E1932E9F0C48E2FF
:10368000C42ED12C88EF0E941718C6010197F1F7BC
:10369000BFE1BF1508F488C08F2D807780680E9435
:1036A00017188E2D0E941718C6010197F1F780E8B0
:1036B0000E94171880E00E941718C6010197F1F7C1
:1036C0008AEF0E941718C6010197F1F78E01005F7B
:1036D0001F4F8881807F0E94171889918295807F73
:1036E0000E941718C017D107A1F7C6010197F1F77B
:1036F000F394E0E1EE0EF910C5CF1398D5011296C0
:103700000D911C91C8010E94BCCA8111FEC1DF91BC
:10371000CF911F910F91FF90EF90DF90CF90BF90CE
:10372000AF909F900895FB0102811381ECEEE40FAE
:10373000E43308F050C0F0E0E056F44E0C94A4FCE2
:103740002D1D821BEB1B751DEB1BEB1BEB1BEB1BE2
:10375000EB1BEB1BEB1BEB1BEB1BEB1BEB1BEB1B39
:10376000EB1BEB1BEB1BEB1BEB1BEB1BEB1BEB1B29
:10377000EB1BEB1BEB1BEB1BEB1BEB1B6F1DEB1B93
:10378000EB1BEB1BEB1BEB1BEB1BEB1BEB1B401DB2
:10379000EB1BEB1BEB1BEB1BEB1BEB1BEB1BEB1BF9
:1037A000EB1BEB1B921DE71B80EE8F0D8068807F6B
:1037B0000E9417188F2D8295807F0E941718C601CE
:1037C0000197F1F780E80E94171880E874CFD801BC
:1037D00011968C91888381E09ACF0B9A1398399A2D
:1037E0004198099A119A139A88E290E00197F1F7AB
:1037F00088E790E0CEE9DFE0FE013197F1F701972D
:10380000D9F788EF0E94171808E210E0C801019765
:10381000F1F780E20E94171880E00E941718C80193
:103820000197F1F780E00E94171880E80E941718AE
:10383000C8010197F1F780E00E94171880E10E940B
:103840001718C8010197F1F7CE010197F1F7CE01E2
:103850000197F1F7CE010197F1F7CE010197F1F74A
:10386000CE010197F1F7CE010197F1F7CE01019753
:10387000F1F7CE010197F1F7CE010197F1F7CE01F3
:103880000197F1F7CE010197F1F7CE010197F1F71A
:10389000CE010197F1F7CE010197F1F72197F1F7EA
:1038A00080E20E94171880E40E941718C80101974F
:1038B000F1F780E20E94171880E60E941718C801ED
:1038C0000197F1F700E010E0C8E2D0E0812F8077A7
:1038D00080680E941718802F0E941718CE01019748
:1038E000F1F780E80E94171880E00E941718CE01B7
:1038F0000197F1F78AEF0E941718CE010197F1F7AF
:1039000080E2119800000000419800000000119A28
:103910000000000011980000000041980000000025
:10392000119A00000000119800000000419800006A
:103930000000119A0000000011980000000041985A
:1039400000000000119A0000000011980000000023
:10395000419800000000119A00000000119800003A
:103960000000419800000000119A0000000011982A
:1039700000000000419800000000119A00000000C3
:10398000119800000000419800000000119A00000A
:103990000000119800000000419800000000119AFA
:1039A0000000000011980000000041980000000095
:1039B000119A0000000011980000000041980000DA
:1039C0000000119A000000001198000000004198CA
:1039D00000000000119A0000000011980000000093
:1039E000419800000000119A0000000011980000AA
:1039F0000000419800000000119A0000000011989A
:103A000000000000419800000000119A0000000032
:103A1000119800000000419800000000119A000079
:103A20000000FE013197F1F7815009F06ACF88EF6D
:103A30000E941718CE010197F1F71F5F005F103247
:103A400009F044CF80E00E94171880EC0E941718FC
:103A50002197F1F7139881E05ACED80115964C9131
:103A6000159750E0440F551F70E060E016968D9159
:103A70009C910E94CBFCC8010E94D2CA81E047CE33
:103A800089812B81D80112966C91129713964C91D3
:103A9000213009F467C0233009F048C038EF380FEF
:103AA000582F91E0431708F490E041E0531708F0D5
:103AB00040E031E0561708F430E0592F542B3523FD
:103AC00019F4942309F487CEFA8030E0F901EF521B
:103AD000FE4FD08023533E4FF901E08040C0B90132
:103AE000C8010E94A6CA81E012CE1882D80112969F
:103AF0008C911297898315968C91159781508A83A2
:103B000013968C918B8381E002CEF801458150E0C1
:103B1000440F551F70E060E0868197810E94CBFCC6
:103B200081E0F5CDF8018581888355CE481708F4EA
:103B300052CE861708F44FCEFA80E12CD12C2430D7
:103B400070F4C3CFBE01C8010E94A6CA89819881C2
:103B50009D0D98838E0D8983FF0C09F43CCEF7FEF2
:103B6000F6CFF0CF58E0580F382F9BCF3F924F92AF
:103B70005F926F927F928F929F92AF92BF92CF92FD
:103B8000DF92EF92FF920F931F93CF93DF93EC019D
:103B9000162FDCAC5BAC5C0124E0A20EB11CE98DFD
:103BA000FA8DC5010995982EE884F984C7010E9411
:103BB0008ACC082F888599850E948DCC782E882400
:103BC0008A94013011F48FE0882E888599850E94AF
:103BD00080CC082F888599850E947CCCC82E88854A
:103BE00099850E9484CC113670F0009761F0E80E40
:103BF000F91E01E6C116B8F41C8A1F8A188E1D8AA8
:103C00001E8A80E05BC0888599850E9487CC11342C
:103C100030F0009721F0E80EF91E01E4EBCF81E1CE
:103C2000E80EF11CE7CFC01638F3872D90E0F701BE
:103C300024912F3F39F4FFEFEF1AFF0AC016E1F28B
:103C40000F5FF5CF101368C0888599850E948ACCD4
:103C500097012F5F3F4FF701882319F0823009F059
:103C600044C084918F8BF9012491288FF7013396FA
:103C7000E491EC8BF7013496E491ED8BF7013596E6
:103C8000E491EE8BE114F10409F4BBCF88859985AA
:103C90000E948DCC782ECF88388C8D89580E1D2DA2
:103CA00013198E89181B190D032D2C2D412F652DED
:103CB000C5010E9497CC811138C08C899BAD890FBA
:103CC0008BAF81E090E0DF91CF911F910F91FF903A
:103CD000EF90DF90CF90BF90AF909F908F907F90AC
:103CE0006F905F904F903F9008958491982F9F70B0
:103CF00092509E8B82958F708D8BF9012491822F2B
:103D00008F70888F22952F702F8BF7013296E49158
:103D1000E295EF70EC8BB6CF3296E491E821E80F94
:103D2000F92FF11DEE0EFF1E89CFE70CF11C07E005
:103D30000C0D069506950695310E4E01F0E28F0E9C
:103D4000911C602E712C131509F4B7CF452C670117
:103D500012C0F60184916E817F8148A219A31BA233
:103D60008AA394014BE3C5010E94D9CAFFEFCF1A81
:103D7000DF0A28E0420E8C2D8E19801750F3E60CD6
:103D8000F71C1F5FE0CF1F93CF93DF93182FEB013A
:103D9000FE018491219681110AC0C5E8D4E0FE019C
:103DA00084912196882331F00E948985F8CF0E9462
:103DB0008985EECFC0E8D4E0112311F0C6E7D4E046
:103DC000FE0184912196882319F00E948985F8CFFD
:103DD0008AE0DF91CF911F910C948985CF93DF9377
:103DE00080399240A1F0C4EED9E2FE01849121967F
:103DF00081110AC0C3EDD0E0FE0184912196882391
:103E000051F00E948985F8CF0E948985EECF80E02D
:103E1000DF91CF91089581E0FBCF2F923F924F9297
:103E20005F926F927F928F929F92AF92BF92CF924A
:103E3000DF92EF92FF920F931F93CF93DF93CDB753
:103E4000DEB76C970FB6F894DEBF0FBECDBF8C0106
:103E50005B015A834983FC01E95BFF4F208131817B
:103E600042815381298B3A8B4B8B5C8BCA01B90100
:103E70000E9410F66B017C01D5012D913D914D9171
:103E80005C910E9471F60E94CFFA0E945FFB4B0189
:103E90005C01E981FA812081318142815381C7012E
:103EA000B6010E9471F60E94CFFA0E945FFB8986DC
:103EB0009A86AB86BC8629853A854B855C852837F2
:103EC00031054105510540F428E730E040E050E07D
:103ED00029873A874B875C876D837E838F8398879A
:103EE0004D815E816F817885483751056105710587
:103EF00040F468E770E080E090E06D837E838F831C
:103F00009887F801ED5AFF4F40805180628073809E
:103F1000C301B2010E9412F669837A838B839C836A
:103F200069857A858B859C850E9410F66D8B7E8BCA
:103F30008F8B988F20E030E0A90169817A818B8195
:103F40009C810E940BF6882309F4E1C1A701960128
:103F5000C701B6010E9471F64B015C012D893E89B3
:103F60004F89588DCA01B9010E9471F69B01AC01BD
:103F7000C501B4010E9462FA4B015C0129813A81BA
:103F80004B815C81CA01B9010E9463FA9B01AC01BB
:103F9000C501B4010E94E6FA0E94CFFA0E945FFBBD
:103FA0006D877E878F87988B66277727CB0164196B
:103FB0007509860997090E9412F64B015C016D8113
:103FC0007E818F8198850E9410F62B013C0120E0B4
:103FD00030E0A901C501B4010E940BF6882309F461
:103FE0009AC1A3019201C301B2010E9471F6698FC7
:103FF0007A8F8B8F9C8FA7019601C701B6010E9413
:1040000071F69B01AC01698D7A8D8B8D9C8D0E9420
:1040100062FA6B017C01A5019401C501B4010E9403
:1040200063FA9B01AC01C701B6010E94E6FA0E9447
:104030008EFBD80195968D909D90AD90BC909897F1
:10404000750164012D853E854F855889C21AD30AB2
:10405000E40AF50A0E945FFBC61AD70AE80AF90AC1
:10406000F7FE8EC02D893E894F89588DCA01B9014E
:104070000E9471F66B017C0129813A814B815C8140
:10408000CA01B9010E9463FA698B7A8B8B8B9C8B76
:1040900020E030E0A90169817A818B819C810E94B6
:1040A0000BF6882309F43BC1C501B4010E9410F648
:1040B00029893A894B895C890E9471F6A70196018A
:1040C0000E9462FA6D877E878F87988BA301920189
:1040D000C301B2010E9471F69B01AC016D857E8522
:1040E0008F8598890E9463FA2B013C0120E030E023
:1040F00040E850E469817A818B819C810E9471F64D
:104100009B01AC01C301B2010E94E6FA0E94CFFA02
:104110002B013C0120E030E0A9010E94E6FB1816CB
:104120001CF0412C512C3201C301B2010E945FFBF3
:104130006D877E878F87988B86169706A806B906A7
:1041400020F48D869E86AF86B88A6D857E858F85A4
:1041500098890E9410F629893A894B895C890E94C6
:1041600071F6A70196010E9463FA0E9424FC0E9446
:104170005FFB698B7A8B8B8B9C8BC12CD12C76014E
:1041800069897A898B899C8929853A854B855C85E3
:10419000621B730B840B950B0E9410F629813A81E8
:1041A0004B815C810E94E6FA20E034E244EF59E45E
:1041B0000E9471F60E945FFB4B015C0169897A895C
:1041C0008B899C892D813E814F815885621B730BA1
:1041D000840B950B0E9410F629813A814B815C81FA
:1041E0000E94E6FA20E034E244EF59E40E9471F6BE
:1041F0000E945FFB2B013C013FE683169104A10462
:10420000B10408F090C0F401EE0FFF1FEE0FFF1F86
:10421000EC54FB4F85919591A591B4918983292EFA
:104220003A2EBD8B4FE6441651046104710408F028
:1042300083C0F201EE0FFF1FEE0FFF1FEC54FB4F88
:1042400045915591659174919A01CB014D855E859B
:104250006F857889D8019A964D935D936D937C9381
:104260009D974C0D5D1D6E1D7F1DF80146A757A73C
:1042700060AB71ABE55BFF4F49855A856B857C85EB
:104280004083518362837383D6968D929D92AD92C3
:10429000BC92D997F80142AE53AE64AE75AEFE96AD
:1042A00049814083218232825D8953833496208301
:1042B00031838283938369897A898B899C89D29699
:1042C0006D937D938D939C93D5973D962D813E81E3
:1042D0004F81588520833183428353836C960FB678
:1042E000F894DEBF0FBECDBFDF91CF911F910F912C
:1042F000FF90EF90DF90CF90BF90AF909F908F9006
:104300007F906F905F904F903F902F90089560E066
:1043100070E0CB0141CE60E070E0CB0188CE60E080
:1043200070E0CB01F3CEC501B4010E940A19698384
:10433000272E382E9D8B76CFC301B2010E940A1919
:104340009B0184CF809174098230B1F09091351037
:10435000992359F080914610811104C089E390E1BE
:104360000C9455C386E490E1FBCF813041F08DE59C
:1043700094E16FEF0C940DDA8CE794E1FACF80E7CB
:1043800094E1F7CF80915D098630D8F496E0899F5B
:10439000F0011124E75CF64F20913C0130913D0182
:1043A000318320834091440D5091450D6091460D1D
:1043B0007091470D42835383648375838F5F80932D
:1043C0005D0908950F931F9320913C0130913D01A9
:1043D0002817390759F100916B0810916C0820914A
:1043E0006D0830916E080093890910938A09209313
:1043F0008B0930938C0990933D0180933C0140934D
:10440000440D5093450D6093460D7093470D855BA9
:104410009F4221F410929E0B10925D0982E08093DE
:104420004C0181E08093420D1092A30B1F910F91DC
:10443000089521E020939E0B60938D0970938E095F
:1044400080938F099093900940E050E0BA018091E9
:104450009109909192090C94E22160E070E080E271
:1044600091E40C94192260E070E080E89FE30C94E2
:1044700019226DEC7CEC8CEC9DE30C94192240E04D
:1044800050E0BA018BE69BE20E94E221109285097E
:1044900010928609109287091092880981E0809312
:1044A0009E0B089540E050E0BA0185EB9FE20C942A
:1044B000E221E0915D09EE2389F0E150E0935D098E
:1044C00086E0E89FF0011124E75CF64F42815381BA
:1044D00064817581808191810C94E2210C94522237
:1044E0002F923F924F925F926F927F928F929F9204
:1044F000AF92BF92CF92DF92EF92FF920F931F93F2
:10450000CF93DF9300D000D0CDB7DEB70E94EFC5C8
:104510001091400D612E85E0782E710E97E7892E5F
:1045200099249394A12CB12C05E0011B84E0F82E72
:10453000F11A83E0E82EE11A82E0D82ED11A24EF96
:10454000222E33243394412C512C81E0C82EC11AE1
:1045500011113EC08091430D8823B9F080914C0128
:10456000882361F0662D619581E09091430D911152
:1045700080E024E046EC54E10E9458D11F5F7112A4
:10458000E7CF86E08093410D0CC08091A40B882377
:1045900029F31092A40B0E9459228091420D882386
:1045A000E9F20F900F900F900F90DF91CF911F9134
:1045B0000F91FF90EF90DF90CF90BF90AF909F90C2
:1045C0008F907F906F905F904F903F902F900895C5
:1045D000113041F58091430D813079F080914C018B
:1045E000882361F281E09091430D913009F080E0E1
:1045F00020E24BEB54E16C2DBFCF8091A40B8823BC
:1046000069F31092A40B29823A824B825C82BE012C
:104610006F5F7F4F80EA0E94BF818091420D8823A7
:10462000E9F2BFCF123009F080C08091430D823093
:1046300081F080914C01882309F4A0CF81E0909112
:10464000430D923009F080E020E24FE954E16D2DF6
:1046500093CF8091A40B882361F31092A40B8982DD
:104660009A82AB82BC82BE016F5F7F4F88E70E9457
:10467000BF818091420D8823E1F293CF8091430D59
:10468000833081F080914C01882309F477CF81E059
:104690009091430D933009F080E020E243E954E12A
:1046A0006E2D6ACF8091A40B882361F31092A40B26
:1046B0000E94F9818091420D882321F372CF80916D
:1046C000430D843081F080914C01882309F456CF4A
:1046D00081E09091430D943009F080E020E249E8B8
:1046E00054E16F2D49CF8091A40B882361F3109280
:1046F000A40B0E94DE818091420D882321F351CFCB
:104700008091A40B8823E9F01092A40B89829A82ED
:10471000AB82BC82BE016F5F7F4F8CE30E94BF8182
:104720008091420D882369F03CCF133009F4A6CF65
:10473000143029F2153009F021CF8091430D8530D6
:10474000F9F280914C01882309F418CF81E090910F
:10475000430D953009F080E020E24EEA54E1602FED
:104760000BCFCF92DF92EF92FF920F931F93CF93D5
:10477000DF93182F70939209609391090E94EFC5FF
:10478000C091400D85E0D82EDC0E81E004E00C1BCA
:1047900093E0F92EFC1A92E0E92EEC1AC82ECC1AFE
:1047A000DC2FD195113009F457C048F1123009F4CB
:1047B0007CC0C111A1C08823D9F08091430D181687
:1047C000BCF04091440D5091450D6091460D7091A3
:1047D000470D4F5F5F4F6F4F7F4F4093440D509396
:1047E000450D6093460D7093470D8F5F8093430D89
:1047F00080914C01882341F163E477E152C0C111FB
:104800007BC08823D9F08091430D1816BCF04091ED
:10481000440D5091450D6091460D7091470D4F5FCD
:104820005F4F6F4F7F4F4093440D5093450D609302
:10483000460D7093470D8F5F8093430D80914C011F
:104840006AE577E181112DC080E0CF5FDC12AACF4D
:1048500085E08093410D74C0C1114EC08823D9F00A
:104860008091430D1816BCF04091440D5091450DB8
:104870006091460D7091470D4F5F5F4F6F4F7F4FB7
:104880004093440D5093450D6093460D7093470D32
:104890008F5F8093430D80914C0163E577E188231E
:1048A00099F28D2F0E94EADECFCFC11125C0882357
:1048B000D9F08091430D1816BCF04091440D5091F1
:1048C000450D6091460D7091470D4F5F5F4F6F4FE3
:1048D0007F4F4093440D5093450D6093460D709368
:1048E000470D8F5F8093430D80914C016CE477E11D
:1048F000882309F4A9CFD5CFC13059F58091430D54
:10490000813091F080914C01882309F49DCF81E0A2
:104910009091430D913009F080E024E049E357E1A4
:104920006C2D0E9458D190CF8091A40B882351F315
:104930001092A40B0E9459228091420D882311F3FA
:10494000DF91CF911F910F91FF90EF90DF90CF906B
:104950000895C23009F055C08091430D823081F036
:1049600080914C01882309F46FCF81E09091430D31
:10497000923009F080E023E04FE257E16E2DD1CF75
:104980008091A40B882361F31092A40B8DE292E234
:104990000E944BDF8091420D882311F3D1CF80918B
:1049A000430D833081F080914C01882309F44CCF72
:1049B00081E09091430D933009F080E023E046E2DE
:1049C00057E16F2DAECF8091A40B882361F3109235
:1049D000A40B83E392E20E944BDF8091420D882377
:1049E00011F3AECF8091A40B8823A1F01092A40BF9
:1049F00089E392E20E944BDF8091420D882351F0BF
:104A00009FCFC33061F2C43009F01ECF8091430DB7
:104A1000843041F380914C01882309F415CF81E063
:104A20009091430D943009F080E023E04BE157E191
:104A3000602F77CF66E67BE280E00C94B12361E6DD
:104A40007BE281E00C94B1236CE57BE282E00C9484
:104A5000B12360E07AE283E00C94B123EF92FF92FD
:104A60000F931F93CF93DF930E94EFC5C091400D2A
:104A700085E0F82EFC0ED3E0DC1B12E01C1B01E0ED
:104A80000C1BEC2EE194C1112DC08091430D8823A5
:104A9000B1F080914C01882359F081E09091430D51
:104AA000911180E024E04BEF55E16E2D0E9458D12A
:104AB000CF5FFC12E8CF84E08093410D0CC0809161
:104AC000A40B882331F31092A40B0E9459228091E9
:104AD000420D8823F1F2DF91CF911F910F91FF904A
:104AE000EF900895C13061F58091430D813079F0E8
:104AF00080914C018823E1F281E09091430D913047
:104B000009F080E020E24FEE55E1602FCFCF809199
:104B1000A40B882369F31092A40B4091380B509199
:104B2000390B6091300B7091310B8091340B909167
:104B3000350B0E9494D98091420D8823C9F2CBCFC6
:104B4000C23009F042C08091430D823081F08091E3
:104B50004C01882309F4ACCF81E09091430D923051
:104B600009F080E020E24FEC55E1612F9FCF80916A
:104B7000A40B882361F31092A40B4091380B509141
:104B8000390B6FEF7FEF8091340B9091350B0E94C2
:104B900094D98091420D8823D1F29DCF8091A40BAE
:104BA0008823D1F01092A40B4091380B5091390B0F
:104BB0006091300B7091310B90E080E00E9494D9AD
:104BC0008091420D882341F086CFC33009F070CF29
:104BD0008091430D833011F380914C01882309F4B7
:104BE00067CF81E09091430D933009F080E020E29F
:104BF0004FED55E16D2F5ACFEF92FF920F931F9318
:104C0000CF93DF930E94EFC5C091400D85E0F82E51
:104C1000FC0ED3E0DC1B12E01C1B01E00C1BEC2E95
:104C2000E194C1112DC08091430D8823B1F0809192
:104C30004C01882359F081E09091430D911180E05F
:104C400024E04FE256E16E2D0E9458D1CF5FFC1256
:104C5000E8CF84E08093410D0CC08091A40B8823A1
:104C600031F31092A40B0E9459228091420D8823A7
:104C7000F1F2DF91CF911F910F91FF90EF90089586
:104C8000C13061F58091430D813079F080914C0104
:104C90008823E1F281E09091430D913009F080E0AA
:104CA00020E243E256E1602FCFCF8091A40B88230E
:104CB00069F31092A40B40913A0B50913B0B609119
:104CC000320B7091330B8091360B9091370B0E9411
:104CD00094D98091420D8823C9F2CBCFC23009F01C
:104CE00042C08091430D823081F080914C01882335
:104CF00009F4ACCF81E09091430D923009F080E04F
:104D000020E243E056E1612F9FCF8091A40B8823DE
:104D100061F31092A40B40913A0B50913B0B6FEF53
:104D20007FEF8091360B9091370B0E9494D9809140
:104D3000420D8823D1F29DCF8091A40B8823D1F01E
:104D40001092A40B40913A0B50913B0B6091320BA7
:104D50007091330B90E080E00E9494D98091420DD5
:104D6000882341F086CFC33009F070CF8091430D86
:104D7000833011F380914C01882309F467CF81E0DF
:104D80009091430D933009F080E020E243E156E139
:104D90006D2F5ACF2F923F924F925F926F927F92D8
:104DA0008F929F92AF92BF92CF92DF92EF92FF923B
:104DB0000F931F93CF93DF9300D0CDB7DEB70E9440
:104DC000EFC58091400D8A83582E8B5F898387E0E1
:104DD000B82EB51822E7822E25E1922E86E0A82E65
:104DE000A51885E0782E751834E0432E342C35183C
:104DF00082E0682E65182224239425189A81911147
:104E000037C08091430D882391F080914C01882315
:104E100009F495C0652D619581E09091430D911144
:104E200080E024E04AEC55E10E9458D188C080918E
:104E3000A40B882351F31092A40B0E945922809155
:104E4000420D882311F30F900F90DF91CF911F91A6
:104E50000F91FF90EF90DF90CF90BF90AF909F9019
:104E60008F907F906F905F904F903F902F9008951C
:104E70008A818130C1F58091430D8130E9F08091C4
:104E80004C01882309F45BC083E08F9387EE8F93F6
:104E90001F928AE08F9385E191E09F938F938EEB31
:104EA00095E19F938F932F9281E09091430D9130E4
:104EB00009F423C180E021C18091A40B8823F9F279
:104EC0001092A40B10E000E027EE33E04AE050E03F
:104ED00065E171E084EC95E10E9448C68091420D45
:104EE000882369F2B0CF9A81923009F074C1809121
:104EF000430D823071F180914C01882301F18EE0E5
:104F00009BE19F938F931F9284E68F931F921F9232
:104F100089E899E09F938F9386EA95E19F938F9319
:104F20006F9281E09091430D923009F080E08F9371
:104F30000E94CBCF0FB6F894DEBF0FBECDBF9A81D3
:104F40009F5F9A838981891359CF88E08093410DAF
:104F50007ACF8091A40B882371F21092A40B81E088
:104F60008093480D10929F0B1092A00B1092A10BF2
:104F70001092A20B8EE0C82E8BE1D82EE12CF12CE2
:104F800008EC12E420E030E0A90169E879E082EB66
:104F900095E10E94A9C68091420D882309F4ABCF08
:104FA00052CF8091430D833001F180914C018823D1
:104FB00031F286ED9AE19F938F9381E08F934F9228
:104FC0001F921F928CE99FE09F938F9388E995E150
:104FD0009F938F9383E085198F9381E09091430D88
:104FE000933009F446C080E044C08091A40B88232C
:104FF000E1F21092A40B91E09093480D10929F0B58
:105000001092A00B1092A10B1092A20B06ED1AE1C8
:1050100024E031E050E040E06CE97FE08FE995E189
:105020000E9448C68091420D882309F4BECF0BCF61
:105030008091430D843009F180914C01882309F45B
:105040007ECF82ED9EE29F938F931F928EE68F9389
:105050001F921F928CE39DE09F938F9380E995E1CF
:105060009F938F933F9281E09091430D943009F08C
:10507000BACF8F930E94B4CF5DCF8091A40B8823C9
:10508000D9F21092A40B91E09093480D10929F0BCF
:105090001092A00B1092A10B1092A20B02ED1EE237
:1050A0002EE630E050E040E06CE37DE084E995E1FD
:1050B0000E9448C68091420D882309F4BDCFC3CE1B
:1050C0008091430D8530E9F080914C01882309F4EB
:1050D00036CF1F928FEF8F931F921F928EE39DE02A
:1050E0009F938F938CE795E19F938F937F9281E0BD
:1050F0009091430D953009F0DDCE8F930E94B4CF8F
:1051000019CF8091A40B8823F9F21092A40B91E09F
:105110009093480D10929F0B1092A00B1092A10B30
:105120001092A20B10E000E02FEF30E050E040E0E2
:105130006EE37DE086E895E10E9448C68091420DCD
:10514000882311F280CE8091430D8630F1F080915A
:105150004C01882309F4F3CE84EF97E19F938F935A
:1051600083E08F9387EE8F931F928AE08F9383E182
:1051700091E09F938F939F928F92AF9281E0909155
:10518000430D963009F02FCF74CF8091A40B882364
:10519000F1F21092A40B04EF17E127EE33E04AE09E
:1051A00050E063E171E087E795E10E9448C6809195
:1051B000420D882361F247CE8091A40B8823F9F039
:1051C0001092A40B8FE392E20E944BDF8091420D7C
:1051D0008823A9F038CE9A81933009F4E2CE943036
:1051E00009F426CF953009F46BCF963009F4ABCF94
:1051F000973009F0A4CE8091430D8730E9F2809179
:105200004C01882309F49BCE81E09091430D9730A7
:1052100009F080E023E047E655E16B2D05CE9CE0E8
:10522000899F802D112491E0980F9093510D2CE0CF
:10523000280F2093520D4091DC0F30E02E5F3F4F3E
:105240004217130609F0A4F42091DE0F921780F4A0
:10525000662341F08E5F0E94B9CC8091520D8E5F23
:105260000E94B9CC8091520D1092DF0F8093E00F15
:105270000895CF93DF931F92CDB7DEB78091E10FF2
:10528000811105C081E08093E10F0E943ECB6091C7
:10529000AA0F7091AB0F19829E012F5F3F4F4FE015
:1052A00088EA9FE00E94D9CA0F90DF91CF910895BC
:1052B0009FEF980F993020F40E946ED981E00895F5
:1052C0000E94A3C2FBCF9FEF980F993010F40C946B
:1052D0006ED90C94A3C2CF93DF93EC01FE018491AD
:1052E000882321F00E9463292196F8CFDF91CF9186
:1052F0000895CF93DF93EC018991882319F00E94E0
:105300006329FACFDF91CF910895AF92BF92CF92E8
:10531000DF92EF92FF920F931F93CF93DF935C0185
:105320007B010E94DCDEC82FC7010E9430DF04E150
:1053300010E0081B1109DD24D394C017110619F0E1
:1053400014F082E0D82E8091A90F90E06D2D70E0CE
:105350006F5F7F4F0E9490FCC62EC6E0C60F809103
:10536000DC0FC81788F12091DE0F4C2F4B50550BE6
:10537000241715064CF11092DF0FC093E00FC50102
:105380000E94E2C2D1E0E114F10499F08AE30E94A4
:10539000A3C252E0D5121AC0CC0D8091DC0FC81701
:1053A00040F02091DE0F4C2F4B50550B2417150663
:1053B0007CF4DF91CF911F910F91FF90EF90DF90E0
:1053C000CF90BF90AF900895D0E0DDCFDD2389F37B
:1053D000802F880F800F880F8093DF0FC093E00F1E
:1053E00080E20E94A3C2C701DF91CF911F910F916C
:1053F000FF90EF90DF90CF90BF90AF900C94792901
:105400008091A40B1092A40B882321F010929E0B84
:105410000C9459226091440D7091450D8091460D78
:105420009091470D611571058105910561F10E940B
:1054300012F620918D0930918E0940918F0950917B
:1054400090090E9471F62091690D30916A0D40918A
:105450006B0D50916C0D0E9463FA6093690D70930F
:105460006A0D80936B0D90936C0D83E00E94D81AA7
:1054700081E080934C011092440D1092450D1092E2
:10548000460D1092470D80914C01882349F089E622
:105490009DE00E948ACEBC0182E197E10C948529AF
:1054A00008952F923F924F925F926F927F928F92C8
:1054B0009F92AF92BF92CF92DF92EF92FF920F93A3
:1054C0001F93CF93DF93CDB7DEB729970FB6F8942C
:1054D000DEBF0FBECDBF1C016D838091A40B109267
:1054E000A40B8823E9F010929E0B0E945922299662
:1054F0000FB6F894DEBF0FBECDBFDF91CF911F91E5
:105500000F91FF90EF90DF90CF90BF90AF909F9062
:105510008F907F906F905F904F903F902F90089565
:105520008091440D9091450DA091460DB091470D8D
:105530008E839F83A887B987892B8A2B8B2B09F4AD
:1055400055C0AD8194E0A99F80011124F801E35A70
:10555000F24F4080518062807380809117018111E9
:105560007AC020E030E04AE754E4C301B2010E946F
:1055700062FA4B015C0120E030E04AE754E4C301E9
:10558000B2010E9463FA6B017C016E817F81888584
:1055900099850E9412F620918D0930918E094091D3
:1055A0008F09509190090E9471F6A30192010E9407
:1055B00063FA2B013C018E819F81A885B985B7FFD5
:1055C00065C0A5019401C301B2010E940BF687FDDD
:1055D00055C0F801E35AF24F4082518262827382D1
:1055E0008D810E94D81A81E080934C011092440D65
:1055F0001092450D1092460D1092470D80914C016E
:10560000882309F474CFAD8194E0A99FF00111249F
:10561000E35AF24F80819181A281B38189839A8379
:10562000AB83BC832DEC3CEC4CEC5DE360918D09CD
:1056300070918E0980918F09909190090E94E6FBEC
:1056400087FD35C0CE0101960E948ACEBC01C10102
:105650000E9485294CCFBD81C12CD12C9AE6E92E20
:1056600093E4F92EB23031F4C12CD12C8AE7E82E24
:1056700083E4F82E812C912C540187CFF801E35A52
:10568000F24F80829182A282B382AACFA7019601B3
:10569000C301B2010E94E6FB18160CF09ACFF80184
:1056A000E35AF24FC082D182E282F38299CFCE01D7
:1056B00001960E9499C4CACF62E08BE097E10C94F6
:1056C000512A61E084E097E10C94512A60E08DEF6B
:1056D00096E10C94512ACF93DF9300D000D0CDB740
:1056E000DEB78091A40B1092A40B882359F010927E
:1056F0009E0B0E9459220F900F900F900F90DF91F8
:10570000CF9108954091440D5091450D6091460D03
:105710007091470D4115510561057105B9F12AE0F8
:10572000249FC001259F900D11241092440D1092CA
:10573000450D1092460D1092470D21E020934C012B
:105740002091580D22FF0AC02091780830917908E5
:10575000280F391F3093790820937808092E000C00
:10576000AA0BBB0B4091850950918609609187096E
:1057700070918809840F951FA61FB71F8093850914
:1057800090938609A0938709B093880980914C0172
:10579000882309F4B0CF60918509709186098091C2
:1057A0008709909188090E9412F620917D09309115
:1057B0007E0940917F09509180090E9471F66983AA
:1057C0007A838B839C83CE0101960E9499C4BC018D
:1057D0008CE595E10E9485298ECFCF92DF92EF92E2
:1057E000FF920F93CF93DF93982F862F6A01790151
:1057F000692F0E940F299091DC0F8091520D89171B
:1058000008F445C09091DE0F8091510D981708F46F
:105810003EC0C701002381F00E94DCDEC82FD4E126
:10582000D81BF6018491882351F00E945829D81B77
:10583000FFEFCF1ADF0AF5CF0E9430DFEFCF8AE308
:105840000E94A3C2D15010F080E2FACF8091520D95
:105850009C2F990F990FC91BCC0FC058C093DF0F15
:105860008093E00FC701002349F0DF91CF910F91A2
:10587000FF90EF90DF90CF900C946B29DF91CF9148
:105880000F91FF90EF90DF90CF900C947929DF91EA
:10589000CF910F91FF90EF90DF90CF9008957F927E
:1058A0008F929F92AF92BF92CF92DF92EF92FF9230
:1058B0000F931F93CF93DF930E94EFC5C091400DCC
:1058C0009C2E85E0A82EAC0E93E0B92E81E0F82E38
:1058D000FC1A8C2E819424E7C22E27E1D22E12E0EE
:1058E0001C1B84E0E82EEC1A7B2C7C1AC1114DC0E5
:1058F0008091430D882379F180914C01882359F0E0
:1059000081E09091430D911180E024E043EA57E15A
:10591000682D0E9458D1809183088770873009F0E4
:10592000C1C0C23009F072C08091430D823009F4C9
:105930005CC080914C01882361F081E09091430D1F
:10594000923009F080E023E046E857E1612F0E94A1
:1059500058D1D5E0B3C08091A40B882369F210928E
:10596000A40B0E9459228091420D882329F2DF91D5
:10597000CF911F910F91FF90EF90DF90CF90BF904C
:10598000AF909F908F907F900895C13021F69091B5
:10599000430D9130C1F080914C01882309F4BBCFB5
:1059A0008091170121E937E1811102C02DE837E12B
:1059B00081E0913009F080E001E045E957E16F2D89
:1059C0000E94ED2BA8CF8091A40B882321F3109285
:1059D000A40B809117018C2780931701B0924C0182
:1059E0008091420D8823B9F2C2CF8091A40B882305
:1059F00009F49FCF1092A40B8AE195E20E944BDF3D
:105A00008091420D882309F494CFB1CFC33019F5AA
:105A10008091430D833081F080914C01882309F4FB
:105A200098CF81E09091430D933009F080E023E01E
:105A30004FE757E1672D8BCF8091A40B882361F34B
:105A40001092A40B8FE195E20E944BDF8091420DF2
:105A5000882311F38CCFD5E0C43009F054C0809175
:105A6000430D843081F080914C01882309F471CF7B
:105A700081E09091430D943009F080E023E048E705
:105A800057E16E2D64CF8091A40B882361F31092AF
:105A9000A40B84E295E20E944BDF8091420D8823A3
:105AA00011F365CFD3E0C23071F58091430D8230A0
:105AB00061F080914C01811119C0D3E0CF5FAC122D
:105AC00015CFDF5FD093410D52CF8091A40B882377
:105AD00081F31092A40BD092540DC092530D0E94EA
