:100000000C94B8190C94E2190C94E2190C94E219AE
:100010000C94E2190C94E2190C94E2190C94E21974
:100020000C94E2190C94E2190C94E2190C94E21964
:100030000C94E2190C944D380C94E2190C94E219CA
:100040000C94E2190C948A290C94D2BC0C94E219F9
:100050000C94CBAC0C94E2190C94E2190C94E219B8
:100060000C94E2190C94E2190C94E2190C94E21924
:100070000C94E2190C94E2190C94E2190C94E21914
:100080000C9462390C94E2190C94E2194E414E49D9
:100090004E495459494E46CDCCCC3D0AD7233C1746
:1000A000B7D13877CC2B329595E6241FB14F0A0093
:1000B0000020410000C84200401C4620BCBE4CCA83
:1000C0001B0E5AAEC59D74454550524F4D2064617C
:1000D000746173697A65206572726F722E0A0029E5
:1000E0000A002062797465733B20637263200053B9
:1000F000657474696E67732053746F726564202829
:1001000000290A002062797465733B2063726320C2
:10011000002073746F7265642073657474696E6710
:1001200073207265747269657665642028002028E2
:1001300063616C63756C6174656429210A00202118
:100140003D2000454550524F4D20435243206D699C
:10015000736D61746368202D202873746F726564F9
:100160002920002053697A653A2000496E64657839
:100170003A2000204D61726C696E3D563536290A71
:100180000028454550524F4D3D00454550524F4D7A
:100190002076657273696F6E206D69736D6174632B
:1001A00068200048617264636F646564204465661A
:1001B00061756C742053657474696E6773204C6F3D
:1001C000616465640A00F4010000F4010000640049
:1001D00000008813000000009643000096430000D2
:1001E000A0400000C8410000A0420000A042000062
:1001F000C8430000BA423A0A0020286D6D29002049
:10020000204D383531205A005A2D50726F626520CA
:100210004F66667365740020440020490020204D1D
:100220003330312050005049442073657474696E36
:1002300067733A0A00204600204200204800202030
:100240004D3134352053004D6174657269616C2005
:1002500068656174757020706172616D6574657236
:10026000733A0A00205A00204A00202047323920E1
:1002700057204900205A0020204D343230205300AE
:100280004175746F20426564204C6576656C696EBB
:10029000673A0A00204500205A00205900205800E3
:1002A00020540020530020204D32303520510020B2
:1002B000453C6D61785F655F6A65726B3E002058F2
:1002C0003C6D61785F785F6A65726B3E20593C6D6A
:1002D00061785F795F6A65726B3E205A3C6D617828
:1002E0005F7A5F6A65726B3E00416476616E63653A
:1002F000643A20513C6D696E5F7365676D656E741D
:100300005F74696D655F75733E20533C6D696E5F08
:1003100066656564726174653E20543C6D696E5F0C
:1003200074726176656C5F66656564726174653E62
:100330000020540020520020204D32303420500044
:10034000416363656C65726174696F6E2028756EB8
:100350006974732F7332293A20503C7072696E743D
:100360005F616363656C3E20523C726574726163C9
:10037000745F616363656C3E20543C7472617665A2
:100380006C5F616363656C3E0A00204500205A0083
:1003900020590020204D3230312058004D617869BD
:1003A0006D756D20416363656C65726174696F6E14
:1003B0002028756E6974732F7332293A0A0020451C
:1003C00000205A0020590020204D323033205800A0
:1003D0004D6178696D756D206665656472617465DF
:1003E000732028756E6974732F73293A0A002045AB
:1003F00000205A0020590020204D39322058005347
:10040000746570732070657220756E69743A0A00A5
:1004100020204D3230302044300A0020204D323030
:10042000302044002044697361626C65640A0046B0
:10043000696C616D656E742073657474696E677341
:100440003A0020204D3134392043203B20556E693D
:10045000747320696E2043656C736975730A00209C
:1004600020473231202020203B0054524947474545
:10047000524544006F70656E003A20007A5F6D69E6
:100480006E00795F6D696E00785F6D696E00526510
:10049000706F7274696E6720656E6473746F70201C
:1004A0007374617475730A0000000001000000019C
:1004B00000008000555555000000400033333300E4
:1004C000AAAA2A004992240000002000C7711C003B
:1004D00099991900D1451700555515003BB11300E6
:1004E0002449120011111100000010000F0F0F001D
:1004F000E3380E0043790D00CCCC0C00C3300C0067
:10050000E8A20B0064210B00AAAA0A00703D0A00B1
:100510009DD80900427B090092240900DCD3080021
:10052000888808001042080000000800F0C1070099
:100530008787070075500700711C07003EEB060017
:10054000A1BC06006990060066660600703E0600C3
:100550006118060017F4050074D105005BB00500B2
:10056000B290050062720500555505007839050006
:10057000B81E0500050505004EEC040087D40400F4
:10058000A1BD040090A7040049920400C17D0400AD
:10059000EE690400C7560400444404005C320400C1
:1005A0000821040041100400000004003FF0030093
:1005B000F8E0030026D20300C3C30300CCB5030058
:1005C0003AA803000A9B0300388E0300C081030091
:1005D0009F750300D0690300505E03001D530300A4
:1005E00034480300913D0300333303001629030010
:1005F000381F030097150300300C030003030300AA
:100600000BFA020049F10200BAE802005CE00200C5
:100610002DD802002DD0020059C80200B0C002003F
:1006200031B90200DAB10200AAAA0200A0A30200B6
:10063000BC9C0200FA9502005C8F0200DF88020079
:1006400082820200457C02002776020027700200A9
:10065000436A02007C640200D05E02003F5902003F
:10066000C853020020746F6F206C6F6E672065782E
:1006700074727573696F6E2070726576656E7465DD
:10068000640A0020636F6C64206578747275736906
:100690006F6E2070726576656E7465640A00FFFD8A
:1006A000FCFAF8F6F4F2F0EEECEAE9E7E5E3E1E073
:1006B000DEDCDAD9D7D5D4D2D0CFCDCBCAC8C7C526
:1006C000C3C2C0BFBDBCBAB9B7B6B4B3B2B0AFADA8
:1006D000ACAAA9A8A6A5A4A2A1A09E9D9C9A9998FF
:1006E0009795949392908F8E8D8B8A898887868434
:1006F000838281807F7E7D7B7A797877767574734B
:100700007271706F6E6D6C6B6A6968676665646341
:100710006261605F5E5D5C5B5A595858575655542C
:1007200053525150504F4E4D4C4B4A4A4948474600
:1007300046454443424241403F3E3E3D3C3B3B3ABE
:1007400039383837363535343332323130302F2E70
:100750002E2D2C2B2B2A2929282727262525242313
:100760002322212120201F1E1E1D1C1C1B1B1A19A9
:100770001918181716161515141313121211111033
:100780000F0F0E0E0D0D0C0C0B0A0A0909080807B5
:10079000070606050504040303020201000024F411
:1007A000D43050C38E20C2A24017828B7011127AAF
:1007B000910D816CD90AA861E108C758660761519B
:1007C00043061E4B5D05C145A7041A411104093DAE
:1007D0009803713931034036DB0265339102D4301E
:1007E0005402802E1D02632CEE01752AC501B0282B
:1007F000A001102781018F2564012B244B01E022E9
:100800003401AC211F018D200D01801FFC00841ECE
:10081000ED00971DDF00B81CD200E61BC600201BB0
:10082000BC00641AB200B219A8000A19A0006A1824
:100830009900D117910040178B00B516840031162E
:100840007E00B31579003A157300C7146F00581471
:100850006A00EE1366008813630025135E00C7125A
:100860005B006C12570015125400C1115100701139
:100870004F0021114B00D61049008D104700461043
:10088000440002104200C00F4000800F3E00420FA3
:100890003C00060F3B00CB0E3800930E37005C0E79
:1008A0003500270E3400F30D3200C10D3100900DDC
:1008B0003000600D2E00320D2D00050D2C00D90CDE
:1008C0002B00AE0C2900850C29005C0C2700350C90
:1008D00027000E0C2600E80B2400C40B2400A00BFC
:1008E00023007D0B23005A0B2100390B2100180B2C
:1008F0002000F80A1F00D90A1E00BB0A1E009D0A2C
:100900001D00800A1D00630A1C00470A1B002C0AF8
:100910001B00110A1A00F7091A00DD091900C409A1
:100920001900AB091900920917007B091800630927
:1009300017004C09160036091600200916000A098E
:100940001500F5081500E0081400CC081400B808DC
:100950001400A4081400900813007D0812006B080E
:10096000130058081200460812003408110023082A
:1009700011001208110001081100F0071000E00733
:100980001000D0071000C0071000B0070F00A1072B
:10099000100091070E0083070F0074070F00650712
:1009A0000E0057070E0049070E003B070D002E07EB
:1009B0000E0020070D0013070D0006070D00F906B5
:1009C0000C00ED060D00E0060C00D4060C00C80675
:1009D0000C00BC060C00B0060C00A4060B00990627
:1009E0000C008D060B0082060B0077060B006C06D0
:1009F0000B0061060A0057060B004C060A0042066F
:100A00000A0038060A002E060A0024060A001A0602
:100A10000A001006090007060A00FD050900F40592
:100A20000900EB050900E2050900D9050900D00518
:100A30000900C7050900BE050900B5050800AD0598
:100A40000800A50509009C050800940508008C0510
:100A50000800840508007C050800740508006C0582
:100A60000700650508005D050700560508004E05EE
:100A70000700470507004005080038050700310555
:100A800007002A050700230507001C0506001605B8
:100A900007000F0507000805060002050700FB0414
:100AA0000600F5040700EE040600E8040600E20470
:100AB0000700DB040600D5040600CF040600C904C5
:100AC0000600C3040600BD040600B7040600B10416
:100AD0000500AC040600A6040600A00405009B0463
:100AE000060095040500900406008A0405008504AC
:100AF0000500800406007A040500750405007004F2
:100B000005006B04050066040500610405005C0433
:100B1000050057040500520405004D040500480473
:100B20000500430405003E0404003A0405003504B2
:100B30000500300404002C040500270404002304ED
:100B400005001E0404001A04040016040500110424
:100B500004000D040400090405000404040000045A
:100B60000400FC030400F8030400F4030400F00391
:100B70000400EC030400E8030400E4030400E003C1
:100B80000400DC030400D8030400D4030400D003F1
:100B90000400CC030400C8030300C503030024F4CD
:100BA00004D9201BC40C5C0E9804C4095F026507BD
:100BB0007101F405F900FB04B30048048700C10388
:100BC00069005803550003034500BE023A00840241
:100BD000310053022A002902250004022000E4010A
:100BE0001C00C8011900AF0117009801140084010E
:100BF0001300710110006101100051010E0043014A
:100C00000D0036010B002B010B0020010B0015011C
:100C100009000C01090003010800FB000800F300B3
:100C20000800EB000700E4000600DE000600D80024
:100C30000600D2000600CC000500C7000500C20077
:100C40000500BD000400B9000400B5000400B100B7
:100C50000400AD000400A9000400A5000300A200E8
:100C600003009F0004009B00030098000300950010
:100C7000020093000300900003008D0002008B002F
:100C80000300880002008600020084000300810047
:100C900002007F0002007D0002007B00020079005C
:100CA000020077000100760002007400020072006A
:100CB0000100710002006F0002006D0001006C0075
:100CC00002006A000100690002006700010066007E
:100CD0000100650001006400020062000100610083
:100CE0000100600001005F0002005D0001005C0087
:100CF00001005B0001005A0001005900010058008A
:100D00000100570001005600010055000100540089
:100D10000100530000005300010052000100510087
:100D20000100500001004F0001004E0000004E0085
:100D300001004D0001004C0001004B0000004B0081
:100D400001004A000100490001004800000048007D
:100D50000100470001004600000046000100450078
:100D60000000450001004400010043000000430072
:100D7000010042000000420001004100000041006B
:100D80000100400001003F0000003F0001003E0064
:100D900000003E0001003D0000003D0001003C005D
:100DA00000003C0000003C0001003B0000003B0054
:100DB00001003A0000003A0001003900000039004B
:100DC0000100380000003800000038000100370042
:100DD0000000370001003600000036000000360039
:100DE000010035000000350000003500010034002E
:100DF0000000340000003400010033000000330024
:100E00000000330001003200000032000000320018
:100E1000010031000000310000003100010030000D
:100E2000000030000000300001002F0000002F0003
:100E300000002F0000002F0001002E0000002E00F7
:100E400000002E0001002D0000002D0000002D00EC
:100E500000002D0001002C0000002C0000002C00E0
:100E600000002C0001002B0000002B0000002B00D4
:100E700000002B0001002A0000002A0000002A00C8
:100E800000002A00010029000000290000002900BC
:100E900000002900000029000100280000002800AF
:100EA00000002800000028000000280001002700A2
:100EB0000000270000002700000027000000270096
:100EC0000100260000002600000026000000260089
:100ED000000026000100250000002500000025007C
:100EE000000025000000250000002500010024006E
:100EF0000000240000002400000024000000240062
:100F00000100230000002300000023000000230054
:100F10000000230000002300000023000100220045
:100F20000000220000002200000022000000220039
:100F3000000022000100210000002100000021002B
:100F4000000021000000210000002100000021001D
:100F50000100200000002000000020000000200010
:100F60000000200000002000000020000000200001
:100F700001001F0000001F0000001F0000001F00F4
:100F800000001F0000001F0000001F0001001E00E5
:100F900000001E0000001E0000001E00000039308E
:100FA00000003325000087190000B00F0000DB08A7
:100FB0000000BD040000740200003F0100006265F3
:100FC000640A002C2073797374656D2073746F70DC
:100FD00070656421204865617465725F49443A20F8
:100FE00000526973632E2070696174746F206661AA
:100FF0006C6C69746F0048656174696E6720666126
:10100000696C65640045312052697363616C642EBC
:101010002046616C6C69746F0048656174696E6725
:10102000206661696C65640055434349534F2E2027
:101030000070012C0190012701B0012201C0011DA7
:1010400001F00118011002130130020E01600209C3
:101050000190020401C002FF000003FA004003F502
:10106000008003F000D003EB002004E6007004E1F0
:1010700000E004DC004005D700C005D2004006CDEA
:1010800000D006C8008007C3003008BE00F008B9D1
:1010900000C009B400B00AAF00B00BAA00D00CA584
:1010A00000000EA000500F9B00C01096005012913F
:1010B0000000148C00C0158700B0178200B0197DA5
:1010C00000D01B7800001E730040206E0090226943
:1010D00000F024640040275F0090295A00E02B555F
:1010E00000102E500020304B0010324600E03341FB
:1010F0000090353C001037370070383200A0392D91
:1011000000B03A2800A03B2300603C1E00103D19AF
:1011100000903D1400103E0F00703E0A00C03E05D6
:1011200000003F0000403FFBFF803FF6FFC03FF163
:10113000FF45312054454D502046554F52492043DC
:101140004F4E54524F4C4C4F00424544205448455A
:10115000524D414C2052554E4157415900546865FB
:10116000726D616C2052756E617761790045312036
:101170004572723A2054454D50204D415353494DCC
:1011800041004572723A2054454D50204D41535311
:10119000494D412050494154544F004D4158544508
:1011A0004D5020747269676765726564004531202F
:1011B0004572723A2054454D50204D494E494D419B
:1011C000004572723A2054454D50204D494E494DCC
:1011D000412050494154544F004D494E54454D50C3
:1011E00020747269676765726564004D38342058F1
:1011F0002059205A204500202F002042403A00204C
:10120000403A0025753A2530327500253032753A5E
:10121000253032750025756420253032753A253029
:10122000327500202020202020005A005900202064
:1012300020200058000920000000000000000000ED
:10124000000000003FFFF000000000000000000070
:1012500000000038007000000000000000000000E6
:10126000000030FC30000000000000000000000022
:101270000020FC1000000000000000000000000042
:101280002078100000000000000000000000002096
:1012900030100000000000000000000000002C00E2
:1012A000D03FC0000000000000002082002E31D09E
:1012B0007FE0000000000000001041002F7BD07F85
:1012C000E0000000000000001041002F7BD07FE014
:1012D000000000000000002082002E31D03FC0003E
:1012E0000000000000004104002C00D03FC00000BE
:1012F00000000000008208002030107FE0000000A5
:10130000000000008208002078107FE0000000004C
:1013100000000041040020FC107FE00000000000FD
:10132000000020820030FC301F8000000000000020
:10133000000000003800700F0000000000000000F6
:10134000FFFFC03FFFF0060000000000000000FFAC
:10135000FFC00000000000000000000000000000CE
:10136000003FFFF00000000000000000000000004F
:101370003800700000000000000000000000003194
:1013800086300000000000000000000000002387FD
:1013900010000000000000000000000000278790FF
:1013A0000000000000000000000000002F87D000B7
:1013B00000000000000000000000002F03D03FC02C
:1013C000000000000000002082002030107FE000BC
:1013D0000000000000001041002078107FE00000B5
:1013E00000000000001041002078107FE0000000A5
:1013F000000000002082002030103FC000000000EC
:101400000000004104002F03D03FC0000000000096
:1014100000008208002F87D07FE00000000000005D
:10142000008208002787907FE00000000000000095
:101430004104002387107FE000000000000000202E
:1014400082003186301F8000000000000000000094
:10145000003800700F0000000000000000FFFFC017
:101460003FFFF0060000000000000000FFFFC0008A
:101470000000456E6465722D332050726F207072CB
:101480006F6E746F2E005072696E74696E672E2EC7
:101490002E005374616D706120736F73706573619A
:1014A0000052697472616920424C546F7563680020
:1014B000457374656E646920424C546F75636800AF
:1014C0004175746F7465737420424C546F75636812
:1014D00000436D643A2053572D4D6F64650052658B
:1014E000736574746120424C546F756368004D6578
:1014F0006E75207072696E636970616C65005374FB
:10150000616D706120616E6E756C6C617461004D0F
:101510003231005344206E6F6E2070726573656EB9
:1015200074650043616D6269612053442D436172AB
:1015300064004D3231005374616D7061206461202C
:1015400053440041727265737461207374616D70ED
:10155000610052697072656E6469207374616D70A8
:101560006100496E697A2E2053442D4361726400F4
:10157000506175736100436F6E74726F6C6C6F00B5
:1015800050726570617261005265676F6C610047EF
:101590007561726461004261627973746570205A8A
:1015A000004261627973746570205A00466C7573ED
:1015B000736F00466C7573736F0056656C6F63696B
:1015C00074612076656E746F6C610056656C6F6334
:1015D0006974612076656E746F6C61005069617426
:1015E000746F0050696174746F005567656C6C6F3F
:1015F000005567656C6C6F0056656C6F636974C3EA
:10160000A00056656C6F636974C3A0004D656E756C
:10161000207072696E636970616C65000006090074
:10162000FE000000000001090008FE000005080897
:1016300006000040F0C88888987810050808060061
:1016400000C0F88888888888F8050505060001200C
:1016500030F830200508080600002070F82020200F
:1016600020E00509090600FF2070A8A8B888887046
:10167000200509090600FFE080C0B0A8283028280E
:101680000509090600FFF8A88888888888A8F80551
:101690000A0A0600FE205050505088A8A8887003FF
:1016A000030306000340A040434F4D4D554E4943B0
:1016B0004154494F4E0044525952554E00455252E2
:1016C0004F525300494E464F004543484F00656E08
:1016D0007175657565696E672022004152524553E8
:1016E0005441544F2E20005072696E7465722073FD
:1016F000746F707065642064756520746F20657206
:10170000726F72732E204669782074686520657246
:10171000726F7220616E6420757365204D3939399E
:1017200020746F20726573746172742E2028546562
:101730006D7065726174757265206973207265736E
:1017400065742E2053657420697420616674657217
:101750002072657374617274696E67290A004E6F36
:1017600020436865636B73756D2077697468206CBE
:10177000696E65206E756D6265722C204C617374A4
:10178000204C696E653A20004E6F20436865636B9C
:1017900073756D2077697468206C696E65206E754D
:1017A0006D6265722C204C617374204C696E653AD1
:1017B0002000636865636B73756D206D69736D617F
:1017C0007463682C204C617374204C696E653A20F8
:1017D000004C696E65204E756D62657220697320DC
:1017E0006E6F74204C617374204C696E65204E7569
:1017F0006D6265722B312C204C617374204C696EC4
:10180000653A20004D313130004D333100534420D2
:1018100072656164206572726F720A00446F6E6552
:10182000207072696E74696E672066696C650A0063
:1018300020496E76616C69642065787472756465A0
:10184000722000486F6D6520257325732573207005
:1018500072696D6100207072696D610A005A0059E9
:10186000005800486F6D65200042696C696E6561C3
:1018700072204C6576656C696E6720477269643AC0
:101880000A00486F6D652066616C6C69746F00209A
:101890002844525952554E29004732392041757417
:1018A0006F20426564204C6576656C696E67003F09
:1018B00020284C2C522C462C4229206F7574206F06
:1018C0006620626F756E64732E0A003F2856296584
:1018D00072626F7365206C6576656C206973206930
:1018E0006D706C61757369626C652028302D3429C8
:1018F0002E0A00426164205A2076616C75650A00E8
:101900004E6F2062696C696E6561722067726964EE
:101910000A0050726F7465637465642050696E0AC2
:101920000020573A00452052616666726564646122
:101930006D656E746F2E2E00452052697363616C65
:1019400064616D656E746F2E2E2E0020573A005222
:10195000616666722E2070696174746F2E2E2E007F
:10196000526973632E2070696174746F2E2E2E007D
:10197000205A3A0020593A0020436F756E7420585F
:101980003A0020453A00205A3A0020593A00583A85
:10199000003A004361703A0023646566696E652011
:1019A00044454641554C545F4B64200023646566B2
:1019B000696E652044454641554C545F4B69200093
:1019C00023646566696E652044454641554C545F05
:1019D0004B702000504944204175746F74756E65DA
:1019E0002066696E6973686564212050757420747F
:1019F0006865206C617374204B702C204B692061EA
:101A00006E64204B6420636F6E7374616E74732018
:101A100066726F6D2062656C6F7720696E746F20DF
:101A2000436F6E66696775726174696F6E2E680ABE
:101A300000504944204175746F74756E652066616D
:101A4000696C6564212074696D656F75740A004561
:101A5000312054454D502046554F524920434F4E5A
:101A600054524F4C4C4F00546865726D616C20525B
:101A7000756E617761790045312052697363616CDD
:101A8000642E2046616C6C69746F004865617469EE
:101A90006E67206661696C65640050494420417539
:101AA000746F74756E65206661696C65642120547D
:101AB000656D706572617475726520746F6F2068F2
:101AC0006967680A00204B643A2000204B693A207D
:101AD00000204B703A20000A20436C6173736963E5
:101AE00020504944200A002054753A2000204B75AC
:101AF0003A2000206D61783A2000206D696E3A200E
:101B00000020643A200020626961733A2000504945
:101B100044204175746F74756E65207374617274BE
:101B20000A00504944204175746F74756E652066D3
:101B300061696C6564212054656D706572617475AE
:101B4000726520746F6F20686967680A00504944A5
:101B5000204175746F74756E65206661696C65648B
:101B60002120426164206578747275646572206E0C
:101B7000756D6265720A004F66660A0046616465AB
:101B8000204865696768742000426564204C65766A
:101B9000656C696E6720004661696C656420746FCE
:101BA00020656E61626C6520426564204C657665D7
:101BB0006C696E670A00536F7370656E73696F6E40
:101BC000652E2E2E00486F6D652058592070726961
:101BD0006D610A00486F6D65205859207072696DFB
:101BE0006100205A3A200020593A200042656420C2
:101BF000583A20004D65736820706F696E742063D9
:101C0000616E6E6F74206265207265736F6C7665AD
:101C1000640A005072656D6920746173746F2E2EB2
:101C2000004E657373756E204D6F76696D656E74C9
:101C30006F00456E642066696C65206C6973740A78
:101C400000426567696E2066696C65206C69737413
:101C50000A00286E6F2066696C65290043757272F0
:101C6000656E742066696C653A200053442070727A
:101C7000696E74696E67206279746520004E6F74B6
:101C8000205344207072696E74696E670A0044655F
:101C90006C6574696F6E206661696C65642C2046A2
:101CA000696C653A200046696C652064656C6574F2
:101CB00065643A002569730025696D202569730004
:101CC0002569682025696D202569730025696420D0
:101CD0002569682025696D202569730025697920AB
:101CE000256964202569682025696D2025697300B0
:101CF0005072696E742074696D653A20006F666673
:101D000000C916C416BD16B616A816444542554756
:101D10003A004D3131332053006F6B00456E6465DE
:101D2000722D332050726F204F66662E002C2000DB
:101D30002C2000544845524D414C5F50524F544561
:101D40004354494F4E004155544F5245504F525401
:101D50005F53445F53544154555300454D455247DA
:101D6000454E43595F5041525345520043415345FC
:101D70005F4C494748545F4252494748544E455387
:101D80005300544F47474C455F4C49474854530014
:101D9000534F4654574152455F504F5745520042AA
:101DA00055494C445F50455243454E54004C4556AE
:101DB000454C494E475F44415441005A5F50524F91
:101DC0004245004155544F4C4556454C00505249F0
:101DD0004E545F4A4F420050524F475245535300B2
:101DE0004155544F5245504F52545F54454D500049
:101DF000564F4C554D455452494300454550524F5E
:101E00004D0053455249414C5F584F4E5F584F4625
:101E100046004649524D574152455F4E414D453A65
:101E20004D61726C696E206275676669782D312E1E
:101E3000312E7820284769746875622920534F55E0
:101E40005243455F434F44455F55524C3A68747462
:101E500070733A2F2F6769746875622E636F6D2FE8
:101E60004D61726C696E4669726D776172652F4D56
:101E700061726C696E2050524F544F434F4C5F5605
:101E8000455253494F4E3A312E30204D4143484937
:101E90004E455F545950453A456E6465722D332066
:101EA00050726F2045585452554445525F434F5528
:101EB0004E543A3120555549443A63656465326160
:101EC00032662D343161322D343734382D39623158
:101ED000322D6335356336326633363766660A002F
:101EE0002F2F20004D31343520533C696E646578C6
:101EF0003E206F7574206F662072616E67652028C2
:101F0000302D31290A0020540020520041636365BE
:101F10006C65726174696F6E3A2050005741524E81
:101F2000494E4721204C6F77205A204A65726B201A
:101F30006D6179206C65616420746F20756E7761C6
:101F40006E746564207061757365732E0A00205A83
:101F500000205900580020204D61783A2000205A76
:101F600000205900580020204D696E3A20004F6E25
:101F700020004F666600536F667420656E6473744C
:101F80006F70733A200020466C6F773A2000000192
:101F90000F150E12FFFFFFFF16170E13FFFFFFFFB7
:101FA00003021A14FFFFFFFFFFFFFF0C04FFFFFFF8
:101FB00001000EFFFFFF0C190DFF183A20002053FF
:101FC0006572766F2000206F7574206F66207261D5
:101FD0006E67650A00536572766F2000496E766100
:101FE0006C69642065787472756465720A00206497
:101FF0003A0020693A0020703A0043290A006162E1
:102000006C656420286D696E2074656D70200043D6
:102010006F6C642065787472756465732061726595
:1020200020004E6F2063617365206C696768740AD5
:10203000004D65736820706F696E742063616E6E09
:102040006F74206265207265736F6C7665640A0038
:102050004D34323120696E636F7272656374207023
:102060006172616D657465722075736167650A00E0
:10207000454550524F4D204F4B0A003F5A206F7537
:1020800074206F662072616E676520282D323020C3
:10209000746F203230290A003A200050726F626556
:1020A000205A204F666673657400416374697665D3
:1020B0002045787472756465723A2000496E7661C5
:1020C0006C69642065787472756465720A00526583
:1020D00073656E643A20006F6B0020746F6F206C24
:1020E0006F6E6720657874727573696F6E20707299
:1020F0006576656E7465640A0020636F6C642065A4
:102100007874727573696F6E2070726576656E741F
:1021100065640A00627573793A207061757365644D
:1021200020666F7220696E7075740A00627573792B
:102130003A2070617573656420666F7220757365EF
:10214000720A00627573793A2070726F63657373F7
:10215000696E670A0055434349534F2E20004B498F
:102160004C4C2063617573656420627920746F6FD5
:10217000206D75636820696E61637469766520748B
:10218000696D65202D2063757272656E7420636FB2
:102190006D6D616E643A2000526961767669617294
:1021A0006520707265676F005354414D50414E5425
:1021B00045204645524D415441005072696E746548
:1021C000722068616C7465642E206B696C6C2829C0
:1021D0002063616C6C6564210A000000A04100006E
:1021E000A04100008040000000005761726E696EDF
:1021F000673A20486F6D696E672042756D702044A4
:10220000697669736F72203C20310A000202040073
:1022100000A0400000A0400000004000006B430010
:10222000006B4300007A43FFFFFF7C3C3E5E2B3D8A
:102230003F2F5B5D3B2C2A225C004572726F72203F
:1022400077726974696E6720746F20454550524FEC
:102250004D210A0000000000000000000000000006
:102260005072657269732E504C41205567656C6CD5
:102270006F005072657269732E504C412050696135
:1022800074746F0050726572697363616C6461206D
:10229000504C4100507265706172610050726572FD
:1022A00069732E414253205567656C6C6F00507204
:1022B000657269732E4142532050696174746F00D6
:1022C00050726572697363616C64612041425300AE
:1022D000507265706172610052657365747461203B
:1022E000424C546F756368004D32383020503020B6
:1022F00053313630004175746F7465737420424CED
:10230000546F756368004D3238302050302053319F
:1023100032300050726572697363616C6461204190
:1023200042530050726572697363616C646120503E
:102330004C41005261666672656464610044697371
:102340006162696C697461204D6F746F7269004DD0
:102350003834004175746F20486F6D65004732381E
:10236000004D756F76692041737365004D656E751C
:10237000207072696E636970616C65004D756F766F
:10238000692058004D756F76692059004D756F763C
:1023900069205A004573747275736F7265004D75CC
:1023A0006F766920646920302E316D6D004D756F38
:1023B0007669206469202020316D6D004D756F763F
:1023C00069206469202031306D6D004D756F76692C
:1023D0002041737365004573747275736F72650085
:1023E0004D756F7669205A004D756F7669205900DA
:1023F0004D756F76692058004573747275736F72EE
:1024000065004175746F20486F6D65004732380074
:102410004D756F7669205A004D756F7669205900A9
:102420004D756F76692058004F6666004F6E20002C
:10243000536F667420456E6473746F7073005072CE
:10244000657061726100436172696361206461203B
:102450006D656D6F7269610052697072697374693C
:102460006E6120696D702E0053616C766120696E1B
:10247000206D656D6F72696100424C546F756368C1
:102480000046696C616D656E746F004D6F76696DA5
:10249000656E746F0054656D7065726174757261FC
:1024A000004D656E75207072696E636970616C6550
:1024B000005049442D44005049442D4400504944A3
:1024C0002D49005049442D49005049442D50005099
:1024D00049442D500056656C6F63697461207665C0
:1024E0006E746F6C610056656C6F63697461207601
:1024F000656E746F6C610050696174746F0050692F
:102500006174746F005567656C6C6F005567656C1E
:102510006C6F00436F6E74726F6C6C6F005A204F5B
:102520006666736574005A204F666673657400436F
:102530006F6E74726F6C6C6F004469616D2E2066F3
:10254000696C6F004469616D2E2066696C6F004F85
:102550006666004F6E20004520696E206D6D330069
:10256000436F6E74726F6C6C6F0043616E6E6F744C
:1025700020656E746572207375626469723A20001A
:10258000022E2E0001416767696F726E61004D6512
:102590006E75207072696E636970616C6500000011
:1025A0002100240027002A00000022002500280026
:1025B0002B00000020002300260029000202020256
:1025C00002020202040404040404040403030303D7
:1025D00003030303010101010101010101020408D8
:1025E00010204080010204081020408001020408ED
:1025F00010204080804020100804020100000001EB
:102600000200090A0000000004030807000000009F
:102610000000000000000000000000002020506CBE
:10262000616E6E6572427566666572427974657335
:102630003A20002046726565204D656D6F72793ACB
:102640002000436F6D70696C65643A2041707220A0
:10265000313820323032300A00207C2041757468D5
:102660006F723A2028496E7465727374656C6C6180
:10267000724D69736669742C20456E6465723320EF
:1026800050726F20424C546F75636820532D437510
:1026900072766520357835204954290A0032303168
:1026A000382D30372D333100204C61737420557034
:1026B00064617465643A20006275676669782D31DB
:1026C0002E312E780A004D61726C696E0020536FB6
:1026D0006674776172652052657365740A002057CD
:1026E00061746368646F672052657365740A0020C3
:1026F00042726F776E206F75742052657365740A2D
:10270000002045787465726E616C20526573657443
:102710000A00506F77657255700A007374617274A5
:102720000A006175746F25692E67006572726F7299
:102730002077726974696E6720746F2066696C65B2
:102740000A00456E6473746F702025632025632032
:10275000256320256300205A3A0020593A0020586A
:102760003A00656E6473746F7073206869743A2000
:1027700000446F6E6520736176696E672066696CD0
:10278000652E0A004D3239004D3234004D3233206F
:10279000257300556E6B6E6F776E20636F6D6D6184
:1027A0006E643A20220050726F62696E6720666123
:1027B0006C6C69746F0A0050726F62696E67206694
:1027C000616C6C69746F00205A3A200020593A20DD
:1027D0000042656420583A200053442063617264CB
:1027E000206F6B0A006F70656E526F6F74206661A8
:1027F000696C65640A00766F6C756D652E696E692B
:1028000074206661696C65640A00534420696E69CE
:1028100074206661696C0A0057726974696E67207A
:10282000746F2066696C653A20006F70656E206673
:1028300061696C65642C2046696C653A20006F7094
:10284000656E206661696C65642C2046696C653A2A
:10285000200046696C652073656C65637465640A65
:10286000002053697A653A200046696C65206F70D4
:10287000656E65643A20002066696C653A200064E4
:102880006F696E67006672657368004E6F7720002F
:10289000454E4420535542524F5554494E450A0027
:1028A0002220706F73002220706172656E743A226C
:1028B00000535542524F5554494E452043414C4CCC
:1028C000207461726765743A220055434349534F3F
:1028D0002E2000747279696E6720746F2063616CBA
:1028E0006C207375622D67636F64652066696C6523
:1028F00073207769746820746F6F206D616E792022
:102900006C6576656C732E204D4158206C6576653C
:102910006C2069733A004572726F723A006F70658D
:102920006E206661696C65642C2046696C653A208E
:102930000043616E6E6F74206F70656E20737562F8
:1029400064697220006563686F3A0000060900FE42
:10295000070192032120FFFF08FF07FF0000000688
:10296000000001070706020080808080800080034D
:102970000202060105A0A00507070600005050F856
:1029800050F850500507070600002078A07028F086
:1029900020050707060000C0C8102040981805074A
:1029A000070600006090A040A8906802030306019B
:1029B00004C040800307070601002040808080405B
:1029C00020030707060100804020202040800505E5
:1029D0000506000120A870A82005050506000120B5
:1029E00020F820200203030602FFC04080050101F9
:1029F000060003F8020202060200C0C00505050633
:102A00000001081020408005070706000070888834
:102A10008888887003070706010040C04040404096
:102A2000E0050707060000708808708080F8050739
:102A300007060000F81020100808F0050707060038
:102A40000010305090F81010050707060000F880BD
:102A5000F008088870050707060000708080F0887D
:102A60008870050707060000F808102020202005C0
:102A700007070600007088887088887005070706B9
:102A8000000070888878080870020505060200C0FA
:102A9000C000C0C00206060602FFC0C000C04080E1
:102AA00004070706000010204080402010050303A3
:102AB000060002F800F80407070601008040201015
:102AC00020408005070706000070880810200020BD
:102AD00005070706000070880868A8A870050707A2
:102AE000060000708888F8888888050707060000B7
:102AF000F08888F08888F005070706000070888055
:102B000080808870050707060000F088888888881C
:102B1000F0050707060000F88080F08080F80507C0
:102B200007060000F88080F0808080050707060017
:102B300000708880B88888700507070600008888BC
:102B400088F88888880107070602008080808080D6
:102B500080800507070600003810101010906005EF
:102B600007070600008890A0C0A090880507070608
:102B70000000808080808080F805070706000088BC
:102B8000D8A8888888880507070600008888C8A80C
:102B900098888805070706000070888888888870EC
:102BA000050707060000F08888F080808005070789
:102BB00006000070888888A890680507070600004E
:102BC000F08888F0A09088050707060000788080CC
:102BD000700808F0050707060000F82020202020D4
:102BE0002005070706000088888888888870050700
:102BF0000706000088888888885020050707060097
:102C0000008888888888A8500507070600008888FB
:102C100050205088880507070600008888885020C3
:102C20002020050707060000F80810204080F80360
:102C30000707060100E08080808080E0050505062A
:102C400000018040201008030707060100E0202053
:102C5000202020E005030306000420508805010120
:102C6000060000F80202020602058040050505067E
:102C7000000070087888780507070600008080B09B
:102C8000C88888F0050505060000708080887005FA
:102C90000707060000080868988888780505050673
:102CA00000007088F880700507070600003048E0D3
:102CB000404040400506060600FF7088887808708E
:102CC0000507070600008080B0C8888888010707CC
:102CD000060200800080808080800308080601FFD3
:102CE000200020202020A04004070706000080804C
:102CF00090A0C0A090030707060100C040404040DC
:102D000040E0050505060000D0A8A8A8A80505050F
:102D1000060000B0C8888888050505060000708890
:102D20008888700506060600FFF08888F080800518
:102D300006060600FF78888878080805050506005D
:102D400000B0C8808080050505060000708070080E
:102D5000F00407070600004040E040404030050511
:102D60000506000088888898680505050600008823
:102D7000888850200505050600008888A8A8500509
:102D8000050506000088502050880506060600FF4D
:102D9000888888780870050505060000F81020402E
:102DA000F80307070601002040408040402001074B
:102DB000070602008080808080808003070706016C
:102DC00000804040204040800502020600026890DA
:102DD00000000006000000000006000000000006E1
:102DE00000000000000600000000000600000000D7
:102DF00000060000000000060000000000060000C1
:102E000000000006000000000006000000000006B0
:102E100000000000000600000000000600000000A6
:102E20000006000000000006000000000006000090
:102E30000000000600000000000600000000000680
:102E40000000000000060000000000060000000076
:102E50000006000000000006000000000006000060
:102E60000000000600000000000600000000000650
:102E70000000000000060000000000060000000046
:102E80000006000000000006000000000006000030
:102E90000000000600000000000600000107070611
:102EA00002008000808080808005070706000020E7
:102EB00070A8A0A87020050707060000304040E079
:102EC0004050A80505050600008870507088050769
:102ED00007060000885020F820F8200107070602A6
:102EE000008080800080808005080806000030484F
:102EF000205050209060030101060107A00507073C
:102F0000060000F888B8B8B888F805070706000179
:102F1000700878887800F80505050600012850A09B
:102F20005028050303060001F80808020202060201
:102F3000064080050707060000F888A88898A8F8CA
:102F4000050101060006F8040404060003609090E1
:102F5000600507070600002020F8202000F804057F
:102F60000506000360902040F0030505060003E01D
:102F700020E020E002020206020640800508080662
:102F800000FF8888888898E8808005070706000089
:102F900078989878181818020202060202C0C00237
:102FA00002020602FF408003050506000340C04000
:102FB00040E0050707060001708888887000F80562
:102FC0000505060001A0502850A0050707060000CF
:102FD0008890A858B808080507070600008890B828
:102FE00048982038050808060000C040C048D83876
:102FF00008080507070600002000204080887005AB
:1030000008080600004020007088F8888805080835
:103010000600001020007088F8888805080806005F
:10302000002050007088F8888805080806000068AD
:1030300090007088F8888805080806000050007025
:103040008888F888880508080600002050207088C5
:10305000F888880507070600003860A0B8E0A0B827
:103060000508080600FF70888080887020600508C9
:1030700008060000402000F880F080F805080806E7
:103080000000081000F880F080F80508080600002D
:10309000205000F880F080F8050707060000500077
:1030A000F880F080F8030808060100804000E04046
:1030B0004040E0030808060100204000E040404096
:1030C000E003080806010040A000E0404040E003A3
:1030D0000707060100A000E0404040E005070706A2
:1030E0000000704848E84848700508080600006875
:1030F000900088C8A898880508080600004020703D
:103100008888888870050808060000102070888864
:10311000888870050808060000205000708888889C
:10312000700508080600006890007088888870059F
:10313000080806000050007088888888700505051A
:1031400006000188502050880508080600FF10700E
:10315000A8A8A8A870400508080600004020888894
:1031600088888870050808060000102088888888EC
:10317000887005080806000020500088888888703C
:1031800005080806000050008888888888700508AF
:10319000080600001020885020202020050909067C
:1031A00000FFC040704848704040E0040808060135
:1031B000FF609090A09090E0800508080600004015
:1031C00020007008788878050808060000102000A4
:1031D00070087888780508080600002050007008FC
:1031E00078887805080806000068900070087888DC
:1031F00078050707060000500070087888780508F1
:103200000806000020502070087888780506060619
:103210000000D02878A0A8500506060600FF7080A0
:10322000887020600508080600004020007088F8BB
:1032300080700508080600001020007088F8807073
:103240000508080600002050007088F88070050707
:103250000706000050007088F88070030808060117
:103260000080400040C04040E00308080601002004
:10327000400040C04040E003080806010040A000B4
:1032800040C04040E0030707060100A00040C040E6
:1032900040E0050707060000A040A01078887005F0
:1032A0000808060000689000B0C8888888050808EB
:1032B0000600004020007088888870050808060015
:1032C000001020007088888870050808060000201B
:1032D0005000708888887005080806000068900013
:1032E000708888887005070706000050007088887D
:1032F00088700505050600012000F8002005070775
:103300000600FF1070A8A8A8704005080806000075
:10331000402000888888986805080806000010206A
:1033200000888888986805080806000020500088F2
:1033300088889868050707060000500088888898E4
:10334000680509090600FF102000888888F80870C1
:103350000407070601FFC04060506040E005080810
:103360000600FF50008888887808700007DC3DDA86
:1033700011241FBECFEFD0E4DEBFCDBF12E0A0E02E
:10338000B1E0EAEBF9ED01E00BBF02C007900D924E
:10339000A833B107D9F724E1A8E3B2E001C01D9238
:1033A000A732B207E1F719E1C7EBD9E104C02197D1
:1033B000FE010E9441ECC63BD107C9F70E94EEDC3A
:1033C0000C94D0EC0C9400006091130170911401E6
:1033D000072E000C880B990B0E94AFE52AE037ED11
:1033E00043E25CE30E940EE620910E0930910F0942
:1033F00040911009509111090E940EE660930F014F
:103400007093100180931101909312010895119807
:103410000000000087FD52C0419800000000119A92
:103420000000000011980000000086FD53C0419884
:1034300000000000119A0000000011980000000038
:1034400085FD46C0419800000000119A0000000070
:1034500011980000000084FD39C041980000000070
:10346000119A0000000011980000000083FD2CC09C
:10347000419800000000119A00000000119800001F
:10348000000082FD1FC0419800000000119A00005A
:10349000000011980000000081FD12C0419800005A
:1034A0000000119A000000001198000000004198EF
:1034B00000000000119A000000000895419AADCF6D
:1034C000419AEDCF419AE0CF419AD3CF419AC6CFEE
:1034D000419AB9CF419AACCF90916F00292F2270B9
:1034E00091FF05C090916F009D7F90936F0034E035
:1034F000839FC0011124FC01E351F74F40815181AA
:10350000628173818C59964FFC01408351836283A1
:10351000738381E08093EC08222329F080916F006F
:10352000826080936F000895BC0120916209309100
:10353000630940916209509163092417350731F4FA
:1035400081E02617370709F080E008959A01F1CF4E
:10355000EF92FF920F931F93E092E408F092E50838
:103560000093E6081093E7086093E8087093E90871
:103570008093EA089FEFFF27621B730B840B30F4E4
:10358000809570956195790B890B99279093190A0D
:10359000A6E06A9F00920D0A512DEE277A9F500DEA
:1035A000E11D8A9FE00D50930E0AE0930F0AAFE0F1
:1035B0006A9F0092110A512DEE277A9F500DE11D4E
:1035C0008A9FE00D5093120AE093130AAAE06A9FC3
:1035D0000092150A512DEE277A9F500DE11D8A9F0A
:1035E000E00D5093160AE093170A1F910F91FF9078
:1035F000EF9008959F92AF92BF92CF92DF92EF9299
:10360000FF920F931F93CF93DF9300D000D01F92B0
:10361000CDB7DEB7EEE9F6E00027BB27462F572FE0
:10362000A82FAA2341F4A52F542FB85FAA2319F479
:10363000A52F5527B85FA03138F45295A295452F94
:103640004F70507FA42BBC5FA03428F4550FAA1FE5
:10365000550FAA1FBE5FA03818F4550FAA1FB395C7
:10366000550FAA1FEA0FF01F449151E0AA27B85046
:1036700081F1C8F0B0FF02C0440F551FB1FF04C074
:10368000440F551F440F551FB2FF06C05295429577
:10369000142F1F70407F512BB3FF1BC0A52F542F39
:1036A00044270C94691BB195B0FF02C0559547950E
:1036B000B1FF04C05595479555954795B2FF05C094
:1036C0005295407F4295452B5F70B3FF02C0452F56
:1036D0005527DD24CC24BB24B2E0649FD018C10858
:1036E000B00AB00B749FC018B108B00B849FB0181B
:1036F000B109659FC018B108B00B759FB018B1092A
:10370000859FB0196A9FB018B1097A9FB0194D9D75
:10371000A12C99243327992722275D9DA00C911C69
:10372000301F901F201FAD9D900C311D901F201F3A
:103730004C9DA00C911C301F901F201F5C9D900C75
:10374000311D901F201FAC9D300D911D201F4B9DE2
:10375000900C311D901F201F5B9D300D911D201F6F
:10376000AB9D900D211D4B9F300D911D201F5B9F28
:10377000900D211DAB9F200DB1E0BB24CC24DD2496
:10378000639FD018C108B00AB00B739FC018B1086E
:10379000B00B839FB018B109699FC018B108B00B76
:1037A000799FB018B109899FB019629FB018B1090B
:1037B000729FB019D61AC70AB80A20F0B1E03B0FC1
:1037C000901F201F1124792F632F90E0822F0F90DC
:1037D0000F900F900F900F90DF91CF911F910F914D
:1037E000FF90EF90DF90CF90BF90AF909F900895A3
:1037F000CF92DF92EF92FF928091B70B882309F46A
:1038000057C0C090B30BD090B40BE090B50BF090C4
:10381000B60B20E030E0A901C701B6010E94A8E57F
:10382000882309F445C020E030E040E05FE3C701B1
:10383000B6010E940EE69B01AC010E940EE62BED44
:103840003FE049E450E40E940EE69B01AC0160E0D9
:1038500070E080E89FE30E9483EA6B017C01C092E4
:103860000E09D0920F09E0921009F09211096091AF
:10387000130170911401072E000C880B990B0E9404
:10388000AFE52AE037ED43E25CE30E940EE6A701D4
:1038900096010E940EE660930F01709310018093D1
:1038A000110190931201FF90EF90DF90CF90089557
:1038B000C12CD12C80E8E82E8FE3F82ED0CFCF9307
:1038C000DF938091CE0B811105C08091CF0B8823AF
:1038D00009F459C08091130932994FC08E7F8093AB
:1038E00013098091130933994AC08D7F809313097E
:1038F00080911309349945C08B7F80931309C0913F
:103900005509C0FF10C080911E0980FF0CC0809136
:10391000130980FF08C08091D50B81608093D50B7F
:1039200080E00E946C1AC1FF10C080911E0981FFC7
:103930000CC08091130981FF08C08091D50B826073
:103940008093D50B81E00E946C1AC2FF1CC080914D
:103950001E0982FF18C08091CF0B8823A1F08091AF
:10396000130982FF10C08091D50B84608093D50B22
:1039700082E0DF91CF910C946C1A8160B0CF8260AD
:10398000B5CF8460BACFDF91CF9108950C9493B9ED
:103990009F92AF92BF92CF92DF92EF92FF920F93DE
:1039A0001F93CF93DF935B01E9014A3009F4C4C050
:1039B000453109F067C0DB011296ED91FC91F28070
:1039C000C681D781139A88E290E00197F1F7EF2C36
:1039D000E29420EFE22230E1932E9F0C48E2C42EC5
:1039E000D12C88EF0E94071AC6010197F1F7BFE1B9
:1039F000BF1508F488C08F2D807780680E94071A51
:103A00008E2D0E94071AC6010197F1F780E80E94E7
:103A1000071A80E00E94071AC6010197F1F78AEFA2
:103A20000E94071AC6010197F1F78E01005F1F4F30
:103A30008881807F0E94071A89918295807F0E94E9
:103A4000071AC017D107A1F7C6010197F1F7F39440
:103A5000E0E1EE0EF910C5CF1398D50112960D9145
:103A60001C91C8010E9432BD8111FEC1DF91CF912E
:103A70001F910F91FF90EF90DF90CF90BF90AF908C
:103A80009F900895FB0102811381ECEEE40FE43373
:103A900008F050C0F0E0E15BF24E0C9441ECDC1E0B
:103AA000311D9A1D241F9A1D9A1D9A1D9A1D9A1D3B
:103AB0009A1D9A1D9A1D9A1D9A1D9A1D9A1D9A1D4E
:103AC0009A1D9A1D9A1D9A1D9A1D9A1D9A1D9A1D3E
:103AD0009A1D9A1D9A1D9A1D9A1D1E1F9A1D9A1DA8
:103AE0009A1D9A1D9A1D9A1D9A1D9A1DEF1E9A1DC8
:103AF0009A1D9A1D9A1D9A1D9A1D9A1D9A1D9A1D0E
:103B00009A1D411F961D80EE8F0D8068807F0E9458
:103B1000071A8F2D8295807F0E94071AC601019790
:103B2000F1F780E80E94071A80E874CFD801119657
:103B30008C91888381E09ACF0B9A1398399A419897
:103B4000099A119A139A88E290E00197F1F788E7B1
:103B500090E0CEE9DFE0FE013197F1F70197D9F768
:103B600088EF0E94071A08E210E0C8010197F1F7F8
:103B700080E20E94071A80E00E94071AC80101979C
:103B8000F1F780E00E94071A80E80E94071AC80136
:103B90000197F1F780E00E94071A80E10E94071A5E
:103BA000C8010197F1F7CE010197F1F7CE01019716
:103BB000F1F7CE010197F1F7CE010197F1F7CE01B0
:103BC0000197F1F7CE010197F1F7CE010197F1F7D7
:103BD000CE010197F1F7CE010197F1F7CE010197E0
:103BE000F1F7CE010197F1F7CE010197F1F7CE0180
:103BF0000197F1F7CE010197F1F72197F1F780E2F4
:103C00000E94071A80E40E94071AC8010197F1F781
:103C100080E20E94071A80E60E94071AC8010197F5
:103C2000F1F700E010E0C8E2D0E0812F80778068F3
:103C30000E94071A802F0E94071ACE010197F1F700
:103C400080E80E94071A80E00E94071ACE010197BF
:103C5000F1F78AEF0E94071ACE010197F1F780E28F
:103C6000119800000000419800000000119A000027
:103C70000000119800000000419800000000119A17
:103C800000000000119800000000419800000000B2
:103C9000119A0000000011980000000041980000F7
:103CA0000000119A000000001198000000004198E7
:103CB00000000000119A00000000119800000000B0
:103CC000419800000000119A0000000011980000C7
:103CD0000000419800000000119A000000001198B7
:103CE00000000000419800000000119A0000000050
:103CF000119800000000419800000000119A000097
:103D00000000119800000000419800000000119A86
:103D10000000000011980000000041980000000021
:103D2000119A000000001198000000004198000066
:103D30000000119A00000000119800000000419856
:103D400000000000119A000000001198000000001F
:103D5000419800000000119A000000001198000036
:103D60000000419800000000119A00000000119826
:103D700000000000419800000000119A00000000BF
:103D8000FE013197F1F7815009F06ACF88EF0E9468
:103D9000071ACE010197F1F71F5F005F103209F09B
:103DA00044CF80E00E94071A80EC0E94071A2197F6
:103DB000F1F7139881E05ACED80115964C911597DA
:103DC00050E0440F551F70E060E016968D919C9175
:103DD0000E9468ECC8010E9448BD81E047CE8981FD
:103DE0002B81D80112966C91129713964C91213029
:103DF00009F467C0233009F048C038EF380F582F56
:103E000091E0431708F490E041E0531708F040E0D8
:103E100031E0561708F430E0592F542B352319F4AC
:103E2000942309F487CEFA8030E0F901EF52FE4F77
:103E3000D08023533E4FF901E08040C0B901C80152
:103E40000E941CBD81E012CE1882D80112968C917E
:103E50001297898315968C91159781508A831396B2
:103E60008C918B8381E002CEF801458150E0440FB4
:103E7000551F70E060E0868197810E9468EC81E0C8
:103E8000F5CDF8018581888355CE481708F452CEC8
:103E9000861708F44FCEFA80E12CD12C243070F430
:103EA000C3CFBE01C8010E941CBD898198819D0DB0
:103EB00098838E0D8983FF0C09F43CCEF7FEF6CF74
:103EC000F0CF58E0580F382F9BCF3F924F925F9220
:103ED0006F927F928F929F92AF92BF92CF92DF921A
:103EE000EF92FF920F931F93CF93DF93EC01162F66
:103EF000DCAC5BAC5C0124E0A20EB11CE98DFA8D58
:103F0000C5010995982EE884F984C7010E9400BF75
:103F1000082F888599850E9403BF782E88248A946B
:103F2000013011F48FE0882E888599850E94F6BEB5
:103F3000082F888599850E94F2BEC82E88859985AC
:103F40000E94FABE113670F0009761F0E80EF91E7B
:103F500001E6C116B8F41C8A1F8A188E1D8A1E8AB3
:103F600080E05BC0888599850E94FDBE113430F0E9
:103F7000009721F0E80EF91E01E4EBCF81E1E80E95
:103F8000F11CE7CFC01638F3872D90E0F70124919C
:103F90002F3F39F4FFEFEF1AFF0AC016E1F20F5F6F
:103FA000F5CF101368C0888599850E9400BF9701DE
:103FB0002F5F3F4FF701882319F0823009F044C08A
:103FC00084918F8BF9012491288FF7013396E49126
:103FD000EC8BF7013496E491ED8BF7013596E49183
:103FE000EE8BE114F10409F4BBCF888599850E941A
:103FF00003BF782ECF88388C8D89580E1D2D13194C
:104000008E89181B190D032D2C2D412F652DC501EF
:104010000E940DBF811138C08C899BAD890F8BAF79
:1040200081E090E0DF91CF911F910F91FF90EF9091
:10403000DF90CF90BF90AF909F908F907F906F90C8
:104040005F904F903F9008958491982F9F70925069
:104050009E8B82958F708D8BF9012491822F8F70AA
:10406000888F22952F702F8BF7013296E491E2957D
:10407000EF70EC8BB6CF3296E491E821E80FF92F80
:10408000F11DEE0EFF1E89CFE70CF11C07E00C0DB1
:10409000069506950695310E4E01F0E28F0E911CA5
:1040A000602E712C131509F4B7CF452C670112C08F
:1040B000F60184916E817F8148A219A31BA28AA375
:1040C00094014BE3C5010E944FBDFFEFCF1ADF0AF9
:1040D00028E0420E8C2D8E19801750F3E60CF71C49
:1040E0001F5FE0CF1F93CF93DF93182FEB01FE01EB
:1040F0008491219681110AC0C9E7D4E0FE01849120
:104100002196882331F00E944C79F8CF0E944C7997
:10411000EECFC4E7D4E0112311F0CAE6D4E0FE01EB
:1041200084912196882319F00E944C79F8CF8AE077
:10413000DF91CF911F910C944C79CF93DF93803D09
:104140009240A1F0C6E1D9E2FE018491219681114D
:104150000AC0C7ECD0E0FE0184912196882351F07B
:104160000E944C79F8CF0E944C79EECF80E0DF912D
:10417000CF91089581E0FBCF2F923F924F925F92B3
:104180006F927F928F929F92AF92BF92CF92DF9267
:10419000EF92FF920F931F93CF93DF93CDB7DEB7CC
:1041A0006C970FB6F894DEBF0FBECDBF8C015B01DC
:1041B0005A834983FC01E95BFF4F208131814281B1
:1041C0005381298B3A8B4B8B5C8BCA01B9010E94BE
:1041D000ADE56B017C01D5012D913D914D915C9137
:1041E0000E940EE60E946CEA0E94FCEA4B015C0110
:1041F000E981FA812081318142815381C701B60171
:104200000E940EE60E946CEA0E94FCEA89869A8669
:10421000AB86BC8629853A854B855C852837310578
:104220004105510540F428E730E040E050E029879F
:104230003A874B875C876D837E838F8398874D8118
:104240005E816F817885483751056105710540F4BD
:1042500068E770E080E090E06D837E838F839887CD
:10426000F801ED5AFF4F4080518062807380C30196
:10427000B2010E94AFE569837A838B839C83698551
:104280007A858B859C850E94ADE56D8B7E8B8F8BAF
:10429000988F20E030E0A90169817A818B819C812F
:1042A0000E94A8E5882309F4E1C1A7019601C7018E
:1042B000B6010E940EE64B015C012D893E894F89B3
:1042C000588DCA01B9010E940EE69B01AC01C501DF
:1042D000B4010E94FFE94B015C0129813A814B81C5
:1042E0005C81CA01B9010E9400EA9B01AC01C501D1
:1042F000B4010E9483EA0E946CEA0E94FCEA6D8786
:104300007E878F87988B66277727CB01641975097D
:10431000860997090E94AFE54B015C016D817E81A2
:104320008F8198850E94ADE52B013C0120E030E0B3
:10433000A901C501B4010E94A8E5882309F49AC126
:10434000A3019201C301B2010E940EE6698F7A8F28
:104350008B8F9C8FA7019601C701B6010E940EE6C4
:104360009B01AC01698D7A8D8B8D9C8D0E94FFE93C
:104370006B017C01A5019401C501B4010E9400EA12
:104380009B01AC01C701B6010E9483EA0E942BEB9E
:10439000D80195968D909D90AD90BC9098977501A1
:1043A00064012D853E854F855889C21AD30AE40AD7
:1043B000F50A0E94FCEAC61AD70AE80AF90AF7FECB
:1043C0008EC02D893E894F89588DCA01B9010E943E
:1043D0000EE66B017C0129813A814B815C81CA0127
:1043E000B9010E9400EA698B7A8B8B8B9C8B20E051
:1043F00030E0A90169817A818B819C810E94A8E5C6
:10440000882309F43BC1C501B4010E94ADE52989A7
:104410003A894B895C890E940EE6A70196010E94A9
:10442000FFE96D877E878F87988BA3019201C30177
:10443000B2010E940EE69B01AC016D857E858F85E1
:1044400098890E9400EA2B013C0120E030E040E81E
:1044500050E469817A818B819C810E940EE69B01E8
:10446000AC01C301B2010E9483EA0E946CEA2B01F5
:104470003C0120E030E0A9010E9483EB18161CF0FB
:10448000412C512C3201C301B2010E94FCEA6D871C
:104490007E878F87988B86169706A806B90620F424
:1044A0008D869E86AF86B88A6D857E858F85988934
:1044B0000E94ADE529893A894B895C890E940EE604
:1044C000A70196010E9400EA0E94C1EB0E94FCEA4B
:1044D000698B7A8B8B8B9C8BC12CD12C7601698953
:1044E0007A898B899C8929853A854B855C85621BF5
:1044F000730B840B950B0E94ADE529813A814B81AA
:104500005C810E9483EA20E034E244EF59E40E9497
:104510000EE60E94FCEA4B015C0169897A898B896D
:104520009C892D813E814F815885621B730B840BC2
:10453000950B0E94ADE529813A814B815C810E94F7
:1045400083EA20E034E244EF59E40E940EE60E9440
:10455000FCEA2B013C013FE683169104A104B1045F
:1045600008F090C0F401EE0FFF1FEE0FFF1FE8559B
:10457000FB4F85919591A591B4918983292E3A2E6F
:10458000BD8B4FE6441651046104710408F083C0EA
:10459000F201EE0FFF1FEE0FFF1FE855FB4F459195
:1045A0005591659174919A01CB014D855E856F851A
:1045B0007889D8019A964D935D936D937C939D97DE
:1045C0004C0D5D1D6E1D7F1DF80146A757A760AB02
:1045D00071ABE55BFF4F49855A856B857C854083D0
:1045E000518362837383D6968D929D92AD92BC92D5
:1045F000D997F80142AE53AE64AE75AEFE964981CE
:104600004083218232825D895383349620833183B3
:104610008283938369897A898B899C89D2966D93E9
:104620007D938D939C93D5973D962D813E814F81AF
:10463000588520833183428353836C960FB6F89458
:10464000DEBF0FBECDBFDF91CF911F910F91FF90C5
:10465000EF90DF90CF90BF90AF909F908F907F9022
:104660006F905F904F903F902F90089560E070E0C2
:10467000CB0141CE60E070E0CB0188CE60E070E01D
:10468000CB01F3CEC501B4010E94FA1A6983272E2B
:10469000382E9D8B76CFC301B2010E94FA1A9B017E
:1046A00084CF8091F8098230B1F090915E10992307
:1046B00059F080916F10811104C082E690E10C9452
:1046C0002BB48FE690E1FBCF813041F082E794E19B
:1046D0006FEF0C9498C882E994E1FACF86E894E1F0
:1046E000F7CF8091E1098630D8F496E0899FF001F8
:1046F0001124E354F64F20913C0130913D01318368
:1047000020834091600D5091610D6091620D709118
:10471000630D42835383648375838F5F8093E109C4
:10472000089520913C0130913D0128173907D9F0B7
:1047300090933D0180933C014093600D5093610D37
:104740006093620D7093630D8D5E9A4221F4109216
:10475000BD0B1092E10982E080934C0181E08093CF
:104760005E0D1092C20B089540E050E0BA018DE654
:1047700096E20E9491231092090A10920A0A10925E
:104780000B0A10920C0A81E08093BD0B089540E063
:1047900050E0BA018DEE9AE20C949123E091E10988
:1047A000EE2389F0E150E093E10986E0E89FF00113
:1047B0001124E354F64F42815381648175818081D5
:1047C00091810C9491230C94C7232F923F924F9286
:1047D0005F926F927F928F929F92AF92BF92CF9291
:1047E000DF92EF92FF920F931F93CF93DF9300D04E
:1047F00000D0CDB7DEB70E9438B710915C0D612EA6
:1048000085E0782E710E97E7892E99249394A12C38
:10481000B12C05E0011B84E0F82EF11A83E0E82EAC
:10482000E11A82E0D82ED11A24EF222E33243394B9
:10483000412C512C81E0C82EC11A11113EC080912B
:104840005F0D8823B9F080914C01882361F0662DBB
:10485000619581E090915F0D911180E024E04EEE32
:1048600054E10E94F0C01F5F7112E7CF86E0809391
:104870005D0D0CC08091C30B882329F31092C30BEC
:104880000E94CE2380915E0D8823E9F20F900F9055
:104890000F900F90DF91CF911F910F91FF90EF90AC
:1048A000DF90CF90BF90AF909F908F907F906F9050
:1048B0005F904F903F902F900895113041F5809177
:1048C0005F0D813079F080914C01882361F281E0A5
:1048D00090915F0D913009F080E020E24EED54E1BF
:1048E0006C2DBFCF8091C30B882369F31092C30B4B
:1048F00029823A824B825C82BE016F5F7F4F80EAE1
:104900000E94787580915E0D8823E9F2BFCF123046
:1049100009F080C080915F0D823081F080914C0160
:10492000882309F4A0CF81E090915F0D923009F0C7
:1049300080E020E240EC54E16D2D93CF8091C30BD9
:10494000882361F31092C30B89829A82AB82BC8266
:10495000BE016F5F7F4F88E70E94787580915E0D82
:104960008823E1F293CF80915F0D833081F08091B5
:104970004C01882309F477CF81E090915F0D93304B
:1049800009F080E020E240EB54E16E2D6ACF809187
:10499000C30B882361F31092C30B0E94B275809100
:1049A0005E0D882321F372CF80915F0D843081F0FA
:1049B00080914C01882309F456CF81E090915F0DDE
:1049C000943009F080E020E241EA54E16F2D49CFB4
:1049D0008091C30B882361F31092C30B0E949775DB
:1049E00080915E0D882321F351CF8091C30B8823E2
:1049F000E9F01092C30B89829A82AB82BC82BE011D
:104A00006F5F7F4F8CE30E94787580915E0D8823E5
:104A100069F03CCF133009F4A6CF143029F21530D9
:104A200009F021CF80915F0D8530F9F280914C0122
:104A3000882309F418CF81E090915F0D953009F03B
:104A400080E020E241ED54E1602F0BCF9CE0899F94
:104A5000802D112491E0980F90936D0D2CE0280F7C
:104A600020936E0D4091051030E02E5F3F4F4217AE
:104A7000130609F0A4F420910710921780F466231E
:104A800041F08E5F0E942FBF80916E0D8E5F0E945D
:104A90002FBF80916E0D1092081080930910089519
:104AA000CF93DF931F92CDB7DEB780910A108111AB
:104AB00005C081E080930A100E94B4BD6091D30FBD
:104AC0007091D40F19829E012F5F3F4F4FE081ED0F
:104AD0009FE00E944FBD0F90DF91CF910895CF933B
:104AE000C82F823079F024F4813049F0CF910895B5
:104AF000833011F08430D1F78BE499E205C0CF9177
:104B00000C946FC68CE196E10E94E4B3C093C50B90
:104B1000EDCF87FF19C09091BC09803C50F09111F6
:104B20000AC0825C8093BB0981E08093BC0980E06D
:104B30000895992379F09091BB099295990F990F57
:104B4000907C90588F73890F0E947EB31092BC099D
:104B500081E008958FE3F8CFCF939FEF980F9930BE
:104B600018F0CF910C948925C82F8CE196E10E9412
:104B7000E4B38C2F0E947EB38091C50B0E946F25F9
:104B800081E0CF910895CF939FEF980F993068F40B
:104B9000C82F8CE196E10E94E4B38C2F0E947EB373
:104BA0008091C50BCF910C946F25CF910C948925E2
:104BB000CF93DF93EC01FE018491882321F00E94C2
:104BC000C3252196F8CFDF91CF910895CF93DF933E
:104BD000EC018991882319F00E94C325FACFDF9157
:104BE000CF910895AF92BF92CF92DF92EF92FF9252
:104BF0000F931F93CF93DF935C017B010E9467CDDE
:104C0000C82FC7010E94BBCD04E110E0081B1109A9
:104C1000DD24D394C017110619F014F082E0D82EC9
:104C20008091D20F90E06D2D70E06F5F7F4F0E94FA
:104C30002DECC62EC6E0C60F80910510C81788F16E
:104C4000209107104C2F4B50550B241715064CF193
:104C500010920810C0930910C5010E94BDB3D1E0A5
:104C6000E114F10499F08AE30E947EB352E0D51278
:104C70001AC0CC0D80910510C81740F02091071084
:104C80004C2F4B50550B241715067CF4DF91CF9118
:104C90001F910F91FF90EF90DF90CF90BF90AF905A
:104CA0000895D0E0DDCFDD2389F3802F880F800FBA
:104CB000880F80930810C093091080E20E947EB391
:104CC000C701DF91CF911F910F91FF90EF90DF907F
:104CD000CF90BF90AF900C94E625CF93DF9300D098
:104CE00000D0CDB7DEB78091C30B1092C30B8823E1
:104CF00059F01092BD0B0E94CE230F900F900F9091
:104D00000F90DF91CF9108954091600D5091610D0A
:104D10006091620D7091630D41155105610571053A
:104D2000B9F12AE0249FC001259F900D1124109213
:104D3000600D1092610D1092620D1092630D21E0D2
:104D400020934C012091740D22FF0AC020910C0980
:104D500030910D09280F391F30930D0920930C094C
:104D6000092E000CAA0BBB0B4091090A50910A0AAC
:104D700060910B0A70910C0A840F951FA61FB71F34
:104D80008093090A90930A0AA0930B0AB0930C0A25
:104D900080914C01882309F4B0CF6091090A709189
:104DA0000A0A80910B0A90910C0A0E94AFE52091AB
:104DB000010A3091020A4091030A5091040A0E94AC
:104DC0000EE669837A838B839C83CE0101960E94D1
:104DD000E2B5BC0186E995E10E94F2258ECFCF9223
:104DE000DF92EF92FF920F93CF93DF93982F862F4E
:104DF0006A017901692F0E94262590910510809102
:104E00006E0D891708F445C09091071080916D0DC3
:104E1000981708F43EC0C701002381F00E9467CDB7
:104E2000C82FD4E1D81BF6018491882351F00E9449
:104E3000AC25D81BFFEFCF1ADF0AF5CF0E94BBCD00
:104E4000EFCF8AE30E947EB3D15010F080E2FACF18
:104E500080916E0D9C2F990F990FC91BCC0FC058D4
:104E6000C093081080930910C701002349F0DF9117
:104E7000CF910F91FF90EF90DF90CF900C94D825B9
:104E8000DF91CF910F91FF90EF90DF90CF900C9436
:104E9000E625DF91CF910F91FF90EF90DF90CF90BB
:104EA00008958F929F92AF92BF92CF92DF92EF922E
:104EB000FF920F931F93CF93DF930E9438B7C09157
:104EC0005C0D85E0A82EAC0E86E0F82EFC1AD1E031
:104ED00085E0E82EEC1A84E0D82EDC1A83E0C82E98
:104EE000CC1A82E0B82EBC1A9D2E9C1A8C2E81946E
:104EF000C1112EC080915F0D882389F080914C01F3
:104F0000882309F443C081E090915F0D911180E006
:104F100024E04CE056E1682D0E94F0C037C080913B
:104F2000C30B882359F31092C30B0E94CE238091A8
:104F30005E0D882319F3DF91CF911F910F91FF90A0
:104F4000EF90DF90CF90BF90AF909F908F9008959B
:104F5000C130D1F580915F0D8130F9F080914C0125
:104F60008823A1F011E080915F0D813009F010E0FD
:104F700080911501909116010E941FC000E09C01D4
:104F800048EF55E1692D812F0E94EF26CF5FAC12CB
:104F9000AFCF87E080935D0DCECF8091C30B882388
:104FA000E9F21092C30B10E000E027EE33E04AE094
:104FB00050E065E171E082E096E10E9491B7809156
:104FC0005E0D882359F2B7CFC23009F0F4C080914A
:104FD0005F0D8230B1F080914C018823B9F211E06D
:104FE00080915F0D823009F010E08091C50F9091A3
:104FF000C60F0E941FC000E09C014AEE55E16B2DD8
:10500000C2CF8091C30B882331F31092C30BD0938E
:10501000640D1092BE0B1092BF0B1092C00B109239
:10502000C10B06EC1CE124E031E050E040E065EC0F
:105030007FE081EF95E10E9491B780915E0D88231A
:1050400051F279CF80915F0D8330B9F080914C019E
:10505000882309F49BCF11E080915F0D833009F024
:1050600010E08091580D9091590D0E941FC000E0F2
:105070009C014CED55E16C2D86CF8091C30B8823AC
:1050800029F31092C30BD093640D1092BE0B1092B3
:10509000BF0B1092C00B1092C10B0AE01AE22EE671
:1050A00030E050E040E068E57DE083EE95E10E946D
:1050B00091B780915E0D882349F23DCF80915F0DBD
:1050C0008430B9F080914C01882309F45FCF11E05E
:1050D00080915F0D843009F010E080915A0D90911D
:1050E0005B0D0E941FC000E09C014AEB55E16D2D55
:1050F0004ACF8091C30B882329F31092C30BD0931E
:10510000640D1092BE0B1092BF0B1092C00B109248
:10511000C10B10E000E02FEF30E050E040E06AE526
:105120007DE08BEC95E10E9491B780915E0D882324
:1051300049F201CF80915F0D8530B9F080914C012B
:10514000882309F423CF11E080915F0D853009F0A9
:1051500010E080911301909114010E941FC000E0A3
:105160009C014CEA55E16E2D0ECF8091C30B882334
:1051700029F31092C30B04EE19E127EE33E04AE065
:1051800050E063E171E083EB95E10E9491B780917B
:105190005E0D882399F2CFCE8091C30B8823D9F07E
:1051A0001092C30B84EB93E20E94D6CD80915E0DEA
:1051B000882389F0C0CEC33009F444CFC43009F449
:1051C0007DCFC53009F4B6CFC63009F0DFCE80916F
:1051D0005F0D863009F380914C01882309F4D6CE07
:1051E00081E090915F0D963009F080E023E041EA84
:1051F00055E16F2D91CE8F929F92AF92BF92CF9239
:10520000DF92EF92FF920F931F93CF93DF93B0E45F
:10521000A0E06A2F70E0AB014B0F511D55954795EB
:105220004A1711F0B41319C0EFE2F1E165917491DE
:10523000072E000C880B990B0E94AFE5DF91CF91F0
:105240001F910F91FF90EF90DF90CF90BF90AF90A4
:105250009F908F900895B42FDECF9A01215031098D
:10526000220F331F220F331FF901EF5CFF4EE59031
:10527000F490F901EB5CFF4EC591D4918E159F051A
:1052800054F3A42FC817D9070CF4C3CFF901ED5C70
:10529000FF4E05911491F901E95CFF4EC590D49041
:1052A000BC016E197F09072E000C880B990B0E9418
:1052B000AFE54B015C01B601601B710B072E000CC2
:1052C000880B990B0E94AFE59B01AC01C501B401AD
:1052D0000E940EE64B015C01BE016E197F09072E8C
:1052E000000C880B990B0E94AFE59B01AC01C50136
:1052F000B4010E9483EA6B017C01B801110F880B95
:10530000990B0E94AFE59B01AC01C701B6010E9459
:1053100000EA94CF0F930FB70F9300916E000B7FAD
:1053200000936E0078940F930BB70F930CB70F9206
:105330001F922F933F934F935F936F937F938F931E
:105340009F93AF93BF93EF93FF9311240E944D332C
:10535000FF91EF91BF91AF919F918F917F916F914D
:105360005F914F913F912F911F900F900CBF0F9124
:105370000BBF0F910460F89400936E000F910FBF64
:105380000F911895CF92DF92EF92FF92C090030990
:10539000D0900409E0900509F09006096091580D3D
:1053A0007091590D66507109072E000C880B990BEE
:1053B0000E94AFE5A70196010E9483EB18160CF539
:1053C00020E030E040E050E4C701B6010E9400EA6E
:1053D0000E94FCEA70939D0960939C090E9487B922
:1053E000605A75418F4F9F4F609398097093990948
:1053F00080939A0990939B09FF90EF90DF90CF9054
:105400000895109298091092990910929A09109291
:105410009B09F2CF0C94C2298F929F92AF92BF92B8
:10542000CF92DF92EF92FF920F931F93CF93DF9370
:10543000B0E4A0E06A2F70E0AB014B0F511D559511
:105440004795A41711F0B41319C0EFE2F1E165918B
:105450007491072E000C880B990B0E94AFE5DF9129
:10546000CF911F910F91FF90EF90DF90CF90BF9061
:10547000AF909F908F900895B42FDECF9A01215066
:105480003109220F331F220F331FF901EF5CFF4E4A
:10549000E590F490F901EB5CFF4EC591D4918E1527
:1054A0009F0554F3A42FC817D9070CF4C3CFF901F3
:1054B000ED5CFF4E05911491F901E95CFF4EC5903A
:1054C000D490BC016E197F09072E000C880B990B34
:1054D0000E94AFE54B015C01B601601B710B072E0A
:1054E000000C880B990B0E94AFE59B01AC01C50134
:1054F000B4010E940EE64B015C01BE016E197F09EA
:10550000072E000C880B990B0E94AFE59B01AC01A4
:10551000C501B4010E9483EA6B017C01B801110F3F
:10552000880B990B0E94AFE59B01AC01C701B60146
:105530000E9400EA94CF8091A8099091A9090E9445
:10554000FB286093C70F7093C80F8093C90F909387
:10555000CA0F8091A6099091A7090E940C2A609316
:105560000309709304098093050990930609A8958F
:105570001092FE0808950F931F938091F8098130CF
:1055800019F50E9487B9009174091091750920914D
:10559000760930917709601B710B820B930B28EE13
:1055A00033E040E050E00E949CE960917009709106
:1055B00071098091720990917309620F731F841FA2
:1055C000951F1F910F910895609178097091790945
:1055D00080917A0990917B09D6CF2F923F924F927A
:1055E0005F926F927F928F929F92AF92BF92CF9273
:1055F000DF92EF92FF920F931F93CF93DF93CDB77C
:10560000DEB72A970FB6F894DEBF0FBECDBF10925B
:10561000640D80915E10882351F180912A128823B5
:1056200009F44DC08091D4129091D512A091D61258
:10563000B091D7120097A105B10509F440C0BC0193
:10564000CD016D597F4F8F4F9F4F24E630E040E0F2
:1056500050E00E949CE96091D8127091D91280911B
:10566000DA129091DB120E949CE920930709809145
:10567000C30B1092C30B882321F10E94502540E0F8
:1056800050E0BA0185EC90E30E9491232A960FB670
:10569000F894DEBF0FBECDBFDF91CF911F910F9168
:1056A000FF90EF90DF90CF90BF90AF909F908F9042
:1056B0007F906F905F904F903F902F90089520E0E3
:1056C000D4CF4091600D5091610D6091620D709149
:1056D000630D2091150130911601C901840F951FAA
:1056E000243631050CF076C2853691050CF079C26E
:1056F00090931601809315011092600D1092610D28
:105700001092620D1092630D809115019091160117
:10571000883EE3E09E0714F087EE93E08A3091051F
:1057200014F48AE090E090931601809315010E9492
:1057300087B90091E3091091E4092091E5093091BE
:10574000E6096B017C01C01AD10AE20AF30A97014B
:10575000860137FD11C02091E20920952093E209CE
:105760006A547C4F8F4F9F4F6093E3097093E40915
:105770008093E5099093E6091091E2090E946FC6B3
:10578000809105108531E0F4112351F080915A0D7C
:1057900090915B0DF5E5EF2EF3E1FF2E892B21F4BF
:1057A000E8E3EE2EE2E1FE2E03E128E741E068E0C7
:1057B00081ED9FE00E940DBFDD24D394811146C28C
:1057C000809105108D3108F044C1883060F56091FA
:1057D000C50F7091C60F072E000C880B990B0E9405
:1057E000AFE520E030E040E05FE30E9400EA0E9485
:1057F000F5EACB010E941FC0FC01208130E020327D
:1058000029F4218133E0203209F436E025E0231B1E
:105810002093081027E0209309100E94E62585E3D5
:1058200092E10E94D825809105108D3108F059C071
:1058300080910710853108F454C020E030E040E04A
:105840005FE36091C70F7091C80F8091C90F90916D
:10585000CA0F0E9400EA0E94F5EACB010E941FC015
:10586000FC01208130E0203229F4218133E0203214
:1058700009F436E025E0231B209308102CE1209347
:1058800009100E94E62585E392E10E94D8258091C7
:105890000510853130F580910710813110F160914C
:1058A000C50F7091C60F072E000C880B990B0E9434
:1058B000AFE52091C70F3091C80F4091C90F5091AB
:1058C000CA0F0E9483EB18160CF0C3C11092F10F9F
:1058D00022E042E061E18DE00E947CBF81E08093A4
:1058E000F10F80910510883060F56091580D70912E
:1058F000590D072E000C880B990B0E94AFE520E094
:1059000030E040E05FE30E9400EA0E94F5EACB014C
:105910000E941FC0FC01208130E0203229F4218147
:1059200033E0203209F436E021E5231B20930810F0
:1059300027E0209309100E94E62585E392E10E946A
:10594000D825809105108D3108F059C0809107103D
:10595000853108F454C020E030E040E05FE360911E
:1059600003097091040980910509909106090E942C
:1059700000EA0E94F5EACB010E941FC0FC012081D1
:1059800030E0203229F4218133E0203209F436E07E
:1059900021E5231B209308102CE1209309100E947D
:1059A000E62585E392E10E94D82580910510853196
:1059B00030F580910710813110F16091580D709190
:1059C000590D072E000C880B990B0E94AFE5209112
:1059D00003093091040940910509509106090E947C
:1059E00083EB18160CF03CC11092F10F22E042E05C
:1059F00062E188E50E947CBF81E08093F10F809195
:105A000005108C3130F580910710843110F18091B0
:105A10005A0D90915B0D019644E6489F9001499F75
:105A2000300D112437FF02C021503F4F832F932F99
:105A3000990F990B009769F028E6209308102BE145
:105A4000209309100E941FC00E94E62585E20E9453
:105A50007EB380912A12882359F1809105108433F6
:105A600038F5809107108A3218F127E048E06AE2A1
:105A70008AE20E947CBF25E042E06CE282E30E9461
:105A80007CBF24E04AE061E38AE20E9446BF609165
:105A9000D30F7091D40F82E38093ED0F8BE280934C
:105AA000EE0F2DEE3FE042E381ED9FE00E944FBDFF
:105AB00080910510853350F480910710813330F0C8
:105AC00024E04AE461E386E30E9446BF609107094F
:105AD000623000F1809105108433E0F4809107106A
